:020000040800F2
:10000000901A0020E5010008FD260008551F000891
:10001000F926000801100008F92E00080000000071
:10002000000000000000000000000000372D000864
:100030009D1400080000000055280008952E0008B7
:10004000FF010008FF010008FF010008FF01000890
:10005000FF010008FF010008FF010008FF01000880
:10006000FF010008FF010008FF010008FF01000870
:10007000FF010008FF010008FF010008FF01000860
:10008000FF010008FF010008FF010008FF01000850
:10009000FF010008FF010008FF0100089F1400088D
:1000A000FF010008FF010008FF010008FF01000830
:1000B000FF010008FF010008FF010008FF01000820
:1000C000FF010008FF010008FF010008FF01000810
:1000D000FF010008FF010008FF010008FF01000800
:1000E000FF010008FF010008FF010008FF010008F0
:1000F000FF010008FF010008FF010008FF010008E0
:10010000FF010008FF010008FF010008FF010008CF
:10011000FF010008FF010008FF010008FF010008BF
:10012000FF010008FF010008FF010008FF010008AF
:1001300000F002F800F047F80AA090E8000C8244B2
:100140008344AAF10107DA4501D100F03CF8AFF28F
:10015000090EBAE80F0013F0010F18BFFB1A43F0A5
:10016000010318470460000024600000103A24BF17
:1001700078C878C1FAD8520724BF30C830C144BF0C
:1001800004680C607047000000230024002500264E
:10019000103A28BF78C1FBD8520728BF30C148BFEA
:1001A0000B6070471FB59DE8030000F061FA00F096
:1001B00043FA04000020002105F0E8FA401C6060CA
:1001C0001FBD10B510BD00F0EFFA1146FFF7EAFFB2
:1001D00005F0C0F800F00DFB03B4FFF7F2FF03BC1D
:1001E00000F03EFB0948804709480047FEE7FEE76C
:1001F000FEE7FEE7FEE7FEE7FEE7FEE7FEE7FEE7D7
:1002000004480549054A064B70470000992E00082E
:100210003101000890060020901A0020901600205E
:100220009016002010B500F007FA001D10BD00BFA9
:100230005D55000070B5A0FB0140B4F1805170F134
:10024000000024BF002070BD204600F007F8050024
:100250001CBF214600F075F9284670BD70B50646F2
:1002600000F0E6F9056806F10B0020F00704B4423F
:100270009CBF002070BD2B466A68BAB11068A042CE
:1002800010D304F1080188423CBF5068586007D37E
:100290005168101941601168091B016058601460B1
:1002A000101D70BD13465268002AE7D1214628462A
:1002B00000F0CAF90028DED170BD70B50446051FF4
:1002C00000F0B6F90068002C14BF446870BD002C23
:1002D00018BFAC423CBF20466468F8D301680A18D6
:1002E000AA4218BF456003D12A680546114401603F
:1002F00028684119A1421CBF6C6070BD61686960CB
:1003000021680844286070BD10B5431C02E010F855
:10031000011B71B18107FAD14FF0013202C88C1A6A
:100320008C4314EAC211F9D0C01A0A0603D0C01EC9
:1003300010BDC01A10BD0A0401D0801E10BD0902F4
:10034000FCD0401E10BD032A40F2308010F0030C98
:1003500000F0158011F8013BBCF1020F624498BF18
:1003600011F801CB00F8013B38BF11F8013BA2F1B5
:10037000040298BF00F801CB38BF00F8013B11F030
:10038000030300F06780083AC0F0088051F8043B8E
:10039000083A51F804CBA0E80810F5E7121D5CBF3D
:1003A00051F8043B40F8043BAFF30080D20724BF70
:1003B00011F8013B11F801CB48BF11F8012B24BF04
:1003C00000F8013B00F801CB48BF00F8012B704753
:1003D000431A28BF9A427FF6B6AF032A104411444D
:1003E00040F2268010F0030F1EBF11F8013D521E8F
:1003F00000F8013D10F0030F7FF4F6AF11F0030396
:1004000000F06D80083AC0F00B8051F8043D083AC6
:1004100051F804CD40F8043D40F804CDFFF7F3BF98
:10042000121D5CBF51F8043D40F8043DAFF300805D
:10043000D20724BF11F8013D11F801CD48BF11F8D2
:10044000012C24BF00F8013D00F801CD48BF00F8A1
:10045000012C704710B5203AC0F00B80B1E818505D
:10046000203AA0E81850B1E81850A0E81850BFF49E
:10047000F5AF5FEA027C24BFB1E81850A0E818503D
:1004800044BF18C918C0BDE810405FEA827C24BF91
:1004900051F8043B40F8043B08BF7047D20728BF1F
:1004A00031F8023B48BF11F8012B28BF20F8023B6E
:1004B00048BF00F8012B7047431A28BF9A427FF6C5
:1004C000C9AF104410F0030F11441EBF11F8013DD5
:1004D000521E00F8013D10F0030F7FF4F6AF103A02
:1004E000C0F00A8010B531E91850103A20E91850D0
:1004F000BFF4F9AFBDE81040530724BF31E908103D
:1005000020E9081044BF51F8043D40F8043D12F0C2
:10051000030F08BF7047D20728BF31F8023D48BF1C
:1005200011F8012C28BF20F8023D48BF00F8012C2B
:10053000704702F0FF0343EA032242EA024200F05E
:1005400002B84FF000020429C0F0128010F0030C32
:1005500000F01B80CCF1040CBCF1020F18BF00F8B6
:10056000012BA8BF20F8022BA1EB0C0100F00DB865
:100570005FEAC17C24BF00F8012B00F8012B48BFC3
:1005800000F8012B70474FF0000200B51346944667
:100590009646203922BFA0E80C50A0E80C50B1F1DB
:1005A0002001BFF4F7AF090728BFA0E80C5048BFEF
:1005B0000CC05DF804EB890028BF40F8042B08BF8D
:1005C000704748BF20F8022B11F0804F18BF00F889
:1005D000012B704710B5044610F0030F08BF11F04F
:1005E000030F40F015804FF0013E121FC0F20E8045
:1005F00051F8043BA3EB0E0C2CEA030C1CEACE1CB6
:1006000008BF40F8043BF0D0A1F1040102F104025C
:10061000521E08DB11F8013B002B00F8013BF7D11B
:100620001146FFF78EFF204610BD70477047704798
:1006300000487047380600200048704750060020E8
:10064000704770477047704738B504460A46002027
:100650006946AFF30080002808BF38BD0246009904
:10066000204600F040F8012038BD012000F055B8C8
:10067000F8B5AFF30080054600200C46102000BFFF
:100680000646A819A0420DD9324669460020AFF3AC
:100690000080070008BF00F040F80098A04218BF93
:1006A0000546C419FFF7C4FF05600746F01D20F09A
:1006B00007004619284600F00AF8B44208BFF8BD02
:1006C000A21B31463868BDE8F84000F00CB80021A4
:1006D0000160C0E901107047102070470048704762
:1006E000300600207047034640688C46002818BF3B
:1006F00088423CBF03464068F8D3186818448842D3
:1007000007D00CF1030020F00700001D411A521A17
:100710000146081D0A60FFF7D0BD10B500F078F85B
:10072000BDE8104000F06EB84FF0013C50F8042BCB
:1007300051F8043B9A4221D1A2EB0C03934313EAF4
:10074000CC1317D150F8042B51F8043B9A4215D121
:10075000A2EB0C03934313EACC130BD150F8042BF8
:1007600051F8043B9A4209D1A2EB0C03934313EADC
:10077000CC13DBD04FF00000704700BFD01A01BA95
:10078000B1FA81F101F0180122FA01F0CB40C1F178
:100790002001DBB2C0B2C01A2CFA01F3D11A914386
:1007A00011EAC311E6D170477546FFF797FFAE46D1
:1007B00005006946534620F00700854618B020B56D
:1007C000FFF71EFDBDE820404FF000064FF0000788
:1007D0004FF000084FF0000B21F00701AC46ACE8E9
:1007E000C009ACE8C009ACE8C009ACE8C0098D4656
:1007F000704710B50446AFF300802046BDE81040B6
:10080000FFF7EABC002801D000F02AB870470000CA
:1008100010B5012805D0002103A000F027F8012021
:1008200010BD09A1F8E7000053494752544D454D0A
:100830003A204F7574206F662068656170206D6581
:100840006D6F7279000000003A2048656170206D7C
:10085000656D6F727920636F727275707465640074
:1008600001491820ABBEFEE72600020070B5054620
:100870000C460A2000E06D1C00F011F835B1287814
:100880000028F8D102E0641C00F009F814B12078C7
:100890000028F8D1BDE870400A20AFF3008008B509
:1008A00069468DF800000320ABBE08BD70B5044654
:1008B0000D461148844205D01048844202D01048A9
:1008C000844200D104E040F22D110EA004F0FAFCA5
:1008D0000DB1012D00D104E04FF4977109A004F08F
:1008E000F1FC25B1A06840F00100A06003E0A06821
:1008F00020F00100A06070BD0024014000280140EC
:10090000003C01402E2E5C4C696272617269657315
:100910005C53544D3332463130785F5374645065C4
:10092000726970685F4472697665725C7372635C49
:1009300073746D3332663130785F6164632E6300A7
:1009400070B504460D461048844202D00F488442D8
:1009500000D104E04FF4A3710DA004F0B3FC0DB17D
:10096000012D00D104E040F2471109A004F0AAFCD7
:1009700025B1A06840F48070A06003E0A06820F476
:100980008070A06070BD000000240140003C014068
:100990002E2E5C4C69627261726965735C53544DB2
:1009A0003332463130785F537464506572697068D1
:1009B0005F4472697665725C7372635C73746D33E5
:1009C00032663130785F6164632E630070B504462F
:1009D00000250C48844205D00B48844202D00B48C5
:1009E000844200D104E040F2B11109A004F06AFC95
:1009F000A06800F0040008B1012500E000252846A9
:100A000070BD00000024014000280140003C01406E
:100A10002E2E5C4C69627261726965735C53544D31
:100A20003332463130785F53746450657269706850
:100A30005F4472697665725C7372635C73746D3364
:100A400032663130785F6164632E630070B50446AE
:100A500000250C48844205D00B48844202D00B4844
:100A6000844200D104E040F28B1109A004F02AFC7A
:100A7000A06800F0080008B1012500E00025284624
:100A800070BD00000024014000280140003C0140EE
:100A90002E2E5C4C69627261726965735C53544DB1
:100AA0003332463130785F537464506572697068D0
:100AB0005F4472697665725C7372635C73746D33E4
:100AC00032663130785F6164632E63002DE9F04156
:100AD00005460C46002600275D48854205D05D4846
:100AE000854202D05C48854200D103E0DE215BA054
:100AF00004F0E8FB206818B32068B0F5803F1FD0F1
:100B00002068B0F5003F1BD02068B0F5403F17D0FB
:100B10002068B0F5802F13D02068B0F5A02F0FD03B
:100B20002068B0F5C02F0BD02068B0F5E02F07D0BB
:100B30002068B0F5002F03D02068B0F5102F00D149
:100B400003E0DF2145A004F0BDFB207910B120793E
:100B5000012800D103E0E02140A004F0B3FB60795C
:100B600010B16079012800D103E0E1213BA004F03D
:100B7000A9FBA06888B3A068B0F5003F2DD0A0689D
:100B8000B0F5802F29D0A068B0F5C02F25D0A0687F
:100B9000B0F5002F21D0A068B0F5202F1DD0A0689F
:100BA000B0F5402F19D0A068B0F5602F15D0A0681F
:100BB00098B1A068B0F5003F0FD0A068B0F5C02F85
:100BC0000BD0A068B0F5002F07D0A068B0F5202F9B
:100BD00003D0A068B0F5402F00D103E0E2211FA0B0
:100BE00004F070FBE06818B1E068B0F5006F00D168
:100BF00003E0E32119A004F065FB207C012803DB5E
:100C0000207C102800DC03E0E42114A004F05AFB4F
:100C10006E68214806402179206840EA0120064399
:100C20006E60AE681D480640D4E902100843617941
:100C300040EA41000643AE60EE6A26F47006207C6E
:100C4000401EC0B2074346EA0756EE62BDE8F08197
:100C50000024014000280140003C01402E2E5C4C45
:100C600069627261726965735C53544D3332463107
:100C700030785F5374645065726970685F4472695C
:100C80007665725C7372635C73746D333266313097
:100C9000785F6164632E6300FFFEF0FFFDF7F1FFF4
:100CA0002DE9F04706460C46174698460025A9460A
:100CB0006048864205D06048864202D05F4886423E
:100CC00000D104E040F251215DA004F0FBFA0CB326
:100CD000012C1FD0022C1DD0032C1BD0042C19D0AA
:100CE000052C17D0062C15D0072C13D0082C11D0AA
:100CF000092C0FD00A2C0DD00B2C0BD00C2C09D0AA
:100D00000D2C07D00E2C05D00F2C03D0102C01D0A9
:100D1000112C00D104E040F2522149A004F0D2FA93
:100D2000012F02DB102F00DC04E040F2532144A02D
:100D300004F0C8FAB8F1000F14D0B8F1010F11D0C7
:100D4000B8F1020F0ED0B8F1030F0BD0B8F1040FB9
:100D500008D0B8F1050F05D0B8F1060F02D0B8F1F0
:100D6000070F00D104E04FF4157135A004F0AAFA82
:100D7000092C13DDF568A4F10A0000EB40010720FF
:100D800000FA01F925EA0905A4F10A0000EB400088
:100D900008FA00F945EA0905F5600EE0356904EB4B
:100DA0004401072000FA01F925EA090504EB440093
:100DB00008FA00F945EA09053561072F11DA756B64
:100DC000781E00EB80011F2000FA01F925EA0905D1
:100DD000781E00EB800004FA00F945EA0905756306
:100DE00026E00D2F11DA356BF81F00EB80011F2074
:100DF00000FA01F925EA0905F81F00EB800004FA62
:100E000000F945EA0905356312E0F56AA7F10D001E
:100E100000EB80011F2000FA01F925EA0905A7F17E
:100E20000D0000EB800004FA00F945EA0905F562BF
:100E3000BDE8F0870024014000280140003C01404B
:100E40002E2E5C4C69627261726965735C53544DFD
:100E50003332463130785F5374645065726970681C
:100E60005F4472697665725C7372635C73746D3330
:100E700032663130785F6164632E630010B50446DA
:100E80000948844205D00948844202D00848844277
:100E900000D104E040F27D1106A004F013FAA0682E
:100EA00040F00800A06010BD00240140002801406F
:100EB000003C01402E2E5C4C696272617269657360
:100EC0005C53544D3332463130785F53746450650F
:100ED000726970685F4472697665725C7372635C94
:100EE00073746D3332663130785F6164632E6300F2
:100EF00070B504460D461148844205D0104884421E
:100F000002D01048844200D104E040F2CB110EA080
:100F100004F0D8F90DB1012D00D104E04FF4E671D1
:100F200009A004F0CFF925B1A06840F4A000A060AA
:100F300003E0A06820F4A000A06070BD0024014080
:100F400000280140003C01402E2E5C4C6962726119
:100F5000726965735C53544D3332463130785F5358
:100F600074645065726970685F4472697665725C1A
:100F70007372635C73746D3332663130785F6164B1
:100F8000632E630010B504460948844205D0094821
:100F9000844202D00848844200D104E040F2A31108
:100FA00006A004F08FF9A06840F00400A06010BD16
:100FB0000024014000280140003C01402E2E5C4CE2
:100FC00069627261726965735C53544D33324631A4
:100FD00030785F5374645065726970685F447269F9
:100FE0007665725C7372635C73746D333266313034
:100FF000785F6164632E630010B502F0F7FF10BDE7
:1010000000BFFEE770B504460D46244884422AD04E
:1010100022481430844226D020482830844222D0EE
:101020001E483C3084421ED01C48503084421AD0A6
:101030001A486430844216D018487830844212D05E
:10104000174884420FD01648143084420BD01448FD
:101050002830844207D012483C30844203D01048E4
:101060005030844200D104E04FF494710DA004F09C
:1010700029F90DB1012D00D104E040F2291109A098
:1010800004F020F925B1206840F00100206004E060
:1010900020684FF6FE710840206070BD08000240D5
:1010A000080402402E2E5C4C69627261726965739D
:1010B0005C53544D3332463130785F53746450651D
:1010C000726970685F4472697665725C7372635CA2
:1010D00073746D3332663130785F646D612E6300F6
:1010E00010B504466A4884422AD0694814308442C4
:1010F00026D067482830844222D065483C3084425C
:101100001ED06348503084421AD061486430844213
:1011100016D05F487830844212D05E4884420FD0A7
:101120005C48143084420BD05A482830844207D09F
:1011300058483C30844203D056485030844200D155
:1011400003E06E2154A004F0BDF820684FF6FE7154
:1011500008402060002020606060A060E0604C4893
:10116000844208D14A480838406840F00F00484996
:10117000083948608AE046481430844208D144481F
:101180000838406840F0F0004149083948607DE087
:101190003F482830844208D13D480838406840F430
:1011A00070603B490839486070E039483C308442FF
:1011B00008D137480838406840F47040344908394D
:1011C000486063E032485030844208D130480838E3
:1011D000406840F470202E490839486056E02C4899
:1011E0006430844208D12A480838406840F47000CE
:1011F00027490839486049E025487830844208D1B9
:1012000023480838406840F0706021490839486038
:101210003CE02048844206D1001F006840F00F00E7
:10122000211F086032E01B481430844208D119485D
:10123000001F006840F0F0001649091F086025E013
:1012400014482830844208D11248001F006840F436
:1012500070601049091F086018E00E483C30844255
:1012600008D10C48001F006840F470400949091F6C
:1012700008600BE007485030844207D10548001F42
:10128000006840F470200349091F086010BD000089
:1012900008000240080402402E2E5C4C6962726114
:1012A000726965735C53544D3332463130785F5305
:1012B00074645065726970685F4472697665725CC7
:1012C0007372635C73746D3332663130785F646D52
:1012D000612E630070B505460C4600265E488542C7
:1012E0002AD05D481430854226D05B48283085429C
:1012F00022D059483C3085421ED057485030854254
:101300001AD055486430854216D05348783085420B
:1013100012D0524885420FD05048143085420BD02D
:101320004E482830854207D04C483C30854203D097
:101330004A485030854200D103E0CE2148A003F056
:10134000C1FFA068102801D0A06800B903E0CF2138
:1013500043A003F0B7FFE06820B1E068B0F5803F3C
:1013600000D203E0D0213EA003F0ACFF206940286A
:1013700001D0206900B903E0D12139A003F0A2FF18
:101380006069802801D0606900B903E0D22134A0EF
:1013900003F098FFA06938B1A069B0F5807F03D051
:1013A000A069B0F5007F00D103E0D3212CA003F0A9
:1013B00089FFE06938B1E069B0F5806F03D0E0697A
:1013C000B0F5006F00D103E0D42125A003F07AFF2F
:1013D000206A202801D0206A00B903E0D52120A08E
:1013E00003F070FF606AB0F5405F09D0606AB0F545
:1013F000005F05D0606AB0F5805F01D0606A00B917
:1014000003E0D62116A003F05DFFA06AB0F5804F7F
:1014100001D0A06A00B903E0D72111A003F052FF68
:101420002E6847F6F0708643216AA0680843216958
:10143000084361690843A1690843E1690843616A97
:101440000843A16A084306432E60E068686020688C
:10145000A8606068E86070BD0800024008040240AF
:101460002E2E5C4C69627261726965735C53544DD7
:101470003332463130785F537464506572697068F6
:101480005F4472697665725C7372635C73746D330A
:1014900032663130785F646D612E6300704710B53D
:1014A000802000F037F8962003F02EFF802000F017
:1014B00001F810BD10B50446200D000508B904B1AF
:1014C00003E0FB2102A003F0FDFE1148046010BD03
:1014D0002E2E5C4C69627261726965735C53544D67
:1014E0003332463130785F53746450657269706886
:1014F0005F4472697665725C7372635C73746D339A
:1015000032663130785F657874692E6300000000C0
:101510001404014070B5044600250026012C31D08A
:10152000022C2FD0042C2DD0082C2BD0102C29D0FD
:10153000202C27D0402C25D0802C23D0B4F5807FC0
:1015400020D0B4F5007F1DD0B4F5806F1AD0B4F56B
:10155000006F17D0B4F5805F14D0B4F5005F11D0E0
:10156000B4F5804F0ED0B4F5004F0BD0B4F5803FEA
:1015700008D0B4F5003F05D0B4F5802F02D0B4F503
:10158000002F00D103E0E42108A003F09BFE1748E0
:10159000006800EA0406154814300068204010B1C5
:1015A0000EB1012500E00025284670BD2E2E5C4CB2
:1015B00069627261726965735C53544D33324631AE
:1015C00030785F5374645065726970685F44726903
:1015D0007665725C7372635C73746D33326631303E
:1015E000785F657874692E63000000000004014094
:1015F00070B504460025207910B12079042800D167
:1016000003E0692135A003F05DFE6079082805D06C
:1016100060790C2802D06079102800D103E06A219B
:101620002EA003F04FFE20686FF3130010B920685E
:1016300000B103E06B2129A003F044FEA07910B1B2
:10164000A079012800D103E06C2124A003F03AFE28
:10165000324DA07990B32846006821688843294616
:101660000860081D006821688843291D08602079EA
:101670000544286821680843286028480830006825
:1016800021688843254908310860081D00682168E1
:10169000884322490C310860607910280FD1081F57
:1016A0000068216808431D4908310860081D00686A
:1016B0002168084319490C3108600EE007E0174D16
:1016C00060790544286821680843286005E020798E
:1016D0000544286821688843286070BD2E2E5C4C24
:1016E00069627261726965735C53544D333246317D
:1016F00030785F5374645065726970685F447269D2
:101700007665725C7372635C73746D33326631300C
:10171000785F657874692E63000000000004014062
:1017200070B505460C4600265DB1012D09D0022D8D
:1017300007D0032D05D0042D03D0052D01D0062D93
:1017400000D104E040F2622121A003F0BBFDECB126
:10175000012C1BD0022C19D0032C17D0042C15D02F
:10176000052C13D0062C11D0072C0FD0082C0DD02F
:10177000092C0BD00A2C09D00B2C07D00C2C05D02F
:101780000D2C03D00E2C01D00F2C00D104E040F220
:1017900063210FA003F096FDA007010F0F2000FAB0
:1017A00001F61B48A11050F82100B0431849A210BF
:1017B00041F822000846A11050F82100A107090FA6
:1017C00005FA01F108431249A21041F8220070BD48
:1017D0002E2E5C4C69627261726965735C53544D64
:1017E0003332463130785F53746450657269706883
:1017F0005F4472697665725C7372635C73746D3397
:1018000032663130785F6770696F2E6300000000C8
:10181000080001402DE9F05F05460C464FF0000935
:10182000CA4600260027B046B3465948854211D023
:10183000584885420ED0584885420BD057488542BB
:1018400008D05748854205D05648854202D05648B0
:10185000854200D103E0B12154A003F033FDE078CC
:10186000A0B1E078042811D0E07828280ED0E078E4
:1018700048280BD0E078142808D0E078102805D04C
:10188000E0781C2802D0E078182800D103E0B221CB
:1018900046A003F017FD002010B9208800B103E036
:1018A000B32142A003F00EFDE07800F00F09E078CC
:1018B00000F0100080B1A078012805D0A07802289F
:1018C00002D0A078032800D103E0BA2137A003F0AA
:1018D000F9FCA07840EA0909207838B3D5F80080EF
:1018E00000261FE0012000FA06F7208800EA070A18
:1018F000BA4516D1B7000F2000FA07FB28EA0B08FB
:1019000009FA07F040EA0808E078282803D1012006
:10191000B040686105E0E078482802D10120B0407D
:101920002861761C082EDDD3C5F800802088FF28AA
:101930002BDDD5F80480002623E006F10800012104
:1019400001FA00F7208800EA070ABA4518D1B70063
:101950000F2000FA07FB28EA0B0809FA07F040EA13
:101960000808E078282803D106F108008140696161
:10197000E078482804D106F108000121814029615E
:10198000761C082ED9D3C5F80480BDE8F09F00006E
:1019900000080140000C014000100140001401400B
:1019A00000180140001C0140002001402E2E5C4C1C
:1019B00069627261726965735C53544D33324631AA
:1019C00030785F5374645065726970685F447269FF
:1019D0007665725C7372635C73746D33326631303A
:1019E000785F6770696F2E630000000070B5044671
:1019F0000D461348844211D0124884420ED012483A
:101A000084420BD01148844208D01148844205D04A
:101A10001048844202D01048844200D104E04FF4C0
:101A2000BC710EA003F04EFC002008B905B104E023
:101A300040F2791109A003F045FC656170BD00001A
:101A400000080140000C014000100140001401405A
:101A500000180140001C0140002001402E2E5C4C6B
:101A600069627261726965735C53544D33324631F9
:101A700030785F5374645065726970685F4472694E
:101A80007665725C7372635C73746D333266313089
:101A9000785F6770696F2E6300000000014802499B
:101AA000086070475D2B00081C0000202DE9F047FE
:101AB00005460E46174698461C48D0F81100B0F56A
:101AC000005F14D34FF0000908E01849D1F809006D
:101AD00002F056F981464846FEF7EFFB1349D1F86C
:101AE000090002F027F90028EFD0BDE8F0871020A8
:101AF000FEF7B4FB044625606660781B401CA060BE
:101B0000A8EB0600401CE0600848D0F81100D4E9BA
:101B1000021201FB02000549C1F81100D1F80900C9
:101B2000214602F05FF900BFDFE7000088040020D3
:101B300070474FF47A71484300BF011EA0F10100C5
:101B4000FBD1704710B5029C10BD704710B511480D
:101B50001149086008460068104908600E49086885
:101B60004FF48061FEF7EDFC00200B4908724860DD
:101B700002F0BCF80849C1F809000020C1F80D00C6
:101B8000C1F81100C1F8150001F0E8FE01F098FD60
:101B900010BD000088000020880400202C000020D8
:101BA00070B52348D0F8090000B970BD0024204862
:101BB000D0F81100B0F5005F17D33F237F2200213A
:101BC000084600F037F808E01949D1F8090002F09A
:101BD000D7F804462046FEF770FB1549D1F80900F6
:101BE00002F0A8F80028EFD01CE014E01049D1F86A
:101BF000090002F0C5F80446E668656835446B1EC6
:101C0000A668256835446A1ED4E9000100F012F880
:101C10002046FEF752FB0649D1F8090002F08AF887
:101C20000028E3D000200249C1F8110000BFBCE742
:101C3000880400202DE9F04F87B0044688461546F9
:101C400099462248006848B3281B00F1010A4FEA70
:101C5000E8064FEAE907B81B401C0690069A0AFB03
:101C600002F0FEF7FBFA05901948CDE90257CDE9DD
:101C70000046016880230122059803F09BFA834601
:101C80004B462A46414600902046DFF840C0DCF82B
:101C900000C0E0470598FEF710FB14E0464610E050
:101CA00027460BE00A480068F11000EBC110C25D46
:101CB00031463846074B1B6898477F1CAF42F1DD21
:101CC000761C4E45ECDD07B0BDE8F08F1C0000200F
:101CD00088040020200000200348007A012800D159
:101CE00070470020FCE700008804002070B504461F
:101CF0002C20FEF7B3FA054605B104E04FF4EF716E
:101D00000FA003F0DFFA04B104E040F2DF110CA0F1
:101D100003F0D8FA2C2221462846FEF7CDFB94F991
:101D20001C108800FEF79AFA286294F91C309A0079
:101D3000216A286AFEF7C0FB0020A862284670BD11
:101D40002E2E5C2E2E5C636F72655C476C75636F24
:101D50006F5C6D656E755C474C555F6D656E752E7D
:101D6000630000002DE9FC4105460E4605B104E084
:101D70004FF4097110A003F0A5FA2C4601F0DEFD26
:101D800001F03AFB8EB102201449CDE90010D4F8DD
:101D900010C0A76967447B1ED4F80CC0676967440C
:101DA0007A1E6046216901F03BFF01F07FFF01F0E0
:101DB000EDFC0020BDE8FC812E2E5C2E2E5C636FB6
:101DC00072655C476C75636F6F5C6D656E755C47C3
:101DD0004C555F6D656E752E630000002C00002071
:101DE0002DE9F04106463446A56A01F0A7FD01F051
:101DF00003FB607A01F040FD002D26D10720FEF79D
:101E00002DFA054605B104E04FF4007125A003F05A
:101E100059FAA5620C20A870E8700020287095F986
:101E20000210A069B0FBF1F040B2A871082028713F
:101E3000687195F90310A069401A95F90210B0FB7A
:101E4000F1F040B2A87100206870204602F08AFAD2
:101E5000204602F025F901F029FF01F097FCFFF779
:101E60003BFF70B1D4F810C0A76967447B1ED4F85B
:101E70000CC0676967447A1E60462169FFF7DAFE85
:101E80000DE0D4F810C0A76967447B1ED4F80CC0DD
:101E9000676967447A1E60462169FFF707FE0020E4
:101EA000BDE8F0812E2E5C2E2E5C636F72655C4760
:101EB0006C75636F6F5C6D656E755C474C555F6DDF
:101EC000656E752E630000002DE9F04105460E4653
:101ED0002C46A06A10B90020BDE8F08101F02EFD6B
:101EE00001F08AFAB6F1FF3F05D016B1012E06D0F7
:101EF00000BF0020F0E7204602F054FE03E0204639
:101F000002F00EFB00BF00BF01F0D0FE01F03EFC6E
:101F1000FFF7E2FE70B1D4F810C0A76967447B1EDA
:101F2000D4F80CC0676967447A1E60462169FFF7E0
:101F300081FE0DE0D4F810C0A76967447B1ED4F879
:101F40000CC0676967447A1E60462169FFF7AEFDE1
:101F50000020C1E700BFFEE72DE9F04705460C462B
:101F60000027B9460026B0463348854202D03348A0
:101F7000854200D104E040F2DF3131A003F0A2F944
:101F80003E4884423DD0B4F1021F3AD03C488442DE
:101F900037D0B4F5020F34D0B4F5901F31D03948A2
:101FA00084422ED0384884422BD03848844228D0EE
:101FB0003248801C844224D03148001D844220D005
:101FC000334884421DD0102C1BD03248844218D094
:101FD0003148844215D02F48401C844211D02D48EE
:101FE0003F3084420DD02C48801C844209D0001F11
:101FF000844206D02748C01D844202D0B4F5806FC9
:1020000000D104E04FF478710DA003F05BF9B5F84E
:1020100014902E8B360449EA060020F07F4707EA29
:102020000400A04202D14FF0010801E04FF0000887
:102030004046BDE8F08700000054004000580040D2
:102040002E2E5C4C69627261726965735C53544DEB
:102050003332463130785F5374645065726970680A
:102060005F4472697665725C7372635C73746D331E
:1020700032663130785F6932632E63008200060079
:1020800080008600400002004000820040001200F4
:1020900084001600010003008200070070B50446AA
:1020A0000D461048844202D00F48844200D104E01B
:1020B0004FF4A2710DA003F005F90DB1012D00D16F
:1020C00004E040F2451109A003F0FCF825B1208896
:1020D00040F00100208004E020884FF6FE710840A7
:1020E000208070BD00540040005800402E2E5C4CF3
:1020F00069627261726965735C53544D3332463163
:1021000030785F5374645065726970685F447269B7
:102110007665725C7372635C73746D3332663130F2
:10212000785F6932632E630010B50446104884421C
:1021300002D01048844200D103E0A4210EA003F095
:10214000C1F80B48844209D10121480500F010FC78
:1021500000214FF4001000F00BFC08E0012188057D
:1021600000F006FC00214FF4800000F001FC10BDDF
:1021700000540040005800402E2E5C4C6962726191
:10218000726965735C53544D3332463130785F5316
:1021900074645065726970685F4472697665725CD8
:1021A0007372635C73746D3332663130785F693299
:1021B000632E630070B504460D461048844202D079
:1021C0000F48844200D104E04FF4C6710DA003F023
:1021D00079F80DB1012D00D104E040F28D1109A074
:1021E00003F070F825B1208840F48070208004E06E
:1021F00020884FF6FF610840208070BD00540040E9
:10220000005800402E2E5C4C6962726172696573E1
:102210005C53544D3332463130785F5374645065AB
:10222000726970685F4472697665725C7372635C30
:1022300073746D3332663130785F6932632E6300B8
:1022400070B504460D461048844202D00F488442BF
:1022500000D104E04FF4D2710DA003F033F80DB1BA
:10226000012D00D104E040F2A51109A003F02AF8E5
:1022700025B1208840F40070208004E020884FF6CB
:10228000FF510840208070BD0054004000580040BD
:102290002E2E5C4C69627261726965735C53544D99
:1022A0003332463130785F537464506572697068B8
:1022B0005F4472697665725C7372635C73746D33CC
:1022C00032663130785F6932632E63007CB5054633
:1022D0000C4600260020019000903648854202D02E
:1022E0003548854200D104E040F2454133A002F078
:1022F000E9FFB4F5000F3FD0B4F5800F3CD0B4F542
:10230000001F39D0B4F5801F36D0B4F5802F33D0FC
:10231000B4F5003F30D0B4F5803F2DD0364884422C
:102320002AD03648844227D0B4F1102F24D0344824
:10233000844221D0334884421ED0334884421BD08B
:102340003248844218D031488038844214D02F4813
:10235000C038844210D02D48F03884420CD02B482D
:10236000F838844208D0001F844205D0801E844281
:1023700002D0401E844200D104E040F246410FA04A
:1023800002F0A0FF0095200F019024F07F440198F7
:1023900018B100981430009003E0240C0098183015
:1023A000009000980068204008B1012600E0002657
:1023B00030467CBD00540040005800402E2E5C4C3E
:1023C00069627261726965735C53544D3332463190
:1023D00030785F5374645065726970685F447269E5
:1023E0007665725C7372635C73746D333266313020
:1023F000785F6932632E6300008000100040001097
:10240000000800100004001000020010000100107D
:102410002DE9F04385B005460C460026B146042759
:10242000DFF870815C48854202D05C48854200D16B
:1024300003E0C5215AA002F045FF206820B167499A
:102440002068884200D803E0C62155A002F03AFF78
:10245000A08828B1A088022802D0A0880A2800D12C
:1024600003E0C7214EA002F02DFFE088B0F5804FB9
:1024700004D0E0884BF6FF71884200D103E0C82108
:1024800047A002F01FFF2089B0F5806F00DA03E05B
:10249000C92143A002F016FF6089B0F5806F01D01A
:1024A000608900B903E0CA213DA002F00BFFA089BA
:1024B000B0F5804F03D0A089B0F5404F00D103E0C4
:1024C000CB2137A002F0FEFEAE884FF6C07006406A
:1024D000684600F0D9FADDF808804148B8FBF0F012
:1024E0001FFA80F946EA0906AE8028884FF6FE7189
:1024F0000840288000263B49206888420CD8206884
:102500004000B8FBF0F087B2042F00DA04273E4306
:1025100009F10100288427E0E0884BF6FF7188422A
:1025200006D1206800EB4000B8FBF0F087B209E06C
:10253000206800EBC00101EB0010B8FBF0F087B29F
:1025400047F48047C7F30B0008B947F0010747F489
:10255000004006434FF4967009FB00F04FF47A7187
:1025600090FBF1F0401C2884AE83288840F00100E5
:1025700028802E884FF6F5300640A08861890843F0
:1025800006432E80A08921890843288105B0BDE833
:10259000F083000000127A00005400400058004010
:1025A0002E2E5C4C69627261726965735C53544D86
:1025B0003332463130785F537464506572697068A5
:1025C0005F4472697665725C7372635C73746D33B9
:1025D00032663130785F6932632E6300801A0600FC
:1025E00040420F00A086010070B504460E46154615
:1025F0000E48844202D00E48844200D104E040F2EA
:102600005B210CA002F05EFE0DB1012D00D104E0B3
:102610004FF4177107A002F055FE15B146F0010600
:1026200002E04FF6FE700640268270BD0054004066
:10263000005800402E2E5C4C6962726172696573AD
:102640005C53544D3332463130785F537464506577
:10265000726970685F4472697665725C7372635CFC
:1026600073746D3332663130785F6932632E630084
:1026700070B504460D460748844202D0064884429D
:1026800000D104E04FF40F7104A002F01BFE25827C
:1026900070BD000000540040005800402E2E5C4CDD
:1026A00069627261726965735C53544D33324631AD
:1026B00030785F5374645065726970685F44726902
:1026C0007665725C7372635C73746D33326631303D
:1026D000785F6932632E630010B501F03BFC01F0B6
:1026E00029FC01F0C9FC01F0F5FB01F0ABFB10BDCA
:1026F00010B501F05FFC10BD00BFFEE770470000A1
:102700002DE9F0410446002500270F26E07810B19E
:10271000E078012800D103E0742121A002F0D2FD6D
:102720006078102800DA03E075211DA002F0CAFDD0
:10273000A078102800DA03E0762119A002F0C2FD8B
:10274000E07800B32348006800F4E060C0F5E06082
:10275000050AC5F10407EE40607800FA07F5A07895
:10276000304005432D011C4822788554207800F024
:102770001F010120884021784911890001F1E021E1
:10278000C1F8000109E0207800F01F010120884015
:1027900012492278521141F82200BDE8F081000070
:1027A0002E2E5C4C69627261726965735C53544D84
:1027B0003332463130785F537464506572697068A3
:1027C0005F4472697665725C7372635C6D69736392
:1027D0002E6300000CED00E000E400E080E100E08A
:1027E00010B50446B4F5E06F0BD0B4F5C06F08D057
:1027F000B4F5A06F05D0B4F5806F02D0B4F5407F7A
:1028000000D103E0622104A002F05CFD0F482043E8
:102810000F49086010BD00002E2E5C4C6962726189
:10282000726965735C53544D3332463130785F536F
:1028300074645065726970685F4472697665725C31
:102840007372635C6D6973632E6300000000FA05A8
:102850000CED00E07047000070B504460D4640F2F4
:10286000575024EA000008B904B104E040F22A41BC
:102870000CA002F027FD0DB1012D00D104E040F2C3
:102880002B4108A002F01EFD2DB1154840692043E0
:102890001349486104E012484069A0431049486167
:1028A00070BD00002E2E5C4C6962726172696573A6
:1028B0005C53544D3332463130785F537464506505
:1028C000726970685F4472697665725C7372635C8A
:1028D00073746D3332663130785F7263632E6300D8
:1028E0000010024070B504460D461048204008B95B
:1028F00004B104E04FF48D610DA002F0E3FC0DB1D2
:10290000012D00D104E040F2694109A002F0DAFC97
:102910002DB11648C06920431449C86104E013482A
:10292000C069A0431149C86170BD00000036018133
:102930002E2E5C4C69627261726965735C53544DF2
:102940003332463130785F53746450657269706811
:102950005F4472697665725C7372635C73746D3325
:1029600032663130785F7263632E6300001002407C
:1029700070B504460D461048204008B904B104E083
:1029800040F2C2410DA002F09DFC0DB1012D00D11D
:1029900004E040F2C34109A002F094FC2DB11648B6
:1029A000006920431449086104E013480069A0430A
:1029B0001149086170BD0000003601812E2E5C4C6B
:1029C00069627261726965735C53544D333246318A
:1029D00030785F5374645065726970685F447269DF
:1029E0007665725C7372635C73746D33326631301A
:1029F000785F7263632E63000010024070B5044676
:102A00000D461048204008B904B104E040F24941A5
:102A10000DA002F057FC0DB1012D00D104E040F2F1
:102A20004A4109A002F04EFC2DB1164880692043AE
:102A30001449886104E013488069A0431149886102
:102A400070BD00000200C0FF2E2E5C4C69627261F6
:102A5000726965735C53544D3332463130785F533D
:102A600074645065726970685F4472697665725CFF
:102A70007372635C73746D3332663130785F726386
:102A8000632E63000010024030B5002100220024B4
:102A900000232D4D6D6805F00C0121B1042905D0EE
:102AA000082923D105E0294D056022E0274D056066
:102AB0001FE0254D6D6805F47012234D6D6805F417
:102AC0008034022505EB92421CB9214D5543056027
:102AD0000BE01D4D6D6805F400351DB11C4D5543CF
:102AE000056002E0194D5543056002E0174D056091
:102AF00000BF00BF144D6D6805F0F0010909154DC8
:102B00006B5C0568DD4045600F4D6D6805F4E06164
:102B1000090A104D6B5C4568DD4085600A4D6D68A3
:102B200005F46051C90A0B4D6B5C4568DD40C5601A
:102B3000054D6D6805F44041890B074D6B5CC56818
:102B4000B5FBF3F5056130BD0010024000127A00BC
:102B500000093D0004000020140000202DE9FE4F74
:102B600004460D4616461F46DDF830A0002C02DB59
:102B7000802C00DA03E0AB212EA002F0A3FB002E94
:102B800002DB802E00DA03E0AC212AA002F09AFBDF
:102B9000002D02DB402D00DA03E0AD2125A002F07C
:102BA00091FB002F02DB402F00DA03E0AE2121A0D1
:102BB00002F088FBB44201DA204600E0304680464D
:102BC000B44201DD204600E030460290BD4201DA09
:102BD000284600E038464FEAE00BBD4201DD2846BA
:102BE00000E03846C0100190D9461EE009F1B0015E
:102BF000C8B202F059FB08F00F0002F055FB10219B
:102C000041EA2811C8B202F04FFBCDF8008006E07F
:102C10001AF8010B02F04FFB0098401C009002993B
:102C200000988842F4DD09F1010901988145DDDD54
:102C3000BDE8FE8F2E2E5C4253505C7373643133BB
:102C400030362E630000000070B5002413E004F15C
:102C5000B001C8B202F028FB002002F025FB1020D2
:102C600002F022FB002503E0002002F024FB6D1C93
:102C7000802DF9D3641C082CE9D370BD10B501F088
:102C8000CFF9642002F040FBAE2002F00DFB2020C3
:102C900002F00AFB102002F007FBB02002F004FB58
:102CA000C82002F001FB002002F0FEFA102002F022
:102CB000FBFA402002F0F8FA812002F0F5FAFF203A
:102CC00002F0F2FAA12002F0EFFAA62002F0ECFAEC
:102CD000A82002F0E9FA3F2002F0E6FAA42002F070
:102CE000E3FAD32002F0E0FA002002F0DDFAD5206A
:102CF00002F0DAFAF02002F0D7FAD92002F0D4FA82
:102D0000222002F0D1FADA2002F0CEFA122002F0EC
:102D1000CBFADB2002F0C8FA202002F0C5FA8D20A1
:102D200002F0C2FA142002F0BFFAAF2002F0BCFA9F
:102D3000FFF78AFF10BD704710B500F001F810BD15
:102D40000CB50020019000903348006840F48030BA
:102D50003149086000BF3048006800F4003000903E
:102D60000198401C0190009818B90198B0F5A06F27
:102D7000F1D12948006800F4003010B10120009022
:102D800001E0002000900098012843D1234800680A
:102D900040F01000214908600846006820F0030058
:102DA00008600846006840F0020008601A48406861
:102DB000194948600846406848600846406840F441
:102DC000806048600846406820F47C1048600846EF
:102DD000406840F4E81048600846006840F08070A1
:102DE000086000BF0C48006800F000700028F9D0AF
:102DF0000948406820F003000749486008464068D9
:102E000040F00200486000BF0348406800F00C003A
:102E10000828F9D10CBD000000100240002002403B
:102E200010B50446042C01D0601D00B903E0C82190
:102E30000BA002F047FA042C08D14FF0E020006903
:102E400040F004004FF0E021086107E04FF0E0207F
:102E5000006920F004004FF0E021086110BD00007F
:102E60002E2E5C4C69627261726965735C53544DBD
:102E70003332463130785F537464506572697068DC
:102E80005F4472697665725C7372635C6D697363CB
:102E90002E6300007047000010B51348006840F032
:102EA00001001149086008464068104908400E4971
:102EB0004860084600680E4908400B49086008460B
:102EC000006820F4802008600846406820F4FE0076
:102ED00048604FF41F008860FFF72EFF4FF000603E
:102EE0000449086010BD0000001002400000FFF817
:102EF000FFFFF6FE08ED00E000BFFEE7F0B5044678
:102F000017461E685A689D68944205D2A94203D2AA
:102F1000002C01DB002901DA0020F0BD0C48D0F8BC
:102F200014C0006A081A0CFB0040DFF824C0DCF86B
:102F30001CC0A0EB0C00DFF818C0DCF810C01CF8B7
:102F4000000001FB026C0CF804000020E5E7000023
:102F5000580000202DE9F84F06460C4691461D46C4
:102F600005B103E0EC212AA002F0ACF9286800B119
:102F700003E0ED2126A002F0A5F96F68D5F808A0BE
:102F8000BE4205D2544503D2002E01DB002C02DAEA
:102F90000120BDE8F88FE11001FB0761286810F8F7
:102FA0000180B9F1000F01D0012200E0002200925F
:102FB0002046E11704EB5171C910A4EBC10148FA96
:102FC00001F101F0010B009A82EA0B025AB9214685
:102FD000E21704EB5272D210A4EBC2020123934019
:102FE00028EA03020AE02046E21704EB5272D210EC
:102FF000A4EBC20301229A4042EA08024FEAE40C21
:103000000CFB076C2B6803F80C200020C1E70000C4
:103010002E2E5C2E2E5C636F72655C426C61636B5E
:10302000486F7573655C424C4B5F6772617068698D
:10303000632E63002DE9F04706460C4691461D4677
:1030400005B103E06C2120A002F03CF9286800B132
:1030500003E06D211CA002F035F96F68D5F808A0D7
:10306000BE4205D2544503D2002E01DB002C02DA09
:103070000120BDE8F087E11001FB0761286810F826
:103080000180B9F1000F0BD12146E21704EB527217
:10309000D210A4EBC20301229A4028EA02020AE0FD
:1030A0002046E21704EB5272D210A4EBC2030122B5
:1030B0009A4042EA08024FEAE40C0CFB076C2B68CA
:1030C00003F80C200020D4E72E2E5C2E2E5C636FBC
:1030D00072655C426C61636B486F7573655C424CF2
:1030E0004B5F677261706869632E63002DE9F84F6A
:1030F00005460E4691461C4604B103E09B2112A0F2
:1031000002F0E0F8206800B103E09C210EA002F07C
:10311000D9F8D4F800806768D4F808A0BD4205D279
:10312000564503D2002D01DB002E02DA4846BDE8E9
:10313000F88F06FB0780405D00909DF8000006FBBD
:10314000078148550020F2E72E2E5C2E2E5C636F1F
:1031500072655C426C61636B486F7573655C424C71
:103160004B5F677261706869632E63002DE9F047F9
:1031700006460C4692461D4605B103E0372117A0CE
:1031800002F0A0F8286800B103E0382113A002F093
:1031900099F8D5F800806F68D5F80890BE4205D23E
:1031A0004C4503D2002E01DB002C02DA0020BDE8E2
:1031B000F0872046E11704EB5171C910A4EBC1025E
:1031C00001219140E21002FB0782925D1143E2105F
:1031D00002FB078291550020E9E700002E2E5C2EAD
:1031E0002E5C636F72655C426C61636B486F7573D4
:1031F000655C424C4B5F677261706869632E630067
:103200002DE9F84F06460C4692461D4605B103E0EF
:10321000C0212BA002F056F8286800B103E0C121BC
:1032200027A002F04FF8D5F800806F68D5F8089015
:10323000BE4205D24C4503D2002E01DB002C02DA3F
:103240000020BDE8F88FE01000FB0780805D009053
:103250002246E31704EB5373DB10A4EBC30C9DF879
:10326000003043FA0CF303F0010383F0010383B948
:103270002146E31704EB5373DB10A4EBC30C0123CB
:1032800003FA0CF39DF800C043EA0C03DBB2009391
:103290000FE02046E31704EB5373DB10A4EBC30CE1
:1032A000012303FA0CF39DF800C02CEA030CCDF8BF
:1032B00000C09DF8000004FB078188550020C0E78E
:1032C0002E2E5C2E2E5C636F72655C426C61636BAC
:1032D000486F7573655C424C4B5F677261706869DB
:1032E000632E63002DE9F04706460C4692461D46C4
:1032F00005B103E0522117A001F0E4FF286800B1F6
:1033000003E0532113A001F0DDFFD5F800806F68C2
:10331000D5F80890BE4205D24C4503D2002E01DB01
:10332000002C02DA0120BDE8F0872046E11704EB0B
:103330005171C910A4EBC10201219140E21002FBBE
:103340000782925D22EA0101E21002FB0782915599
:103350000020E8E72E2E5C2E2E5C636F72655C42C7
:103360006C61636B486F7573655C424C4B5F677251
:1033700061706869632E63002DE9F04705460E46CB
:1033800090461C4604B103E0872112A001F09AFF89
:10339000206800B103E088210EA001F093FFD4F86B
:1033A0000090D4F804A0A768554505D2BE4203D2C8
:1033B000002D01DB002E02DA4046BDE8F08706FB57
:1033C0000790405D18B906FB079000F805800020C3
:1033D000F3E700002E2E5C2E2E5C636F72655C425C
:1033E0006C61636B486F7573655C424C4B5F6772D1
:1033F00061706869632E630010B5B0220349044808
:10340000FDF728F801200349087010BD540500207D
:10341000A4040020540000202DE9F04F8BB0824618
:103420008D48006830B18C490868FCF746FF0020E1
:10343000894908605046FCF767FF06468648006ADF
:10344000854948600020886004213046FCF7F2FE80
:10345000074604213046FCF7EDFE80460421304645
:10346000FCF7E8FE054604213046FCF7E3FE834600
:10347000B000FCF7F3FE0A90B000FCF7EFFE8146C7
:10348000002486E00020099008901AF90410724880
:10349000D0F8AC0008AB09AAD0F80CC06E482830B0
:1034A000E0470020079006900590049004A805A925
:1034B00006AA07ABCDE90032CDE902106648436A9F
:1034C0001AF90410426AD0F8AC00D0F810C0624873
:1034D0002830E04707990598401A45F824000699D6
:1034E0000498401A4BF8240055F82400B8B904A8F1
:1034F00005A906AA07ABCDE90032CDE9021056486E
:10350000436A426AD0F8AC006821D0F810C0524833
:103510002830E04707990598401A45F82400099893
:1035200002F0C8F901904C48416A019802F0EEF9A6
:10353000029002F0F1F8039002F0A0F90A9941F824
:103540002400089802F0B6F901904348416A0198B6
:1035500002F0DCF9029002F0DFF8039002F08EF93D
:1035600049F824003C48806855F8241008443A493A
:1035700088603CB1601E57F8201055F820000844C0
:1035800047F82400344800690699084448F82400A4
:10359000641CB442FFF476AF2F4989682E4A526802
:1035A00001FB02F00121FCF745FE2B4908600024D5
:1035B0003AE00020099064B159F8240058F824102A
:1035C000254A926801FB020057F82410084409902C
:1035D0000BE059F8240058F824101F4A926801FBA8
:1035E000020057F82410084409901AF904101A48E8
:1035F000406A194A526A184B9B68CDE90032CDE9FE
:1036000002015BF8243055F824201348D0F800E07C
:1036100009980EEB00011048D0F8AC00D0F814C0A7
:103620000D482830E047641CB442C2D33846FCF74A
:1036300044FE4046FCF741FE2846FCF73EFE584655
:10364000FCF73BFE0A98FCF738FE4846FCF735FECF
:1036500001480BB0BDE8F08F540500202DE9F04182
:1036600088B005460E460024002700BF04A805A91F
:1036700006AA07ABCDE90032CDE902100F48436A34
:10368000426A2046641C31560C48D0F8AC00D0F891
:1036900010C00A482830E04707990598401A0744A7
:1036A0003046FCF731FEA04201D9AF42DED3AF4233
:1036B00000D3641E204608B0BDE8F0815405002008
:1036C00070B500202D490877182008622C48C1F8F1
:1036D000AC000846007F2B4951F820002749C1F86B
:1036E000A8000846D0F8A810D0F8AC000022036863
:1036F0002248283098472149086A02F0F3F8044626
:103700001E48D0F8AC00214642681C48283090473B
:103710001A4948620846D0F8AC0001F118031A1F94
:103720001031846801F11800A0471449086902F0BB
:10373000C1F806461148416A304602F0E7F80546EE
:1037400001F0EAFF044602F099F80C490861486963
:1037500002F0B0F806460948416A304602F0D6F851
:10376000054601F0D9FF044602F088F80349486194
:10377000B0220548FCF76EFE70BD00005405002025
:103780003800002050000020A404002010B50F488D
:103790000078C8B10E48006830B10D490868FCF7E0
:1037A0008CFD00200A490860B0220A490848FCF74D
:1037B00051FE0749087F00F05FF80549086A00F0EC
:1037C0000BF800200149087010BD000054000020D3
:1037D00054050020A40400202DE9F04106460820ED
:1037E000234908622348C1F8AC00087F00F044F880
:1037F0001F49086A02F076F804461D48D0F8AC006C
:10380000214642681A4828309047194948620846BC
:10381000D0F8AC0001F118031A1F1031846801F1CF
:103820001800A0471249086902F044F807461048FA
:10383000416A384602F06AF8054601F06DFF044619
:1038400002F01CF80A490861486902F033F807469B
:103850000748416A384602F059F8054601F05CFF16
:10386000044602F00BF802494861BDE8F08100000F
:1038700054050020380000202DE9F04104462C4872
:103880002C49C1F8AC007CB92B4850F82400C1F891
:10389000A8000846D0F8A810D0F8AC0000220368B1
:1038A00024482830984701E0BDE8F08100BF214856
:1038B00004770146086A02F015F805461D48D0F85D
:1038C000AC00294642681B48283090471949486295
:1038D0000846D0F8AC0001F118031A1F10318568B2
:1038E00001F11800A8471349086901F0E3FF0746F2
:1038F0001048416A384602F009F8064601F00CFF0C
:10390000054601F0BBFF0B490861486901F0D2FF91
:1039100007460848416A384601F0F8FF064601F0BC
:10392000FBFE054601F0AAFF0249486100BFBBE764
:1039300038000020540500205000002010B52C2233
:1039400003490448FCF786FD01200349087010BDB7
:10395000580000200406002084000020642008494C
:1039600088604AF64440C860FF2008700320486021
:1039700000200861002102488161416100207047F8
:10398000580000202DE9F05F80460D4691461E4606
:103990000A9C0B9838B1012806D0022802D00728CB
:1039A0007ED194E000BF00BF4FEAE50A4FEAE60B84
:1039B000574688E0574536D1404631E08E49097870
:1039C000B1B9D4E9002307FB0303D25C2946EB1706
:1039D00005EB5373DB10A5EBC30CFF2303FA0CF3C9
:1039E0009A43D4E9003C07FB0C0C03F80C2016E0CA
:1039F000D4E9002307FB0303D25C2946EB1705EB50
:103A00005373DB10A5EBC30CFF2303FA0CF3DBB2FB
:103A10001A43D4E9003C07FB0C0C03F80C20401CB3
:103A20004845CBDD4EE05F453ED1404637E0724928
:103A30000978C9B9D4E9002307FB0303D35C3146F5
:103A4000F21706EB5272D210A6EBC202521C4FF0D4
:103A5000010C0CFA02F2521E9343D4E9002C07FB2E
:103A60000C0C02F80C3019E0D4E9002307FB030327
:103A7000D35C3146F21706EB5272D210A6EBC202AB
:103A8000521C4FF0010C0CFA02F2521ED2B2134338
:103A9000D4E9002C07FB0C0C02F80C30401C00E0B1
:103AA000A0E04845C3DD0DE0D4E9003C07FB0C3342
:103AB00003EB0800504B1A78A9EB0803591CFCF7DC
:103AC00038FD00BF7F1C5F457FF774AF90E00B9817
:103AD000072804D14848006908B9012000E0002007
:103AE0008246BAF1000F46D06068404501DC60684C
:103AF00005E0B8F1000F01DC002000E040463E493F
:103B0000C861A068A84201DCA06804E0002D01DCC7
:103B1000002000E02846384908626068484501DC1A
:103B2000606805E0B9F1000F01DC002000E04846C4
:103B30003149C969401A401C2F4948614862A06850
:103B4000B04201DCA06804E0002E01DC002000E0AF
:103B500030462949096A401A401C27498861886211
:103B6000496A254A926A01FB02F0FCF777FB224979
:103B7000086100BFFEE72F461DE01F4BD3F810C0C1
:103B80001B6AA7EB030B1C4B5B690BFB03C3DFF842
:103B900068C0DCF81CC0A8EB0C0C03EB0C01D4E9EA
:103BA000003C07FB0C3303EB0800A9EB08035A1C8D
:103BB000FCF7C9FB7F1CB742DFDDBAF1000F10D064
:103BC00000200D49C86100210B48016281628161BA
:103BD0004162416101460869FCF76FFB002006491C
:103BE000086105E04FF4787104A001F06BFB00BFA1
:103BF00000BF0020BDE8F09F580000202E2E5C2E54
:103C00002E5C636F72655C426C61636B486F7573A9
:103C1000655C424C4B5F677261706869632E63003C
:103C20002DE9F0478046894615461E46DDE908A481
:103C3000072C01D100BFFEE7474612E01948027881
:103C4000194850F824C0534649463846E0471548BD
:103C50000278154850F824C0534631463846E047AC
:103C60007F1CAF42EADD09F1010712E00D4802783E
:103C70000D4850F824C0534639464046E0470948AD
:103C80000278094850F824C0534639462846E04790
:103C90007F1CB742EADB072C01D100BFFEE7002002
:103CA000BDE8F087580000204461000810B50648C0
:103CB000007838B12C2205490548FCF7CBFB0020E1
:103CC0000149087010BD0000840000200406002097
:103CD0005800002018B90021034A117002E0FF21AA
:103CE000014A1170704700005800002070B5054669
:103CF0000C20FCF7B3FA044604B104E04FF4BE71A3
:103D000003A001F0DFFAA46064602560204670BD66
:103D10002E2E5C2E2E5C636F72655C426C61636B51
:103D2000486F7573655C424C4B5F646174612E63D0
:103D30000000000010B5044604B104E04FF4E47143
:103D400006A001F0BFFAD4E90101884204D16068FD
:103D5000A04201D1012010BD0020FCE72E2E5C2ED8
:103D60002E5C636F72655C426C61636B486F757348
:103D7000655C424C4B5F646174612E63000000001F
:103D800070B5044604B104E040F29D110CA001F0AE
:103D900099FAD4E90101884204D16068A04201D1B6
:103DA000206870BDA568A0680668A0688068446047
:103DB000A0688068A0602846FCF77FFA3046F0E7EC
:103DC0002E2E5C2E2E5C636F72655C426C61636BA1
:103DD000486F7573655C424C4B5F646174612E6320
:103DE0000000000070B505460E4605B104E04FF432
:103DF000C4710BA001F066FA0C20FCF72FFA044600
:103E000004B104E040F28D1105A001F05BFA2660D8
:103E1000A868A0606560A8684460AC60204670BD7A
:103E20002E2E5C2E2E5C636F72655C426C61636B40
:103E3000486F7573655C424C4B5F646174612E63BF
:103E40000000000000B585B001214802FEF7D6FD54
:103E50000020009001208DF804008DF805004FF43B
:103E6000602002900020039002208DF81000694627
:103E70001748FCF72BFE0323012208211448FCF706
:103E80000FFF0323022209211148FCF709FF01213A
:103E90000F48FCF755FD01210D48FCF707FD0C48C4
:103EA000FCF7ECFF00BF0A48FCF7D0FD0028FAD170
:103EB0000748FDF767F800BF0548FCF787FD0028B5
:103EC000FAD101210248FDF713F805B000BD00004A
:103ED0000024014000B58BB001210846FEF7BCFC70
:103EE0001148FDF7FDF8114800900020029010489D
:103EF0000190022003900020049080200590400053
:103F00000690800007902020089000020990002071
:103F10000A9069460448FDF7DDF901210248FDF7E2
:103F200071F80BB000BD0000080002404C240140B5
:103F3000180000201CB58020009000208DF804009F
:103F40000C208DF8050001208DF806006846FDF76D
:103F50004FFB1CBD08B501210C20FEF74FFD0121D0
:103F60000846FEF74BFD8020ADF8000004208DF8D8
:103F7000030069460D48FDF74DFC0120ADF8000037
:103F800000208DF8030069460948FDF743FC022034
:103F9000ADF8000000208DF8030069460448FDF7E5
:103FA00039FC07210020FDF7BBFB08BD00080140DC
:103FB000000C014008B501211020FEF71FFD4FF451
:103FC0000050ADF8000010208DF8030003208DF89C
:103FD000020069460448FDF71DFC4FF400510248F9
:103FE000FDF704FD08BD00000010014008B50121E7
:103FF0000420FEF703FD0420ADF8000010208DF82A
:10400000030003208DF8020069460448FDF702FC16
:1040100004210248FDF7EAFC08BD00000008014049
:1040200000B585B0114B0FCBCDE90323CDE90101DC
:104030000E4810300068009001210820FEF7DEFCD9
:1040400069460B48FDF7E6FB01218805FEF74AFCAF
:104050000848FEF769F801210648FEF71FF801A994
:104060000448FEF7D5F905B000BD0000F05B00087C
:10407000000C01400058004008B54FF4C060FEF746
:10408000AFFB17208DF8000001208DF801008DF89E
:1040900002008DF803006846FEF732FB08BD000001
:1040A0002DE9F04F87B0EB460446A56A95F9050067
:1040B000FFF792FB95F9020095F90510401AE168A7
:1040C00001EB60007F2801D37F2013E095F9020007
:1040D00095F90510401AE16801EB6000002801DC49
:1040E000002007E095F9020095F90510401AE168F3
:1040F00001EB6000CBF8180095F903102069084423
:1041000095F9021095F90420891A00EB61003F2807
:1041100001D33F2019E095F903102069084495F96F
:10412000021095F90420891A00EB6100002801DCD7
:1041300000200AE095F903102069084495F902105F
:1041400095F90420891A00EB61000746E068401CDD
:104150007F2801D37F2007E0E068401C002801DCB5
:10416000002001E0E068401CCBF8140095F9031032
:10417000206908443F2801D33F200BE095F9031044
:1041800020690844002801DC002003E095F90310B1
:10419000206908448146E079CBF810000026D2E07F
:1041A00095F900303344226A52F823106069FFF712
:1041B00055FA80460020CBF80C0095F90100B0427A
:1041C0000AD1E07908B9FF2000E00020CBF8100008
:1041D000207AFFF77FFD05E0E079CBF81000A079A9
:1041E000FFF778FD02215E4882B0CDE90001E16869
:1041F00060690844821E95F9020000EB09034946F4
:10420000DBF81400FFF7BEFB02B0B8F1000F7CDD55
:1042100008F10B0020F00700ADEB000DCBF80CD03F
:1042200095F900203244206A50F822104246DBF80B
:104230000C00FCF7CFF90021DBF80C0000F80810A7
:10424000DBF80C00FFF7E8F88246DAF80000CBF85C
:104250000800002067E0002260E0DBF8183013441B
:1042600007EB000C4FEAEC0CDFF8F4E0DEF804E0BA
:104270000CFB0E31DBF808301B78802B01DA0123B0
:1042800000E000239BF810C0BCF1000F02D04FF0FB
:10429000010C01E04FF0000C83EA0C03DBB13B188A
:1042A0004FEAE37C03EB5C7C4FEAEC0CA3EBCC0E17
:1042B0004FF0010C0CFA0EFCDFF8A4E0DEF800E091
:1042C0001EF801E04CEA0E0CDFF894E0DEF800E0A6
:1042D0000EF801C01CE03B184FEAE37C03EB5C7C6A
:1042E0004FEAEC0CA3EBCC0E4FF0010C0CFA0EFCD9
:1042F000DFF86CE0DEF800E01EF801E02EEA0C0EBC
:10430000DFF85CC0DCF800C000E014E00CF801E06D
:10431000521CDBF80810491CCBF80810DAF808101A
:1043200091429AD8401CDAF80410814202D9A1695E
:10433000814290D800BF701C46B295F90200074434
:1043400095F90200814495F90600B04204DD94F924
:104350001C00B0423FF724AFDD4607B0BDE8F08F48
:104360002C0000202DE900482DE9FC17EB460446FF
:10437000A56A95F90400FFF72FFA21686069FFF735
:104380006DF907464FF0000A002F74DD07F10B00AE
:1043900020F00700ADEB000DEA463A465046216892
:1043A000FCF718F900200AF807005046FFF734F828
:1043B00006466069B168401AE16801EB60007F2839
:1043C00001D37F200FE06069B168401AE16801EB1A
:1043D0006000002801DC002005E06069B168401A37
:1043E000E16801EB6000CBF8040095F9030095F952
:1043F0000410411A206900EB61003F2801D33F20DF
:1044000013E095F9030095F90410411A206900EBB7
:104410006100002801DC002007E095F9030095F910
:104420000410411A206900EB610080462079CBF826
:104430000000D6F80090002063E000225DE0DBF889
:104440000430134408EB000C4FEAEC0CDFF8CCE02E
:10445000DEF804E00CFB0E3199F80030802B01DA15
:10446000012300E000239BF800C0BCF1000F03D043
:104470004FF0010C02E04BE04FF0000C83EA0C031C
:10448000E3B108EB00034FEAE37C03EB5C7C4FEA0B
:10449000EC0CA3EBCC0E4FF0010C0CFA0EFCDFF889
:1044A0007CE0DEF800E01EF801E04CEA0E0CDFF8DC
:1044B0006CE0DEF800E00EF801C01BE008EB000342
:1044C0004FEAE37C03EB5C7C4FEAEC0CA3EBCC0EF5
:1044D0004FF0010C0CFA0EFCDFF840E0DEF800E0D3
:1044E0001EF801E02EEA0C0EDFF830C0DCF800C048
:1044F0000CF801E0521C09F10109B16891429ED803
:10450000401C7168814202D9A169814295D800BFDF
:10451000DD46BDE8FC17BDE8008800002C00002047
:104520002DE9F04F87B0EA460546AC6A94F90500DC
:10453000FFF752F994F9020094F90510401AE9685E
:1045400001EB60007F2801D37F2013E094F9020083
:1045500094F90510401AE96801EB6000002801DCBD
:10456000002007E094F9020094F90510401AE96868
:1045700001EB6000CAF8180094F903102869084498
:1045800094F9021094F90420891A00EB61003F2885
:1045900001D33F2019E094F903102869084494F9E5
:1045A000021094F90420891A00EB6100002801DC54
:1045B00000200AE094F903102869084494F90210D5
:1045C00094F90420891A00EB61000646E868401C53
:1045D0007F2801D37F2007E0E868401C002801DC29
:1045E000002001E0E868401CCAF8140094F90310A8
:1045F000286908443F2801D33F200BE094F90310B9
:1046000028690844002801DC002003E094F9031025
:10461000286908440746E879CAF8100094F90100AF
:10462000401C94F9061088427ED195F91C0094F93B
:104630000610401A94F90010884276DD2078401C5C
:1046400040B220704FF00008D7E094F900304344A6
:104650002A6A52F823106869FFF700F881460020A3
:10466000CAF80C0094F90600401E40450AD1E879CA
:1046700008B9FF2000E00020CAF81000287AFFF7F0
:1046800029FB05E0E879CAF81000A879FFF722FBBA
:104690000220FE4982B0CDE90010E968686908444B
:1046A000821E94F90200C3193946DAF81400FFF7A4
:1046B00069F902B0B9F1000F7DDD09F10B0020F0BE
:1046C0000700ADEB000DCAF80CD094F9002042446D
:1046D000286A50F822104A46DAF80C00FBF77AFFF5
:1046E0000021DAF80C0000F80910DAF80C00FEF7E7
:1046F00093FE8346DBF80000CAF8080000206AE059
:10470000002263E0DAF81830134406EB000C4FEA9D
:10471000EC0CDFF878E3DEF804E00CFB0E31DAF89D
:1047200008301B78802B01E074E072E001DA01238D
:1047300000E000239AF810C0BCF1000F02D04FF047
:10474000010C01E04FF0000C83EA0C03DBB13318DD
:104750004FEAE37C03EB5C7C4FEAEC0CA3EBCC0E62
:104760004FF0010C0CFA0EFCDFF820E3DEF800E05D
:104770001EF801E04CEA0E0CDFF810E3DEF800E072
:104780000EF801C01CE033184FEAE37C03EB5C7CBD
:104790004FEAEC0CA3EBCC0E4FF0010C0CFA0EFC24
:1047A000DFF8E8E2DEF800E01EF801E02EEA0C0E89
:1047B000DFF8D8C200E016E0DCF800C00CF801E039
:1047C000521CDAF80810491CCAF80810DBF8081067
:1047D000914297D8401CDBF80410814202D9A969A4
:1047E00081428DD800BF08F101004FFA80F894F99A
:1047F0000200064494F90200074494F9060040457B
:1048000007DD94F90000404495F91C108842FFF63A
:104810001CAFAFE194F90100401C95F91C108842CF
:1048200072D06078401C40B2607094F9002094F916
:1048300001301A44521E2B6A53F822106869FEF7A1
:104840000DFF80464FF00009E879CAF81000A879FA
:10485000FFF740FA94F90100401E94F9021000FBA2
:10486000017794F90100401E94F9021000FB0166E3
:104870000220864982B0CDE90010E96868690844E1
:10488000821E94F90200C3193946DAF81400FFF7C2
:1048900079F802B0B8F1000F7EDD08F10B0020F0CE
:1048A0000700ADEB000DE94694F9000094F90120F2
:1048B0001044401E2A6A52F8201042464846FBF730
:1048C00089FE002009F808004846FEF7A5FD83464A
:1048D000DBF80000CAF80C00002068E0002261E06C
:1048E000DAF81830134406EB000C4FEAEC0CDFF852
:1048F0009CE1DEF804E00CFB0E31DAF80C301B789A
:10490000802B02DA012301E020E100239AF810C095
:10491000BCF1000F02D04FF0010C01E04FF0000C91
:1049200083EA0C03DBB133184FEAE37C03EB5C7CD6
:104930004FEAEC0CA3EBCC0E4FF0010C0CFA0EFC82
:10494000DFF848E1DEF800E01EF801E04CEA0E0C6A
:10495000DFF838E1DEF800E00EF801C01AE03318A5
:104960004FEAE37C03EB5C7C4FEAEC0CA3EBCC0E50
:104970004FF0010C0CFA0EFCDFF810E1DEF800E05D
:104980001EF801E02EEA0C0EDFF800C1DCF800C0D2
:104990000CF801E0521C00E011E0DAF80C10491CA0
:1049A000CAF80C10DBF80810914299D8401CDBF8CB
:1049B0000410814202D9A96981428FD800BF94F9BD
:1049C000002094F901301A442B6A53F822106869C8
:1049D000FEF744FE80464FF00009E87908B9FF2051
:1049E00000E00020CAF81000287AFFF773F994F964
:1049F0000200074494F9020006440220234982B0D1
:104A0000CDE90010E96868690844821E94F9020043
:104A1000C3193946DAF81400FEF7B4FF02B0B8F152
:104A2000000F7CDD08F10B0020F00700ADEB000D5E
:104A3000E94694F9000094F9012010442A6A52F8DA
:104A4000201042464846FBF7C5FD002009F8080043
:104A50004846FEF7E1FC8346DBF80000CAF80C008C
:104A600000206AE0002263E0DAF81830134406EB15
:104A7000000C4FEAEC0CDFF814E0DEF804E00CFB6D
:104A80000E31DAF80C301B78802B01E02C0000206E
:104A900001DA012300E000239AF810C0BCF1000FF6
:104AA00002D04FF0010C01E04FF0000C83EA0C0340
:104AB000DBB133184FEAE37C03EB5C7C4FEAEC0C90
:104AC000A3EBCC0E4FF0010C0CFA0EFCDFF8ACE0BF
:104AD000DEF800E01EF801E04CEA0E0CDFF89CE086
:104AE000DEF800E00EF801C01CE033184FEAE37C6A
:104AF00003EB5C7C4FEAEC0CA3EBCC0E4FF0010C0B
:104B00000CFA0EFCDFF874E0DEF800E01EF801E0BD
:104B10002EEA0C0EDFF864C0DCF800C000E014E000
:104B20000CF801E0521CDAF80C10491CCAF80C1001
:104B3000DBF80810914297D8401CDBF80410814242
:104B400002D9A96981428DD800BF13E095F91C00F4
:104B500094F90610884200DA04E04FF4EA7108A0E4
:104B600000F0B0FB207800B904E040F2D51104A0B9
:104B700000F0A8FBD54607B0BDE8F08F2C00002060
:104B80002E2E5C2E2E5C636F72655C476C75636FB6
:104B90006F5C6D656E755C474C555F6D656E752E0F
:104BA000630000002DE9F04F87B0EA460546AC6A85
:104BB00094F90500FEF710FE94F9020094F905102F
:104BC000401AE96801EB60007F2801D37F2013E0E1
:104BD00094F9020094F90510401AE96801EB6000AD
:104BE000002801DC002007E094F9020094F9051088
:104BF000401AE96801EB6000CAF8180094F9031044
:104C00002869084494F9021094F90420891A00EBE9
:104C100061003F2801D33F2019E094F9031028696F
:104C2000084494F9021094F90420891A00EB6100F9
:104C3000002801DC00200AE094F9031028690844E8
:104C400094F9021094F90420891A00EB61000646D9
:104C5000E868401C7F2801D37F2007E0E868401CFB
:104C6000002801DC002001E0E868401CCAF81400BC
:104C700094F90310286908443F2801D33F200BE032
:104C800094F9031028690844002801DC002003E09F
:104C900094F90310286908440746E879CAF8100017
:104CA0006078002879D194F90000002876DD20781A
:104CB000401E40B220704FF00008D4E094F900305C
:104CC00043442A6A52F823106869FEF7C7FC8146FC
:104CD0000020CAF80C00B8F1000F0AD1E87908B931
:104CE000FF2000E00020CAF81000287AFEF7F2FF4B
:104CF00005E0E879CAF81000A879FEF7EBFF02207A
:104D0000FA4982B0CDE90010E96868690844821E5A
:104D100094F90200C3193946DAF81400FEF732FE9E
:104D200002B0B9F1000F7CDD09F10B0020F00700A3
:104D3000ADEB000DCAF80CD094F900204244286A6B
:104D400050F822104A46DAF80C00FBF743FC002129
:104D5000DAF80C0000F80910DAF80C00FEF75CFB3A
:104D60008346DBF80000CAF80800002069E0002252
:104D700062E0DAF81830134406EB000C4FEAEC0C52
:104D8000DFF868E3DEF804E00CFB0E31DAF80830F7
:104D90001B78802B03DA012302E071E06FE000232F
:104DA0009AF810C0BCF1000F02D04FF0010C01E0E6
:104DB0004FF0000C83EA0C03DBB133184FEAE37CBD
:104DC00003EB5C7C4FEAEC0CA3EBCC0E4FF0010C38
:104DD0000CFA0EFCDFF814E3DEF800E01EF801E048
:104DE0004CEA0E0CDFF804E3DEF800E00EF801C038
:104DF0001CE033184FEAE37C03EB5C7C4FEAEC0CDD
:104E0000A3EBCC0E4FF0010C0CFA0EFCDFF8DCE249
:104E1000DEF800E01EF801E02EEA0C0EDFF8CCC24E
:104E200000E016E0DCF800C00CF801E0521CDAF8F3
:104E30000810491CCAF80810DBF80810914298D8ED
:104E4000401CDBF80410814202D9A96981428ED846
:104E500000BF08F101004FFA80F894F902000644FF
:104E600094F90200074494F90600404507DD94F9DF
:104E70000000404495F91C108842FFF61FAF92E1F4
:104E80006078401E40B2607094F9002094F90130BF
:104E90001A44521C2B6A53F822106869FEF7DEFB95
:104EA00080464FF00009E879CAF81000A879FEF7AB
:104EB00011FF94F90100401C94F9021000FB0177E6
:104EC00094F90100401C94F9021000FB01660220D5
:104ED000864982B0CDE90010E96868690844821EFD
:104EE00094F90200C3193946DAF81400FEF74AFDB6
:104EF00002B0B8F1000F7DDD08F10B0020F00700D3
:104F0000ADEB000DE94694F9000094F9012010443E
:104F1000401C2A6A52F8201042464846FBF75AFBCA
:104F2000002009F808004846FEF776FA8346DBF8C9
:104F30000000CAF80C00002067E0002260E0DAF808
:104F40001830134406EB000C4FEAEC0CDFF89CE140
:104F5000DEF804E00CFB0E31DAF80C301B78802B05
:104F600001DA012300E000239AF810C0BCF1000F21
:104F700002D04FF0010C01E04FF0000C83EA0C036B
:104F8000DBB133184FEAE37C03EB5C7C4FEAEC0CBB
:104F9000A3EBCC0E4FF0010C0CFA0EFCDFF84CE149
:104FA000DEF800E01EF801E04CEA0E0CDFF83CE110
:104FB000DEF800E00EF801C01AE033184FEAE37C97
:104FC00003EB5C7C4FEAEC0CA3EBCC0E4FF0010C36
:104FD0000CFA0EFCDFF814E1DEF800E01EF801E048
:104FE0002EEA0C0EDFF804C1DCF800C00CF801E07A
:104FF000521C00E011E0DAF80C10491CCAF80C1041
:10500000DBF8081091429AD8401CDBF8041081426A
:1050100002D9A969814290D800BF94F9002094F97F
:1050200001301A442B6A53F822106869FEF716FB08
:1050300080464FF00009E87908B9FF2000E0002021
:10504000CAF81000287AFEF745FE94F902003F1ACC
:1050500094F90200361A0220244982B0CDE90010EA
:10506000E96868690844821E94F90200C319394648
:10507000DAF81400FEF786FC02B0B8F1000F7DDD0F
:1050800008F10B0020F00700ADEB000DE94694F9A4
:10509000000094F9012010442A6A52F82010424678
:1050A0004846FBF797FA002009F808004846FEF743
:1050B000B3F98346DBF80000CAF80C00002069E071
:1050C000002262E0DAF81830134406EB000C4FEAD5
:1050D000EC0CDFF818E0DEF804E00CFB0E31DAF837
:1050E0000C301B78802B03DA012302E02C00002017
:1050F00000239AF810C0BCF1000F02D04FF0010C51
:1051000001E04FF0000C83EA0C03DBB133184FEAE7
:10511000E37C03EB5C7C4FEAEC0CA3EBCC0E4FF092
:10512000010C0CFA0EFCDFF888E0DEF800E01EF857
:1051300001E04CEA0E0CDFF878E0DEF800E00EF853
:1051400001C01AE033184FEAE37C03EB5C7C4FEAC2
:10515000EC0CA3EBCC0E4FF0010C0CFA0EFCDFF8BC
:1051600050E0DEF800E01EF801E02EEA0C0EDFF859
:1051700040C0DCF800C00CF801E000E012E0521C76
:10518000DAF80C10491CCAF80C10DBF80810914230
:1051900098D8401CDBF80410814202D9A9698142E9
:1051A0008ED800BF00BFD54607B0BDE8F08F000025
:1051B0002C0000202DE9F84F04460D4616469B466C
:1051C0000A9F04B115B90020BDE8F88F002F08DB55
:1051D0000C98002805DB0B98002802DB0D980028AE
:1051E00001DA0020F0E70C98C01B401C00FB06F819
:1051F000A146DDF82CA00CE00BFB0A707043009078
:105200000098291842464846FBF7E2F8C1440AF1E3
:10521000010A0D988245EFD92046D5E770B50446BE
:105220000D4600BF4FF400311C48FDF74FF8002831
:10523000F8D101211948FCF7BDFF00BF18491748F4
:10524000FCF78AFE0028F9D0002278211348FDF7E8
:10525000CBF900BF13491148FCF77EFE0028F9D0B6
:1052600021460E48FDF704FA00BF0E49891C0B4881
:10527000FCF772FE0028F8D029460848FDF7F8F937
:1052800000BF0849891C0548FCF766FE0028F8D0D5
:1052900001210248FCF7D4FF70BD00000058004017
:1052A000010003008200070010B5044621460020DB
:1052B000FFF7B4FF10BD10B5044621464020FFF7AC
:1052C000ADFF10BD00BF00BF00BFFEE710B5044634
:1052D0006FF00400FDF7A4FDE11704EB5171C1F379
:1052E000C701074A11701046007800EB4001C1EB7E
:1052F000C0104FF6FF7101EAC0000249088010BDDE
:1053000000000020020000200146114A12884A4392
:105310004FF0E0235A6100229A611A46126942F066
:1053200001021A6100BF4FF0E022106900F0010293
:105330001AB100F48032002AF5D04FF0E022126951
:1053400022F001024FF0E0231A6100229A617047B7
:105350000200002096B04820FFF7B8FFFDF78EFC52
:10536000FDF7BAF9FDF7C4F9FBF746FEFCF796FB2B
:10537000FCF7ECFB2C210BA8FBF705F90A200E909B
:105380000A210F91322111915A2110918DF8480074
:1053900027A00B90FF208DF830000A208DF85100D7
:1053A00000208DF83200FF208DF834008DF8330096
:1053B000282101A8FBF7E7F81FA0019020A0029088
:1053C00021A0039022A0049023A0059024A0069081
:1053D00025A0079026A0089027A0099028A00A9051
:1053E00001A813900BA8FCF781FC05460121284673
:1053F000FCF7B8FC2846FCF7F3FCFCF7D1FB16E001
:10540000002421484088B0F57A6F01DD641E07E072
:105410001D484088B0F57A7F01DA012400E00024BD
:1054200021462846FCF750FDFCF7BAFB00BFE7E732
:105430005469746C650000006D656E755F30000026
:105440006D656E755F3100006D656E755F320000D1
:105450006D656E755F3300006D656E755F340000BD
:105460006D656E755F3500006D656E755F360000A9
:105470006D656E755F3700006D656E755F38000095
:105480006D656E755F390000180000202DE9F05F32
:1054900005468A4693460AAE96E8C0036C68A07833
:1054A000202800D103E05D2106A0FFF70BFF0020BC
:1054B000306038606078C8F800002078C9F80000D3
:1054C000BDE8F09F2E2E5C2E2E5C636F72655C47EC
:1054D0006C75636F6F5C666F6E745C474C555F668E
:1054E0006F6E742E630000002DE9F04106460D46F4
:1054F000174698467468A5F1200004EBC00404B177
:1055000003E0532109A0FFF7DDFE94F90200A84251
:1055100000D103E0542105A0FFF7D4FE6078386085
:105520000020C8F80000BDE8F08100002E2E5C2E9F
:105530002E5C636F72655C476C75636F6F5C666F42
:105540006E745C474C555F666F6E742E630000008E
:105550002DE9F04104460D4616469846676807B1A6
:1055600003E0422107A0FFF7ADFEB878202800D164
:1055700003E0432103A0FFF7A5FE00202860306070
:10558000BDE8F0812E2E5C2E2E5C636F72655C4749
:105590006C75636F6F5C666F6E745C474C555F66CD
:1055A0006F6E742E630000002DE9F04105460C4635
:1055B00017462646B078202800D103E02E2103A00C
:1055C000FFF780FE6C600020BDE8F0812E2E5C2E7F
:1055D0002E5C636F72655C476C75636F6F5C666FA2
:1055E0006E745C474C555F666F6E742E63000000EE
:1055F0002DE9F05F80460D4691469A46DDF828B0C9
:105600000D9ED8F80440FAF70DFE0068805D00F0AA
:105610003E0018B9712123A0FFF754FEA6F1200027
:1056200004EBC00404B103E078211EA0FFF74AFE9A
:1056300094F90200B04200D103E0792119A0FFF7EC
:1056400041FE2078504500D103E07A2115A0FFF7F4
:1056500039FE6078484500D103E07B2111A0FFF7B7
:1056600031FE6768002218E0002110E0002009E008
:105670003B5C0B4103F001030BB9002300E0FF2367
:105680002B54401C63788342F2DC5D44491C08299A
:10569000ECDB6078074408325D4420789042E3DC1C
:1056A000BDE8F09F2E2E5C2E2E5C636F72655C470A
:1056B0006C75636F6F5C666F6E745C474C555F66AC
:1056C0006F6E742E6300000070B504460E46656868
:1056D00005B103E0382107A0FFF7F4FDA8782028E2
:1056E00000D103E0392103A0FFF7ECFD4FF07E501D
:1056F00070BD00002E2E5C2E2E5C636F72655C47C1
:105700006C75636F6F5C666F6E745C474C555F665B
:105710006F6E742E6300000070B5054600F0C2F98C
:1057200004460146284600F0EDF915F0004F4FF011
:105730007F410ED0B0F13F4F28BFB1EB400F0ED2EA
:10574000B0F17C5F1DDDB1EB400F1AD313E00446CE
:1057500017E0B0F13F4F08D9B1EB400F05D34FF040
:105760007E51204600F0CEF9F1E7B0F17C5F08DB16
:10577000B1EB400F05D34FF07E51204600F01CF8EE
:10578000E5E7284664F31E0070BD000010B500294F
:105790000AD00878002807D005487844FAF7C4FFF3
:1057A000002801D0002010BD0248784410BD000040
:1057B000EE090000E609000090EA010F48BF81F001
:1057C000004100F1A681421A3CBF801A89184FEAB5
:1057D000D0524FF07F4C1CEA410FA2EBD15318BFBF
:1057E0009CEA026F00F03B804FF0004C4CEA002036
:1057F0004CEA012121FA03FC10EB0C0C1ED202F141
:10580000FF325FEA1C2040EBC25038BF70471CF0EB
:105810007F0F4FEA400C18BFBCF17F4F38BF704775
:10582000C3F12003994008BF20F00100BCF17F4F75
:1058300038BF7047A0F1C04000F02FB94FEA3C00DC
:10584000000A40EBC25028BF1CF0FF0F4FEA400C8B
:10585000E6D018BFBCF17F4F38BF7047EAE79CEA3B
:10586000026F05D010EA5C0F08BF00F000407047DF
:1058700010B500F0CCF800BF64FBBE3E41000B0E3B
:10588000D3F19E0208D950F400034FEA032323FA10
:1058900002F048BF4042704710B500F0B8F800BFB2
:1058A00049922480002070476FF0004282EA200075
:1058B0007047000010F0004148BF4042B0FA80F34A
:1058C00010FA03F2C3F19D030BD051EAC35101EB6F
:1058D0001220530638BF704700F1010008BF20F0C6
:1058E00001007047B0FA80F310FA03F2C3F19D0390
:1058F0000AD0D90501EB1220530638BF704700F1DA
:10590000010008BF20F00100704700004FF47F0C39
:105910001CEAD0121EBF1CEAD11392EA0C0F93EAC4
:105920000C0F00F0478090EA010F48BF42F48072EC
:105930004FF0004C4CEA00204CEA012102EB03023C
:10594000A0FB0113A2F50002002918BF43F00103D8
:105950005B0028BF4FEA330342EB22425FEA132C7D
:105960004CEBC2502EBFBCEB436FB2F57C0F7047BF
:105970004FEA036CBCF1004F08BF20F00100B2F504
:105980007C0F38BF70470BD582F0FF0212F5803FC5
:10599000C8BF704700F1C040D8BF00F0004070475A
:1059A00000F5000C5FEA4C0C48BF7047B0F1C040F6
:1059B00000F073B890EA010F0CEAD11348BF42F42B
:1059C0008072624538BF634504D280EA010000F06E
:1059D0000040704710B500F01AF800BF8900013E82
:1059E00000F007B800F009B85FEA410C5FEA1C6CF0
:1059F00008D080EA010000F050B85FEA400C5FEA8E
:105A00001C6CF6D14FF00040A0F5800070470EF1FD
:105A1000020E2EF0030E5EF8044B244204D44FEA2B
:105A20004102B2F17F4F11D84FEA4003B3F17F4FEB
:105A30000CD80ED14FEAD07CB2F17F4F0CEB4C0C5E
:105A40000CF1020C08BF4CEBD17C04E04FF0080CC9
:105A500001E04FEAD17C0CEB4C0324FA03F404F090
:105A60000704B4F1040C06D20EEB840CBDE8104020
:105A70004CF0010C6047DFE80CF0070802024FF021
:105A80000040A0F5800010BD0846420018BFD2F1CA
:105A9000807288BF00F0004010BDFF2141EAD05065
:105AA000C00570475FEA400C5FEA1C6CBCF17F03E5
:105AB00014D4D3F1170240F31C804FF0010C0CFA00
:105AC00002FCACF101030340B3EB5C0220EA0300EB
:105AD00008BF10EA0C0F88BF60447047B3F1FF3F66
