:020000040800F2
:10000000901A0020E501000839260008911E00081A
:100010003526000801100008352E000800000000F9
:10002000000000000000000000000000732C000829
:100030009D1400080000000091270008D12D000841
:10004000FF010008FF010008FF010008FF01000890
:10005000FF010008FF010008FF010008FF01000880
:10006000FF010008FF010008FF010008FF01000870
:10007000FF010008FF010008FF010008FF01000860
:10008000FF010008FF010008FF010008FF01000850
:10009000FF010008FF010008FF0100089F1400088D
:1000A000FF010008FF010008FF010008FF01000830
:1000B000FF010008FF010008FF010008FF01000820
:1000C000FF010008FF010008FF010008FF01000810
:1000D000FF010008FF010008FF010008FF01000800
:1000E000FF010008FF010008FF010008FF010008F0
:1000F000FF010008FF010008FF010008FF010008E0
:10010000FF010008FF010008FF010008FF010008CF
:10011000FF010008FF010008FF010008FF010008BF
:10012000FF010008FF010008FF010008FF010008AF
:1001300000F002F800F047F80AA090E8000C8244B2
:100140008344AAF10107DA4501D100F03CF8AFF28F
:10015000090EBAE80F0013F0010F18BFFB1A43F0A5
:1001600001031847945E0000B45E0000103A24BFFB
:1001700078C878C1FAD8520724BF30C830C144BF0C
:1001800004680C607047000000230024002500264E
:10019000103A28BF78C1FBD8520728BF30C148BFEA
:1001A0000B6070471FB59DE8030000F061FA00F096
:1001B00043FA04000020002105F00CFA401C6060A6
:1001C0001FBD10B510BD00F0EFFA1146FFF7EAFFB2
:1001D00004F0F8FF00F00DFB03B4FFF7F2FF03BCDF
:1001E00000F03EFB0948804709480047FEE7FEE76C
:1001F000FEE7FEE7FEE7FEE7FEE7FEE7FEE7FEE7D7
:1002000004480549054A064B70470000D52D0008F3
:100210003101000890060020901A0020901600205E
:100220009016002010B500F007FA001D10BD00BFA9
:10023000A553000070B5A0FB0140B4F1805170F1EE
:10024000000024BF002070BD204600F007F8050024
:100250001CBF214600F075F9284670BD70B50646F2
:1002600000F0E6F9056806F10B0020F00704B4423F
:100270009CBF002070BD2B466A68BAB11068A042CE
:1002800010D304F1080188423CBF5068586007D37E
:100290005168101941601168091B016058601460B1
:1002A000101D70BD13465268002AE7D1214628462A
:1002B00000F0CAF90028DED170BD70B50446051FF4
:1002C00000F0B6F90068002C14BF446870BD002C23
:1002D00018BFAC423CBF20466468F8D301680A18D6
:1002E000AA4218BF456003D12A680546114401603F
:1002F00028684119A1421CBF6C6070BD61686960CB
:1003000021680844286070BD10B5431C02E010F855
:10031000011B71B18107FAD14FF0013202C88C1A6A
:100320008C4314EAC211F9D0C01A0A0603D0C01EC9
:1003300010BDC01A10BD0A0401D0801E10BD0902F4
:10034000FCD0401E10BD032A40F2308010F0030C98
:1003500000F0158011F8013BBCF1020F624498BF18
:1003600011F801CB00F8013B38BF11F8013BA2F1B5
:10037000040298BF00F801CB38BF00F8013B11F030
:10038000030300F06780083AC0F0088051F8043B8E
:10039000083A51F804CBA0E80810F5E7121D5CBF3D
:1003A00051F8043B40F8043BAFF30080D20724BF70
:1003B00011F8013B11F801CB48BF11F8012B24BF04
:1003C00000F8013B00F801CB48BF00F8012B704753
:1003D000431A28BF9A427FF6B6AF032A104411444D
:1003E00040F2268010F0030F1EBF11F8013D521E8F
:1003F00000F8013D10F0030F7FF4F6AF11F0030396
:1004000000F06D80083AC0F00B8051F8043D083AC6
:1004100051F804CD40F8043D40F804CDFFF7F3BF98
:10042000121D5CBF51F8043D40F8043DAFF300805D
:10043000D20724BF11F8013D11F801CD48BF11F8D2
:10044000012C24BF00F8013D00F801CD48BF00F8A1
:10045000012C704710B5203AC0F00B80B1E818505D
:10046000203AA0E81850B1E81850A0E81850BFF49E
:10047000F5AF5FEA027C24BFB1E81850A0E818503D
:1004800044BF18C918C0BDE810405FEA827C24BF91
:1004900051F8043B40F8043B08BF7047D20728BF1F
:1004A00031F8023B48BF11F8012B28BF20F8023B6E
:1004B00048BF00F8012B7047431A28BF9A427FF6C5
:1004C000C9AF104410F0030F11441EBF11F8013DD5
:1004D000521E00F8013D10F0030F7FF4F6AF103A02
:1004E000C0F00A8010B531E91850103A20E91850D0
:1004F000BFF4F9AFBDE81040530724BF31E908103D
:1005000020E9081044BF51F8043D40F8043D12F0C2
:10051000030F08BF7047D20728BF31F8023D48BF1C
:1005200011F8012C28BF20F8023D48BF00F8012C2B
:10053000704702F0FF0343EA032242EA024200F05E
:1005400002B84FF000020429C0F0128010F0030C32
:1005500000F01B80CCF1040CBCF1020F18BF00F8B6
:10056000012BA8BF20F8022BA1EB0C0100F00DB865
:100570005FEAC17C24BF00F8012B00F8012B48BFC3
:1005800000F8012B70474FF0000200B51346944667
:100590009646203922BFA0E80C50A0E80C50B1F1DB
:1005A0002001BFF4F7AF090728BFA0E80C5048BFEF
:1005B0000CC05DF804EB890028BF40F8042B08BF8D
:1005C000704748BF20F8022B11F0804F18BF00F889
:1005D000012B704710B5044610F0030F08BF11F04F
:1005E000030F40F015804FF0013E121FC0F20E8045
:1005F00051F8043BA3EB0E0C2CEA030C1CEACE1CB6
:1006000008BF40F8043BF0D0A1F1040102F104025C
:10061000521E08DB11F8013B002B00F8013BF7D11B
:100620001146FFF78EFF204610BD70477047704798
:1006300000487047380600200048704750060020E8
:10064000704770477047704738B504460A46002027
:100650006946AFF30080002808BF38BD0246009904
:10066000204600F040F8012038BD012000F055B8C8
:10067000F8B5AFF30080054600200C46102000BFFF
:100680000646A819A0420DD9324669460020AFF3AC
:100690000080070008BF00F040F80098A04218BF93
:1006A0000546C419FFF7C4FF05600746F01D20F09A
:1006B00007004619284600F00AF8B44208BFF8BD02
:1006C000A21B31463868BDE8F84000F00CB80021A4
:1006D0000160C0E901107047102070470048704762
:1006E000300600207047034640688C46002818BF3B
:1006F00088423CBF03464068F8D3186818448842D3
:1007000007D00CF1030020F00700001D411A521A17
:100710000146081D0A60FFF7D0BD10B500F078F85B
:10072000BDE8104000F06EB84FF0013C50F8042BCB
:1007300051F8043B9A4221D1A2EB0C03934313EAF4
:10074000CC1317D150F8042B51F8043B9A4215D121
:10075000A2EB0C03934313EACC130BD150F8042BF8
:1007600051F8043B9A4209D1A2EB0C03934313EADC
:10077000CC13DBD04FF00000704700BFD01A01BA95
:10078000B1FA81F101F0180122FA01F0CB40C1F178
:100790002001DBB2C0B2C01A2CFA01F3D11A914386
:1007A00011EAC311E6D170477546FFF797FFAE46D1
:1007B00005006946534620F00700854618B020B56D
:1007C000FFF71EFDBDE820404FF000064FF0000788
:1007D0004FF000084FF0000B21F00701AC46ACE8E9
:1007E000C009ACE8C009ACE8C009ACE8C0098D4656
:1007F000704710B50446AFF300802046BDE81040B6
:10080000FFF7EABC002801D000F02AB870470000CA
:1008100010B5012805D0002103A000F027F8012021
:1008200010BD09A1F8E7000053494752544D454D0A
:100830003A204F7574206F662068656170206D6581
:100840006D6F7279000000003A2048656170206D7C
:10085000656D6F727920636F727275707465640074
:1008600001491820ABBEFEE72600020070B5054620
:100870000C460A2000E06D1C00F011F835B1287814
:100880000028F8D102E0641C00F009F814B12078C7
:100890000028F8D1BDE870400A20AFF3008008B509
:1008A00069468DF800000320ABBE08BD70B5044654
:1008B0000D461148844205D01048844202D01048A9
:1008C000844200D104E040F22D110EA004F032FC6D
:1008D0000DB1012D00D104E04FF4977109A004F08F
:1008E00029FC25B1A06840F00100A06003E0A068E9
:1008F00020F00100A06070BD0024014000280140EC
:10090000003C01402E2E5C4C696272617269657315
:100910005C53544D3332463130785F5374645065C4
:10092000726970685F4472697665725C7372635C49
:1009300073746D3332663130785F6164632E6300A7
:1009400070B504460D461048844202D00F488442D8
:1009500000D104E04FF4A3710DA004F0EBFB0DB146
:10096000012D00D104E040F2471109A004F0E2FBA0
:1009700025B1A06840F48070A06003E0A06820F476
:100980008070A06070BD000000240140003C014068
:100990002E2E5C4C69627261726965735C53544DB2
:1009A0003332463130785F537464506572697068D1
:1009B0005F4472697665725C7372635C73746D33E5
:1009C00032663130785F6164632E630070B504462F
:1009D00000250C48844205D00B48844202D00B48C5
:1009E000844200D104E040F2B11109A004F0A2FB5E
:1009F000A06800F0040008B1012500E000252846A9
:100A000070BD00000024014000280140003C01406E
:100A10002E2E5C4C69627261726965735C53544D31
:100A20003332463130785F53746450657269706850
:100A30005F4472697665725C7372635C73746D3364
:100A400032663130785F6164632E630070B50446AE
:100A500000250C48844205D00B48844202D00B4844
:100A6000844200D104E040F28B1109A004F062FB43
:100A7000A06800F0080008B1012500E00025284624
:100A800070BD00000024014000280140003C0140EE
:100A90002E2E5C4C69627261726965735C53544DB1
:100AA0003332463130785F537464506572697068D0
:100AB0005F4472697665725C7372635C73746D33E4
:100AC00032663130785F6164632E63002DE9F04156
:100AD00005460C46002600275D48854205D05D4846
:100AE000854202D05C48854200D103E0DE215BA054
:100AF00004F020FB206818B32068B0F5803F1FD0B9
:100B00002068B0F5003F1BD02068B0F5403F17D0FB
:100B10002068B0F5802F13D02068B0F5A02F0FD03B
:100B20002068B0F5C02F0BD02068B0F5E02F07D0BB
:100B30002068B0F5002F03D02068B0F5102F00D149
:100B400003E0DF2145A004F0F5FA207910B1207907
:100B5000012800D103E0E02140A004F0EBFA607925
:100B600010B16079012800D103E0E1213BA004F03D
:100B7000E1FAA06888B3A068B0F5003F2DD0A06866
:100B8000B0F5802F29D0A068B0F5C02F25D0A0687F
:100B9000B0F5002F21D0A068B0F5202F1DD0A0689F
:100BA000B0F5402F19D0A068B0F5602F15D0A0681F
:100BB00098B1A068B0F5003F0FD0A068B0F5C02F85
:100BC0000BD0A068B0F5002F07D0A068B0F5202F9B
:100BD00003D0A068B0F5402F00D103E0E2211FA0B0
:100BE00004F0A8FAE06818B1E068B0F5006F00D131
:100BF00003E0E32119A004F09DFA207C012803DB27
:100C0000207C102800DC03E0E42114A004F092FA18
:100C10006E68214806402179206840EA0120064399
:100C20006E60AE681D480640D4E902100843617941
:100C300040EA41000643AE60EE6A26F47006207C6E
:100C4000401EC0B2074346EA0756EE62BDE8F08197
:100C50000024014000280140003C01402E2E5C4C45
:100C600069627261726965735C53544D3332463107
:100C700030785F5374645065726970685F4472695C
:100C80007665725C7372635C73746D333266313097
:100C9000785F6164632E6300FFFEF0FFFDF7F1FFF4
:100CA0002DE9F04706460C46174698460025A9460A
:100CB0006048864205D06048864202D05F4886423E
:100CC00000D104E040F251215DA004F033FA0CB3EE
:100CD000012C1FD0022C1DD0032C1BD0042C19D0AA
:100CE000052C17D0062C15D0072C13D0082C11D0AA
:100CF000092C0FD00A2C0DD00B2C0BD00C2C09D0AA
:100D00000D2C07D00E2C05D00F2C03D0102C01D0A9
:100D1000112C00D104E040F2522149A004F00AFA5B
:100D2000012F02DB102F00DC04E040F2532144A02D
:100D300004F000FAB8F1000F14D0B8F1010F11D08F
:100D4000B8F1020F0ED0B8F1030F0BD0B8F1040FB9
:100D500008D0B8F1050F05D0B8F1060F02D0B8F1F0
:100D6000070F00D104E04FF4157135A004F0E2F94B
:100D7000092C13DDF568A4F10A0000EB40010720FF
:100D800000FA01F925EA0905A4F10A0000EB400088
:100D900008FA00F945EA0905F5600EE0356904EB4B
:100DA0004401072000FA01F925EA090504EB440093
:100DB00008FA00F945EA09053561072F11DA756B64
:100DC000781E00EB80011F2000FA01F925EA0905D1
:100DD000781E00EB800004FA00F945EA0905756306
:100DE00026E00D2F11DA356BF81F00EB80011F2074
:100DF00000FA01F925EA0905F81F00EB800004FA62
:100E000000F945EA0905356312E0F56AA7F10D001E
:100E100000EB80011F2000FA01F925EA0905A7F17E
:100E20000D0000EB800004FA00F945EA0905F562BF
:100E3000BDE8F0870024014000280140003C01404B
:100E40002E2E5C4C69627261726965735C53544DFD
:100E50003332463130785F5374645065726970681C
:100E60005F4472697665725C7372635C73746D3330
:100E700032663130785F6164632E630010B50446DA
:100E80000948844205D00948844202D00848844277
:100E900000D104E040F27D1106A004F04BF9A068F7
:100EA00040F00800A06010BD00240140002801406F
:100EB000003C01402E2E5C4C696272617269657360
:100EC0005C53544D3332463130785F53746450650F
:100ED000726970685F4472697665725C7372635C94
:100EE00073746D3332663130785F6164632E6300F2
:100EF00070B504460D461148844205D0104884421E
:100F000002D01048844200D104E040F2CB110EA080
:100F100004F010F90DB1012D00D104E04FF4E67199
:100F200009A004F007F925B1A06840F4A000A06072
:100F300003E0A06820F4A000A06070BD0024014080
:100F400000280140003C01402E2E5C4C6962726119
:100F5000726965735C53544D3332463130785F5358
:100F600074645065726970685F4472697665725C1A
:100F70007372635C73746D3332663130785F6164B1
:100F8000632E630010B504460948844205D0094821
:100F9000844202D00848844200D104E040F2A31108
:100FA00006A004F0C7F8A06840F00400A06010BDDF
:100FB0000024014000280140003C01402E2E5C4CE2
:100FC00069627261726965735C53544D33324631A4
:100FD00030785F5374645065726970685F447269F9
:100FE0007665725C7372635C73746D333266313034
:100FF000785F6164632E630010B502F08DFF10BD51
:1010000000BFFEE770B504460D46244884422AD04E
:1010100022481430844226D020482830844222D0EE
:101020001E483C3084421ED01C48503084421AD0A6
:101030001A486430844216D018487830844212D05E
:10104000174884420FD01648143084420BD01448FD
:101050002830844207D012483C30844203D01048E4
:101060005030844200D104E04FF494710DA004F09C
:1010700061F80DB1012D00D104E040F2291109A061
:1010800004F058F825B1206840F00100206004E029
:1010900020684FF6FE710840206070BD08000240D5
:1010A000080402402E2E5C4C69627261726965739D
:1010B0005C53544D3332463130785F53746450651D
:1010C000726970685F4472697665725C7372635CA2
:1010D00073746D3332663130785F646D612E6300F6
:1010E00010B504466A4884422AD0694814308442C4
:1010F00026D067482830844222D065483C3084425C
:101100001ED06348503084421AD061486430844213
:1011100016D05F487830844212D05E4884420FD0A7
:101120005C48143084420BD05A482830844207D09F
:1011300058483C30844203D056485030844200D155
:1011400003E06E2154A003F0F5FF20684FF6FE7116
:1011500008402060002020606060A060E0604C4893
:10116000844208D14A480838406840F00F00484996
:10117000083948608AE046481430844208D144481F
:101180000838406840F0F0004149083948607DE087
:101190003F482830844208D13D480838406840F430
:1011A00070603B490839486070E039483C308442FF
:1011B00008D137480838406840F47040344908394D
:1011C000486063E032485030844208D130480838E3
:1011D000406840F470202E490839486056E02C4899
:1011E0006430844208D12A480838406840F47000CE
:1011F00027490839486049E025487830844208D1B9
:1012000023480838406840F0706021490839486038
:101210003CE02048844206D1001F006840F00F00E7
:10122000211F086032E01B481430844208D119485D
:10123000001F006840F0F0001649091F086025E013
:1012400014482830844208D11248001F006840F436
:1012500070601049091F086018E00E483C30844255
:1012600008D10C48001F006840F470400949091F6C
:1012700008600BE007485030844207D10548001F42
:10128000006840F470200349091F086010BD000089
:1012900008000240080402402E2E5C4C6962726114
:1012A000726965735C53544D3332463130785F5305
:1012B00074645065726970685F4472697665725CC7
:1012C0007372635C73746D3332663130785F646D52
:1012D000612E630070B505460C4600265E488542C7
:1012E0002AD05D481430854226D05B48283085429C
:1012F00022D059483C3085421ED057485030854254
:101300001AD055486430854216D05348783085420B
:1013100012D0524885420FD05048143085420BD02D
:101320004E482830854207D04C483C30854203D097
:101330004A485030854200D103E0CE2148A003F056
:10134000F9FEA068102801D0A06800B903E0CF2101
:1013500043A003F0EFFEE06820B1E068B0F5803F05
:1013600000D203E0D0213EA003F0E4FE2069402833
:1013700001D0206900B903E0D12139A003F0DAFEE1
:101380006069802801D0606900B903E0D22134A0EF
:1013900003F0D0FEA06938B1A069B0F5807F03D01A
:1013A000A069B0F5007F00D103E0D3212CA003F0A9
:1013B000C1FEE06938B1E069B0F5806F03D0E06943
:1013C000B0F5006F00D103E0D42125A003F0B2FEF8
:1013D000206A202801D0206A00B903E0D52120A08E
:1013E00003F0A8FE606AB0F5405F09D0606AB0F50E
:1013F000005F05D0606AB0F5805F01D0606A00B917
:1014000003E0D62116A003F095FEA06AB0F5804F48
:1014100001D0A06A00B903E0D72111A003F08AFE31
:101420002E6847F6F0708643216AA0680843216958
:10143000084361690843A1690843E1690843616A97
:101440000843A16A084306432E60E068686020688C
:10145000A8606068E86070BD0800024008040240AF
:101460002E2E5C4C69627261726965735C53544DD7
:101470003332463130785F537464506572697068F6
:101480005F4472697665725C7372635C73746D330A
:1014900032663130785F646D612E6300704710B53D
:1014A000802000F037F8962003F066FE802000F0E0
:1014B00001F810BD10B50446200D000508B904B1AF
:1014C00003E0FB2102A003F035FE1148046010BDCB
:1014D0002E2E5C4C69627261726965735C53544D67
:1014E0003332463130785F53746450657269706886
:1014F0005F4472697665725C7372635C73746D339A
:1015000032663130785F657874692E6300000000C0
:101510001404014070B5044600250026012C31D08A
:10152000022C2FD0042C2DD0082C2BD0102C29D0FD
:10153000202C27D0402C25D0802C23D0B4F5807FC0
:1015400020D0B4F5007F1DD0B4F5806F1AD0B4F56B
:10155000006F17D0B4F5805F14D0B4F5005F11D0E0
:10156000B4F5804F0ED0B4F5004F0BD0B4F5803FEA
:1015700008D0B4F5003F05D0B4F5802F02D0B4F503
:10158000002F00D103E0E42108A003F0D3FD1748A9
:10159000006800EA0406154814300068204010B1C5
:1015A0000EB1012500E00025284670BD2E2E5C4CB2
:1015B00069627261726965735C53544D33324631AE
:1015C00030785F5374645065726970685F44726903
:1015D0007665725C7372635C73746D33326631303E
:1015E000785F657874692E63000000000004014094
:1015F00070B504460025207910B12079042800D167
:1016000003E0692135A003F095FD6079082805D035
:1016100060790C2802D06079102800D103E06A219B
:101620002EA003F087FD20686FF3130010B9206827
:1016300000B103E06B2129A003F07CFDA07910B17B
:10164000A079012800D103E06C2124A003F072FDF1
:10165000324DA07990B32846006821688843294616
:101660000860081D006821688843291D08602079EA
:101670000544286821680843286028480830006825
:1016800021688843254908310860081D00682168E1
:10169000884322490C310860607910280FD1081F57
:1016A0000068216808431D4908310860081D00686A
:1016B0002168084319490C3108600EE007E0174D16
:1016C00060790544286821680843286005E020798E
:1016D0000544286821688843286070BD2E2E5C4C24
:1016E00069627261726965735C53544D333246317D
:1016F00030785F5374645065726970685F447269D2
:101700007665725C7372635C73746D33326631300C
:10171000785F657874692E63000000000004014062
:1017200070B505460C4600265DB1012D09D0022D8D
:1017300007D0032D05D0042D03D0052D01D0062D93
:1017400000D104E040F2622121A003F0F3FCECB1EF
:10175000012C1BD0022C19D0032C17D0042C15D02F
:10176000052C13D0062C11D0072C0FD0082C0DD02F
:10177000092C0BD00A2C09D00B2C07D00C2C05D02F
:101780000D2C03D00E2C01D00F2C00D104E040F220
:1017900063210FA003F0CEFCA007010F0F2000FA79
:1017A00001F61B48A11050F82100B0431849A210BF
:1017B00041F822000846A11050F82100A107090FA6
:1017C00005FA01F108431249A21041F8220070BD48
:1017D0002E2E5C4C69627261726965735C53544D64
:1017E0003332463130785F53746450657269706883
:1017F0005F4472697665725C7372635C73746D3397
:1018000032663130785F6770696F2E6300000000C8
:10181000080001402DE9F05F05460C464FF0000935
:10182000CA4600260027B046B3465948854211D023
:10183000584885420ED0584885420BD057488542BB
:1018400008D05748854205D05648854202D05648B0
:10185000854200D103E0B12154A003F06BFCE07895
:10186000A0B1E078042811D0E07828280ED0E078E4
:1018700048280BD0E078142808D0E078102805D04C
:10188000E0781C2802D0E078182800D103E0B221CB
:1018900046A003F04FFC002010B9208800B103E0FF
:1018A000B32142A003F046FCE07800F00F09E07895
:1018B00000F0100080B1A078012805D0A07802289F
:1018C00002D0A078032800D103E0BA2137A003F0AA
:1018D00031FCA07840EA0909207838B3D5F80080B7
:1018E00000261FE0012000FA06F7208800EA070A18
:1018F000BA4516D1B7000F2000FA07FB28EA0B08FB
:1019000009FA07F040EA0808E078282803D1012006
:10191000B040686105E0E078482802D10120B0407D
:101920002861761C082EDDD3C5F800802088FF28AA
:101930002BDDD5F80480002623E006F10800012104
:1019400001FA00F7208800EA070ABA4518D1B70063
:101950000F2000FA07FB28EA0B0809FA07F040EA13
:101960000808E078282803D106F108008140696161
:10197000E078482804D106F108000121814029615E
:10198000761C082ED9D3C5F80480BDE8F09F00006E
:1019900000080140000C014000100140001401400B
:1019A00000180140001C0140002001402E2E5C4C1C
:1019B00069627261726965735C53544D33324631AA
:1019C00030785F5374645065726970685F447269FF
:1019D0007665725C7372635C73746D33326631303A
:1019E000785F6770696F2E630000000070B5044671
:1019F0000D461348844211D0124884420ED012483A
:101A000084420BD01148844208D01148844205D04A
:101A10001048844202D01048844200D104E04FF4C0
:101A2000BC710EA003F086FB002008B905B104E0EC
:101A300040F2791109A003F07DFB656170BD0000E3
:101A400000080140000C014000100140001401405A
:101A500000180140001C0140002001402E2E5C4C6B
:101A600069627261726965735C53544D33324631F9
:101A700030785F5374645065726970685F4472694E
:101A80007665725C7372635C73746D333266313089
:101A9000785F6770696F2E6300000000014802499B
:101AA00008607047992A00081C0000202DE9F047C3
:101AB00005460E46174698461748D0F81100B0F56F
:101AC000005F14D34FF0000908E01349D1F8090072
:101AD00002F0F0F881464846FEF7EFFB0E49D1F8D8
:101AE000090002F0C3F80028EFD0BDE8F08710200D
:101AF000FEF7B4FB044625606660781B401CA060BE
:101B0000A8EB0600401CE0600349D1F8090021461B
:101B100002F000F900BFE8E78804002070474FF4A6
:101B20007A71484300BF011EA0F10100FBD170474C
:101B300010B5029C10BD704710B5114811490860DE
:101B400008460068104908600E4908684FF4806133
:101B5000FEF7F7FC00200B490872486002F064F8B9
:101B60000849C1F809000020C1F80D00C1F81100B2
:101B7000C1F8150001F090FE01F040FD10BD00001D
:101B800088000020880400202C00002010B50024CC
:101B90003F237F220021084600F014F808E008499E
:101BA000D1F8090002F086F804462046FEF785FBCE
:101BB0000349D1F8090002F059F80028EFD010BD10
:101BC000880400202DE9F04F87B00446884615466A
:101BD00099462248006848B3281B00F1010A4FEAE1
:101BE000E8064FEAE907B81B401C0690069A0AFB74
:101BF00002F0FEF733FB05901948CDE90257CDE915
:101C00000046016880230122059803F00AFA834602
:101C10004B462A46414600902046DFF840C0DCF89B
:101C200000C0E0470598FEF748FB14E0464610E088
:101C300027460BE00A480068F11000EBC110C25DB6
:101C400031463846074B1B6898477F1CAF42F1DD91
:101C5000761C4E45ECDD07B0BDE8F08F1C0000207F
:101C6000880400202000002070B504464C20FEF7B8
:101C7000F5FA054605B104E040F6910109A003F02C
:101C800059FA04B104E040F6920106A003F052FABA
:101C90002C2221462846FEF70FFC0020A864284687
:101CA00070BD00002E2E5C2E2E5C636F72655C5240
:101CB000485F6775692E63002DE9FC4105460E46B5
:101CC00005B104E040F6D30110A003F033FA2C462E
:101CD00001F0D2FD01F02EFB8EB102201049CDE9BA
:101CE0000010D4F810C0A76967447B1ED4F80CC05C
:101CF000676967447A1E6046216901F02FFF01F091
:101D000073FF01F0E1FC0020BDE8FC812E2E5C2E6B
:101D10002E5C636F72655C52485F6775692E630065
:101D20002C0000202DE9F04106463446A56A01F05A
:101D3000A3FD01F0FFFA607A01F03CFD35BB0720FE
:101D4000FEF78CFA054605B104E040F6AF0126A087
:101D500003F0F0F9A5620C20A870E870002028704C
:101D600095F90210A069B0FBF1F040B2A87108200B
:101D70002871687195F90310A069401A95F902104D
:101D8000B0FBF1F040B2A87100206870204602F06C
:101D90007FFA204602F01AF901F026FF01F094FCC8
:101DA0001648007A70B1D4F810C0A76967447B1E4A
:101DB000D4F80CC0676967447A1E60462169FFF752
:101DC00001FF0DE0D4F810C0A76967447B1ED4F86A
:101DD0000CC0676967447A1E60462169FFF766FE9A
:101DE0000020BDE8F08100002E2E5C2E2E5C636F7B
:101DF00072655C52485F6775692E63008804002035
:101E00002DE9F04105460E462C46A06A10B9002087
:101E1000BDE8F08101F030FD01F08CFAB6F1FF3F32
:101E200005D016B1012E06D000BF0020F0E72046F5
:101E300002F006FE03E0204602F006FB00BF00BFF2
:101E400001F0D2FE01F040FC1048007A70B1D4F8E5
:101E500010C0A76967447B1ED4F80CC0676967444B
:101E60007A1E60462169FFF7ADFE0DE0D4F810C080
:101E7000A76967447B1ED4F80CC0676967447A1E63
:101E800060462169FFF712FE0020C1E788040020A8
:101E900000BFFEE72DE9F04705460C460027B9468E
:101EA0000026B0463348854202D03348854200D1EF
:101EB00004E040F2DF3131A003F03CF93E488442B7
:101EC0003DD0B4F1021F3AD03C48844237D0B4F53B
:101ED000020F34D0B4F5901F31D0394884422ED04F
:101EE000384884422BD03848844228D03248801C5D
:101EF000844224D03148001D844220D0334884429B
:101F00001DD0102C1BD03248844218D03148844256
:101F100015D02F48401C844211D02D483F308442B8
:101F20000DD02C48801C844209D0001F844206D06A
:101F30002748C01D844202D0B4F5806F00D104E070
:101F40004FF478710DA003F0F5F8B5F814902E8BCE
:101F5000360449EA060020F07F4707EA0400A04261
:101F600002D14FF0010801E04FF000084046BDE803
:101F7000F087000000540040005800402E2E5C4CBA
:101F800069627261726965735C53544D33324631D4
:101F900030785F5374645065726970685F44726929
:101FA0007665725C7372635C73746D333266313064
:101FB000785F6932632E630082000600800086002D
:101FC0004000020040008200400012008400160021
:101FD000010003008200070070B504460D4610485A
:101FE000844202D00F48844200D104E04FF4A27131
:101FF0000DA003F09FF80DB1012D00D104E040F2D7
:10200000451109A003F096F825B1208840F00100A1
:10201000208004E020884FF6FE710840208070BDCB
:1020200000540040005800402E2E5C4C69627261E2
:10203000726965735C53544D3332463130785F5367
:1020400074645065726970685F4472697665725C29
:102050007372635C73746D3332663130785F6932EA
:10206000632E630010B504461048844202D0104825
:10207000844200D103E0A4210EA003F05BF80B48DA
:10208000844209D10121480500F010FC00214FF4E1
:10209000001000F00BFC08E00121880500F006FCB0
:1020A00000214FF4800000F001FC10BD00540040FE
:1020B000005800402E2E5C4C696272617269657333
:1020C0005C53544D3332463130785F5374645065FD
:1020D000726970685F4472697665725C7372635C82
:1020E00073746D3332663130785F6932632E63000A
:1020F00070B504460D461048844202D00F48844211
:1021000000D104E04FF4C6710DA003F013F80DB137
:10211000012D00D104E040F28D1109A003F00AF86E
:1021200025B1208840F48070208004E020884FF69C
:10213000FF610840208070BD0054004000580040FE
:102140002E2E5C4C69627261726965735C53544DEA
:102150003332463130785F53746450657269706809
:102160005F4472697665725C7372635C73746D331D
:1021700032663130785F6932632E630070B5044691
:102180000D461048844202D00F48844200D104E03A
:102190004FF4D2710DA002F0CDFF0DB1012D00D191
:1021A00004E040F2A51109A002F0C4FF25B1208887
:1021B00040F40070208004E020884FF6FF51084072
:1021C000208070BD00540040005800402E2E5C4C12
:1021D00069627261726965735C53544D3332463182
:1021E00030785F5374645065726970685F447269D7
:1021F0007665725C7372635C73746D333266313012
:10220000785F6932632E63007CB505460C46002674
:102210000020019000903648854202D03548854222
:1022200000D104E040F2454133A002F083FFB4F551
:10223000000F3FD0B4F5800F3CD0B4F5001F39D06B
:10224000B4F5801F36D0B4F5802F33D0B4F5003FFD
:1022500030D0B4F5803F2DD0364884422AD036485D
:10226000844227D0B4F1102F24D03448844221D0A6
:10227000334884421ED0334884421BD032488442C3
:1022800018D031488038844214D02F48C038844256
:1022900010D02D48F03884420CD02B48F8388442B6
:1022A00008D0001F844205D0801E844202D0401E08
:1022B000844200D104E040F246410FA002F03AFF10
:1022C0000095200F019024F07F44019818B10098E8
:1022D0001430009003E0240C00981830009000980F
:1022E0000068204008B1012600E0002630467CBD91
:1022F00000540040005800402E2E5C4C6962726110
:10230000726965735C53544D3332463130785F5394
:1023100074645065726970685F4472697665725C56
:102320007372635C73746D3332663130785F693217
:10233000632E6300008000100040001000080010B1
:102340000004001000020010000100102DE9F0430D
:1023500085B005460C460026B1460427DFF870819B
:102360005C48854202D05C48854200D103E0C5212B
:102370005AA002F0DFFE206820B167492068884239
:1023800000D803E0C62155A002F0D4FEA08828B1F1
:10239000A088022802D0A0880A2800D103E0C72123
:1023A0004EA002F0C7FEE088B0F5804F04D0E08870
:1023B0004BF6FF71884200D103E0C82147A002F02C
:1023C000B9FE2089B0F5806F00DA03E0C92143A08F
:1023D00002F0B0FE6089B0F5806F01D0608900B96D
:1023E00003E0CA213DA002F0A5FEA089B0F5804F10
:1023F00003D0A089B0F5404F00D103E0CB2137A036
:1024000002F098FEAE884FF6C0700640684600F0B5
:10241000D9FADDF808804148B8FBF0F01FFA80F9DE
:1024200046EA0906AE8028884FF6FE7108402880EB
:1024300000263B49206888420CD820684000B8FB41
:10244000F0F087B2042F00DA04273E4309F10100BF
:10245000288427E0E0884BF6FF71884206D1206887
:1024600000EB4000B8FBF0F087B209E0206800EB19
:10247000C00101EB0010B8FBF0F087B247F48047D1
:10248000C7F30B0008B947F0010747F400400643C3
:102490004FF4967009FB00F04FF47A7190FBF1F065
:1024A000401C2884AE83288840F0010028802E88B4
:1024B0004FF6F5300640A0886189084306432E8018
:1024C000A08921890843288105B0BDE8F083000078
:1024D00000127A0000540040005800402E2E5C4C40
:1024E00069627261726965735C53544D333246316F
:1024F00030785F5374645065726970685F447269C4
:102500007665725C7372635C73746D3332663130FE
:10251000785F6932632E6300801A060040420F0024
:10252000A086010070B504460E4615460E4884424A
:1025300002D00E48844200D104E040F25B210CA09E
:1025400002F0F8FD0DB1012D00D104E04FF4177138
:1025500007A002F0EFFD15B146F0010602E04FF6CC
:10256000FE700640268270BD0054004000580040B6
:102570002E2E5C4C69627261726965735C53544DB6
:102580003332463130785F537464506572697068D5
:102590005F4472697665725C7372635C73746D33E9
:1025A00032663130785F6932632E630070B504465D
:1025B0000D460748844202D00648844200D104E018
:1025C0004FF40F7104A002F0B5FD258270BD00002C
:1025D00000540040005800402E2E5C4C696272612D
:1025E000726965735C53544D3332463130785F53B2
:1025F00074645065726970685F4472697665725C74
:102600007372635C73746D3332663130785F693234
:10261000632E630010B501F033FC01F021FC01F0E2
:10262000C1FC01F0EDFB01F0A3FB10BD10B501F002
:1026300057FC10BD00BFFEE7704700002DE9F041D8
:102640000446002500270F26E07810B1E078012825
:1026500000D103E0742121A002F06CFD6078102805
:1026600000DA03E075211DA002F064FDA0781028B7
:1026700000DA03E0762119A002F05CFDE07800B3F7
:102680002348006800F4E060C0F5E060050AC5F189
:102690000407EE40607800FA07F5A0783040054363
:1026A0002D011C4822788554207800F01F0101205C
:1026B000884021784911890001F1E021C1F8000129
:1026C00009E0207800F01F0101208840124922789B
:1026D000521141F82200BDE8F08100002E2E5C4C22
:1026E00069627261726965735C53544D333246316D
:1026F00030785F5374645065726970685F447269C2
:102700007665725C7372635C6D6973632E6300003F
:102710000CED00E000E400E080E100E010B50446CC
:10272000B4F5E06F0BD0B4F5C06F08D0B4F5A06F6E
:1027300005D0B4F5806F02D0B4F5407F00D103E03E
:10274000622104A002F0F6FC0F4820430F49086004
:1027500010BD00002E2E5C4C696272617269657357
:102760005C53544D3332463130785F537464506556
:10277000726970685F4472697665725C7372635CDB
:102780006D6973632E6300000000FA050CED00E034
:102790007047000070B504460D4640F2575024EAD9
:1027A000000008B904B104E040F22A410CA002F094
:1027B000C1FC0DB1012D00D104E040F22B4108A075
:1027C00002F0B8FC2DB11548406920431349486117
:1027D00004E012484069A0431049486170BD000000
:1027E0002E2E5C4C69627261726965735C53544D44
:1027F0003332463130785F53746450657269706863
:102800005F4472697665725C7372635C73746D3376
:1028100032663130785F7263632E630000100240CD
:1028200070B504460D461048204008B904B104E0D4
:102830004FF48D610DA002F07DFC0DB1012D00D192
:1028400004E040F2694109A002F074FC2DB1164881
:10285000C06920431449C86104E01348C069A0431B
:102860001149C86170BD0000003601812E2E5C4CFC
:1028700069627261726965735C53544D33324631DB
:1028800030785F5374645065726970685F44726930
:102890007665725C7372635C73746D33326631306B
:1028A000785F7263632E63000010024070B50446C7
:1028B0000D461048204008B904B104E040F2C2417E
:1028C0000DA002F037FC0DB1012D00D104E040F263
:1028D000C34109A002F02EFC2DB116480069204327
:1028E0001449086104E013480069A04311490861D4
:1028F00070BD0000003601812E2E5C4C6962726151
:10290000726965735C53544D3332463130785F538E
:1029100074645065726970685F4472697665725C50
:102920007372635C73746D3332663130785F7263D7
:10293000632E63000010024070B504460D46104837
:10294000204008B904B104E040F249410DA002F072
:10295000F1FB0DB1012D00D104E040F24A4109A084
:1029600002F0E8FB2DB116488069204314498861C4
:1029700004E013488069A0431149886170BD0000DC
:102980000200C0FF2E2E5C4C696272617269657331
:102990005C53544D3332463130785F537464506524
:1029A000726970685F4472697665725C7372635CA9
:1029B00073746D3332663130785F7263632E6300F7
:1029C0000010024030B500210022002400232D4DCC
:1029D0006D6805F00C0121B1042905D0082923D127
:1029E00005E0294D056022E0274D05601FE0254DDB
:1029F0006D6805F47012234D6D6805F4803402256E
:102A000005EB92421CB9214D554305600BE01D4D6D
:102A10006D6805F400351DB11C4D5543056002E09D
:102A2000194D5543056002E0174D056000BF00BF1A
:102A3000144D6D6805F0F0010909154D6B5C0568D2
:102A4000DD4045600F4D6D6805F4E061090A104DE9
:102A50006B5C4568DD4085600A4D6D6805F460512A
:102A6000C90A0B4D6B5C4568DD40C560054D6D685E
:102A700005F44041890B074D6B5CC568B5FBF3F568
:102A8000056130BD0010024000127A0000093D00CF
:102A900004000020140000202DE9FE4F04460D46DE
:102AA00016461F46DDF830A0002C02DB802C00DA31
:102AB00003E0AB212EA002F03DFB002E02DB802EB6
:102AC00000DA03E0AC212AA002F034FB002D02DB87
:102AD000402D00DA03E0AD2125A002F02BFB002FF2
:102AE00002DB402F00DA03E0AE2121A002F022FB3E
:102AF000B44201DA204600E030468046B44201DDAF
:102B0000204600E030460290BD4201DA284600E04F
:102B100038464FEAE00BBD4201DD284600E038466A
:102B2000C0100190D9461EE009F1B001C8B202F010
:102B3000F3FA08F00F0002F0EFFA102141EA281131
:102B4000C8B202F0E9FACDF8008006E01AF8010BED
:102B500002F0E9FA0098401C00900299009888421F
:102B6000F4DD09F1010901988145DDDDBDE8FE8F45
:102B70002E2E5C4253505C737364313330362E63B7
:102B80000000000070B5002413E004F1B001C8B2E9
:102B900002F0C2FA002002F0BFFA102002F0BCFAE4
:102BA000002503E0002002F0BEFA6D1C802DF9D351
:102BB000641C082CE9D370BD10B501F0C7F964207E
:102BC00002F0DAFAAE2002F0A7FA202002F0A4FA0E
:102BD000102002F0A1FAB02002F09EFAC82002F004
:102BE0009BFA002002F098FA102002F095FA40209B
:102BF00002F092FA812002F08FFAFF2002F08CFAA4
:102C0000A12002F089FAA62002F086FAA82002F09C
:102C100083FA3F2002F080FAA42002F07DFAD3204C
:102C200002F07AFA002002F077FAD52002F074FA66
:102C3000F02002F071FAD92002F06EFA222002F0A0
:102C40006BFADA2002F068FA122002F065FADB2053
:102C500002F062FA202002F05FFA8D2002F05CFAA6
:102C6000142002F059FAAF2002F056FAFFF78AFF5B
:102C700010BD704710B500F001F810BD0CB5002074
:102C8000019000903348006840F48030314908607A
:102C900000BF3048006800F4003000900198401CEC
:102CA0000190009818B90198B0F5A06FF1D12948AA
:102CB000006800F4003010B10120009001E0002015
:102CC00000900098012843D12348006840F010008C
:102CD000214908600846006820F0030008600846A3
:102CE000006840F0020008601A48406819494860CE
:102CF0000846406848600846406840F48060486084
:102D00000846406820F47C1048600846406840F45B
:102D1000E81048600846006840F08070086000BF16
:102D20000C48006800F000700028F9D0094840689D
:102D300020F00300074948600846406840F0020060
:102D4000486000BF0348406800F00C000828F9D133
:102D50000CBD0000001002400020024010B50446E7
:102D6000042C01D0601D00B903E0C8210BA002F0C3
:102D7000E1F9042C08D14FF0E020006940F0040094
:102D80004FF0E021086107E04FF0E020006920F0FB
:102D900004004FF0E021086110BD00002E2E5C4CB5
:102DA00069627261726965735C53544D33324631A6
:102DB00030785F5374645065726970685F447269FB
:102DC0007665725C7372635C6D6973632E63000079
:102DD0007047000010B51348006840F00100114929
:102DE000086008464068104908400E494860084697
:102DF00000680E4908400B4908600846006820F446
:102E0000802008600846406820F4FE0048604FF4C7
:102E10001F008860FFF72EFF4FF000600449086034
:102E200010BD0000001002400000FFF8FFFFF6FE9A
:102E300008ED00E000BFFEE7F0B5044617461E6847
:102E40005A689D68944205D2A94203D2002C01DB46
:102E5000002901DA0020F0BD0C48D0F814C0006A47
:102E6000081A0CFB0040DFF824C0DCF81CC0A0EB03
:102E70000C00DFF818C0DCF810C01CF8000001FBE3
:102E8000026C0CF804000020E5E700005800002068
:102E90002DE9F84F06460C4691461D4605B103E064
:102EA000EC212AA002F046F9286800B103E0ED21E8
:102EB00026A002F03FF96F68D5F808A0BE4205D2FF
:102EC000544503D2002E01DB002C02DA0120BDE8BC
:102ED000F88FE11001FB0761286810F80180B9F153
:102EE000000F01D0012200E0002200922046E117ED
:102EF00004EB5171C910A4EBC10148FA01F101F0D2
:102F0000010B009A82EA0B025AB92146E21704EB40
:102F10005272D210A4EBC2020123934028EA0302AA
:102F20000AE02046E21704EB5272D210A4EBC2036F
:102F300001229A4042EA08024FEAE40C0CFB076CBB
:102F40002B6803F80C200020C1E700002E2E5C2E19
:102F50002E5C636F72655C426C61636B486F757366
:102F6000655C52485F677261706869632E63000038
:102F70002DE9F04706460C4691461D4605B103E093
:102F80006C2120A002F0D6F8286800B103E06D2182
:102F90001CA002F0CFF86F68D5F808A0BE4205D299
:102FA000544503D2002E01DB002C02DA0120BDE8DB
:102FB000F087E11001FB0761286810F80180B9F182
:102FC000000F0BD12146E21704EB5272D210A4EB92
:102FD000C20301229A4028EA02020AE02046E217D0
:102FE00004EB5272D210A4EBC20301229A4042EACF
:102FF00008024FEAE40C0CFB076C2B6803F80C206A
:103000000020D4E72E2E5C2E2E5C636F72655C422E
:103010006C61636B486F7573655C52485F67726182
:10302000706869632E6300002DE9F84F05460E466F
:1030300091461C4604B103E09B2112A002F07AF8ED
:10304000206800B103E09C210EA002F073F8D4F8D0
:1030500000806768D4F808A0BD4205D2564503D267
:10306000002D01DB002E02DA4846BDE8F88F06FB92
:103070000780405D00909DF8000006FB07814855E1
:103080000020F2E72E2E5C2E2E5C636F72655C4290
:103090006C61636B486F7573655C52485F67726102
:1030A000706869632E6300002DE9F04706460C4600
:1030B00092461D4605B103E0372117A002F03AF809
:1030C000286800B103E0382113A002F033F8D5F8E6
:1030D00000806F68D5F80890BE4205D24C4503D2F7
:1030E000002E01DB002C02DA0020BDE8F08720462C
:1030F000E11704EB5171C910A4EBC1020121914009
:10310000E21002FB0782925D1143E21002FB07828C
:1031100091550020E9E700002E2E5C2E2E5C636F97
:1031200072655C426C61636B486F7573655C524895
:103130005F677261706869632E6300002DE9F84F64
:1031400006460C4692461D4605B103E0C0212BA061
:1031500001F0F0FF286800B103E0C12127A001F0D1
:10316000E9FFD5F800806F68D5F80890BE4205D217
:103170004C4503D2002E01DB002C02DA0020BDE812
:10318000F88FE01000FB0780805D00902246E31777
:1031900004EB5373DB10A4EBC30C9DF8003043FA2F
:1031A0000CF303F0010383F0010383B92146E31715
:1031B00004EB5373DB10A4EBC30C012303FA0CF3F1
:1031C0009DF800C043EA0C03DBB200930FE02046F9
:1031D000E31704EB5373DB10A4EBC30C012303FAD6
:1031E0000CF39DF800C02CEA030CCDF800C09DF84C
:1031F000000004FB078188550020C0E72E2E5C2EBE
:103200002E5C636F72655C426C61636B486F7573B3
:10321000655C52485F677261706869632E63000085
:103220002DE9F04706460C4692461D4605B103E0DF
:10323000522117A001F07EFF286800B103E053215E
:1032400013A001F077FFD5F800806F68D5F80890DB
:10325000BE4205D24C4503D2002E01DB002C02DA1F
:103260000120BDE8F0872046E11704EB5171C91039
:10327000A4EBC10201219140E21002FB0782925DA2
:1032800022EA0101E21002FB078291550020E8E7E3
:103290002E2E5C2E2E5C636F72655C426C61636BDC
:1032A000486F7573655C52485F67726170686963E7
:1032B0002E6300002DE9F04705460E4690461C4659
:1032C00004B103E0872112A001F034FF206800B1AF
:1032D00003E088210EA001F02DFFD4F80090D4F86F
:1032E00004A0A768554505D2BE4203D2002D01DBDC
:1032F000002E02DA4046BDE8F08706FB0790405DED
:1033000018B906FB079000F805800020F3E70000DD
:103310002E2E5C2E2E5C636F72655C426C61636B5B
:10332000486F7573655C52485F6772617068696366
:103330002E63000010B5B02203490448FDF78AF857
:1033400001200349087010BD54050020A40400208A
:10335000540000202DE9F04F8BB082468D48006864
:1033600030B18C490868FCF7A8FF00208949086043
:103370005046FCF7C9FF06468648006A8549486002
:103380000020886004213046FCF754FF07460421E2
:103390003046FCF74FFF804604213046FCF74AFFD9
:1033A000054604213046FCF745FF8346B000FCF794
:1033B00055FF0A90B000FCF751FF8146002486E0DB
:1033C0000020099008901AF904107248D0F8AC0057
:1033D00008AB09AAD0F80CC06E482830E04700209E
:1033E000079006900590049004A805A906AA07ABCB
:1033F000CDE90032CDE902106648436A1AF904109B
:10340000426AD0F8AC00D0F810C062482830E047DB
:1034100007990598401A45F8240006990498401A1F
:103420004BF8240055F82400B8B904A805A906AA49
:1034300007ABCDE90032CDE902105648436A426A33
:10344000D0F8AC006821D0F810C052482830E047CE
:1034500007990598401A45F82400099802F04EF99A
:1034600001904C48416A019802F074F9029002F010
:1034700077F8039002F026F90A9941F82400089899
:1034800002F03CF901904348416A019802F062F968
:10349000029002F065F8039002F014F949F8240054
:1034A0003C48806855F8241008443A4988603CB18B
:1034B000601E57F8201055F82000084447F82400F3
:1034C000344800690699084448F82400641CB44252
:1034D000FFF476AF2F4989682E4A526801FB02F04B
:1034E0000121FCF7A7FE2B49086000243AE00020E8
:1034F000099064B159F8240058F82410254A9268BC
:1035000001FB020057F82410084409900BE059F819
:10351000240058F824101F4A926801FB020057F853
:103520002410084409901AF904101A48406A194AEC
:10353000526A184B9B68CDE90032CDE902015BF875
:10354000243055F824201348D0F800E009980EEBF9
:1035500000011048D0F8AC00D0F814C00D48283055
:10356000E047641CB442C2D33846FCF7A6FE40468E
:10357000FCF7A3FE2846FCF7A0FE5846FCF79DFE8C
:103580000A98FCF79AFE4846FCF797FE01480BB0F4
:10359000BDE8F08F540500202DE9F04188B00546C4
:1035A0000E460024002700BF04A805A906AA07AB01
:1035B000CDE90032CDE902100F48436A426A204645
:1035C000641C31560C48D0F8AC00D0F810C00A4842
:1035D0002830E04707990598401A07443046FCF721
:1035E00093FEA04201D9AF42DED3AF4200D3641EA6
:1035F000204608B0BDE8F0815405002070B50020D9
:103600002D490877182008622C48C1F8AC000846FC
:10361000007F2B4951F820002749C1F8A80008462F
:10362000D0F8A810D0F8AC00002203682248283057
:1036300098472149086A02F079F804461E48D0F8F4
:10364000AC00214642681C48283090471A4948621D
:103650000846D0F8AC0001F118031A1F1031846835
:1036600001F11800A0471449086902F047F806461E
:103670001148416A304602F06DF8054601F070FFCE
:10368000044602F01FF80C490861486902F036F858
:1036900006460948416A304602F05CF8054601F0EA
:1036A0005FFF044602F00EF803494861B022054866
:1036B000FCF7D0FE70BD000054050020380000204B
:1036C00050000020A404002010B50F480078C8B1B5
:1036D0000E48006830B10D490868FCF7EEFD002087
:1036E0000A490860B0220A490848FCF7B3FE0749B6
:1036F000087F00F05FF80549086A00F00BF8002029
:103700000149087010BD000054000020540500203D
:10371000A40400202DE9F041064608202349086250
:103720002348C1F8AC00087F00F044F81F49086A3C
:1037300001F0FCFF04461D48D0F8AC002146426869
:103740001A4828309047194948620846D0F8AC001A
:1037500001F118031A1F1031846801F11800A04705
:103760001249086901F0CAFF07461048416A384605
:1037700001F0F0FF054601F0F3FE044601F0A2FF60
:103780000A490861486901F0B9FF07460748416ADC
:10379000384601F0DFFF054601F0E2FE044601F085
:1037A00091FF02494861BDE8F08100005405002006
:1037B000380000202DE9F04104462C482C49C1F87E
:1037C000AC007CB92B4850F82400C1F8A80008468A
:1037D000D0F8A810D0F8AC000022036824482830A4
:1037E000984701E0BDE8F08100BF21480477014619
:1037F000086A01F09BFF05461D48D0F8AC00294639
:1038000042681B4828309047194948620846D0F85A
:10381000AC0001F118031A1F1031856801F118007E
:10382000A8471349086901F069FF07461048416A33
:10383000384601F08FFF064601F092FE054601F082
:1038400041FF0B490861486901F058FF07460848E5
:10385000416A384601F07EFF064601F081FE0546CA
:1038600001F030FF0249486100BFBBE7380000208B
:10387000540500205000002010B52C2203490448B4
:10388000FCF7E8FD01200349087010BD5800002036
:1038900004060020840000206420084988604AF65D
:1038A0004440C860FF200870032048600020086181
:1038B00000210248816141610020704758000020CA
:1038C0002DE9F05F80460D4691461E460A9C0B98F6
:1038D00038B1012806D0022802D007287ED194E012
:1038E00000BF00BF4FEAE50A4FEAE60B574688E003
:1038F000574536D1404631E08E490978B1B9D4E90F
:10390000002307FB0303D25C2946EB1705EB537337
:10391000DB10A5EBC30CFF2303FA0CF39A43D4E9A5
:10392000003C07FB0C0C03F80C2016E0D4E9002344
:1039300007FB0303D25C2946EB1705EB5373DB103F
:10394000A5EBC30CFF2303FA0CF3DBB21A43D4E953
:10395000003C07FB0C0C03F80C20401C4845CBDD59
:103960004EE05F453ED1404637E072490978C9B91B
:10397000D4E9002307FB0303D35C3146F21706EBBF
:103980005272D210A6EBC202521C4FF0010C0CFA7C
:1039900002F2521E9343D4E9002C07FB0C0C02F8F0
:1039A0000C3019E0D4E9002307FB0303D35C314654
:1039B000F21706EB5272D210A6EBC202521C4FF065
:1039C000010C0CFA02F2521ED2B21343D4E9002CBD
:1039D00007FB0C0C02F80C30401C00E0A0E048454E
:1039E000C3DD0DE0D4E9003C07FB0C3303EB08001A
:1039F000504B1A78A9EB0803591CFCF79AFD00BF3D
:103A00007F1C5F457FF774AF90E00B98072804D1C7
:103A10004848006908B9012000E000208246BAF158
:103A2000000F46D06068404501DC606805E0B8F1F1
:103A3000000F01DC002000E040463E49C861A0685C
:103A4000A84201DCA06804E0002D01DC002000E0B9
:103A50002846384908626068484501DC606805E02E
:103A6000B9F1000F01DC002000E048463149C96986
:103A7000401A401C2F4948614862A068B04201DCEE
:103A8000A06804E0002E01DC002000E03046294957
:103A9000096A401A401C274988618862496A254A98
:103AA000926A01FB02F0FCF7D9FB2249086100BFD2
:103AB000FEE72F461DE01F4BD3F810C01B6AA7EB93
:103AC000030B1C4B5B690BFB03C3DFF868C0DCF81E
:103AD0001CC0A8EB0C0C03EB0C01D4E9003C07FB69
:103AE0000C3303EB0800A9EB08035A1CFCF72BFC72
:103AF0007F1CB742DFDDBAF1000F10D000200D4966
:103B0000C86100210B4801628162816141624161AB
:103B100001460869FCF7D1FB00200649086105E071
:103B20004FF4787104A001F005FB00BF00BF002036
:103B3000BDE8F09F580000202E2E5C2E2E5C636F97
:103B400072655C426C61636B486F7573655C52486B
:103B50005F677261706869632E6300002DE9F0474A
:103B60008046894615461E46DDE908A4072C01D18A
:103B700000BFFEE7474612E019480278194850F89E
:103B800024C0534649463846E04715480278154850
:103B900050F824C0534631463846E0477F1CAF42B8
:103BA000EADD09F1010712E00D4802780D4850F8EE
:103BB00024C0534639464046E04709480278094840
:103BC00050F824C0534639462846E0477F1CB74288
:103BD000EADB072C01D100BFFEE70020BDE8F0873B
:103BE00058000020D45F000810B50648007838B1AE
:103BF0002C2205490548FCF72DFC002001490870DE
:103C000010BD0000840000200406002058000020A1
:103C100018B90021034A117002E0FF21014A117016
:103C2000704700005800002070B505460C20FCF7D6
:103C300015FB044604B104E04FF4BE7103A001F08B
:103C400079FAA46064602560204670BD2E2E5C2E3B
:103C50002E5C636F72655C426C61636B486F757359
:103C6000655C52485F646174612E630010B5044660
:103C700004B104E04FF4E47106A001F05BFAD4E96A
:103C80000101884204D16068A04201D1012010BD29
:103C90000020FCE72E2E5C2E2E5C636F72655C426A
:103CA0006C61636B486F7573655C52485F646174E7
:103CB000612E630070B5044604B104E040F29D112A
:103CC0000CA001F037FAD4E90101884204D1606800
:103CD000A04201D1206870BDA568A0680668A068F0
:103CE00080684460A0688068A0602846FCF7E5FA18
:103CF0003046F0E72E2E5C2E2E5C636F72655C42C0
:103D00006C61636B486F7573655C52485F64617486
:103D1000612E630070B505460E4605B104E04FF410
:103D2000C4710BA001F006FA0C20FCF797FA0446C8
:103D300004B104E040F28D1105A001F0FBF926600A
:103D4000A868A0606560A8684460AC60204670BD4B
:103D50002E2E5C2E2E5C636F72655C426C61636B11
:103D6000486F7573655C52485F646174612E6300CF
:103D700000B585B001214802FEF7DEFD002000906D
:103D800001208DF804008DF805004FF460200290AA
:103D90000020039002208DF8100069461748FCF7B8
:103DA00095FE0323012208211448FCF779FF032321
:103DB000022209211148FCF773FF01210F48FCF78B
:103DC000BFFD01210D48FCF771FD0C48FDF756F8C9
:103DD00000BF0A48FCF73AFE0028FAD10748FDF771
:103DE000D1F800BF0548FCF7F1FD0028FAD1012108
:103DF0000248FDF77DF805B000BD00000024014039
:103E000000B58BB001210846FEF7C4FC1148FDF750
:103E100067F911480090002002901048019002209C
:103E200003900020049080200590400006908000C0
:103E30000790202008900002099000200A9069460F
:103E40000448FDF747FA01210248FDF7DBF80BB003
:103E500000BD0000080002404C2401401800002072
:103E60001CB58020009000208DF804000C208DF8F7
:103E7000050001208DF806006846FDF7B9FB1CBD62
:103E800008B501210C20FEF757FD01210846FEF779
:103E900053FD8020ADF8000004208DF80300694632
:103EA0000D48FDF7B7FC0120ADF8000000208DF8AB
:103EB000030069460948FDF7ADFC0220ADF800009B
:103EC00000208DF8030069460448FDF7A3FC072194
:103ED0000020FDF725FC08BD00080140000C014052
:103EE00008B501211020FEF727FD4FF40050ADF872
:103EF000000010208DF8030003208DF802006946B1
:103F00000448FDF787FC4FF400510248FDF76EFDB1
:103F100008BD00000010014008B501210420FEF793
:103F20000BFD0420ADF8000010208DF803000320E5
:103F30008DF8020069460448FDF76CFC0421024834
:103F4000FDF754FD08BD00000008014000B585B034
:103F5000114B0FCBCDE90323CDE901010E48103001
:103F60000068009001210820FEF7E6FC69460B4836
:103F7000FDF750FC01218805FEF752FC0848FEF7CA
:103F800071F801210648FEF727F801A90448FEF759
:103F9000DDF905B000BD0000385A0008000C0140F2
:103FA0000058004008B54FF4C060FEF7B7FB17207B
:103FB0008DF8000001208DF801008DF802008DF8C9
:103FC00003006846FEF73AFB08BD00002DE9F04FFC
:103FD00089B0EB460546AC6A94F90500FFF79AFBF9
:103FE00094F9020094F90510401AE96801EB6000A9
:103FF0007F2801D37F2013E094F9020094F9051083
:10400000401AE96801EB6000002801DC002007E0AD
:1040100094F9020094F90510401AE96801EB600078
:10402000CBF8200094F903102869084494F9021091
:1040300094F90420891A00EB61003F2801D33F2046
:1040400019E094F903102869084494F9021094F9CE
:104050000420891A00EB6100002801DC00200AE03E
:1040600094F903102869084494F9021094F9042083
:10407000891A00EB61000746E868401C7F2801D3DD
:104080007F2007E0E868401C002801DC002001E0F8
:10409000E868401CCBF81C0094F903102869084418
:1040A0003F2801D33F200BE094F90310286908440E
:1040B000002801DC002003E094F90310286908447B
:1040C0008146E879CBF818006F4A07CACBE9041299
:1040D000CBF80C006D480068CBF80C000026C9E056
:1040E00094F9003033442A6A52F823106869FFF7C4
:1040F00053FA80460020CBF8080094F90100B04242
:104100000AD1E87908B9FF2000E00020CBF81800B8
:10411000287AFFF77DFD05E0E879CBF81800A8794B
:10412000FFF776FD02200BF10C0182B0CDE9001003
:10413000E96868690844821E94F9020000EB0903EB
:104140004946DBF81C00FFF7BBFB02B0B8F1000FDB
:104150007EDD08F10B0020F00700ADEB000DCBF881
:1041600008D094F900203244286A50F822104246C0
:10417000DBF80800FCF72EFA0021DBF8080000F855
:104180000810DBF80800FFF7E5F88246DAF80000CF
:10419000CBF8040000205DE0002254E0DBF8203082
:1041A000134407EB000C4FEAEC0CDBF810E00CFBBF
:1041B0000E31DBF804301B78802B01DA012300E09C
:1041C00000239BF818C0BCF1000F02D04FF0010C87
:1041D00001E04FF0000C83EA0C03BBB13B184FEA3F
:1041E000E37C03EB5C7C4FEAEC0CA3EBCC0E4FF0D2
:1041F000010C0CFA0EFCDBF80CE01EF801E04CEAB6
:104200000E0CDBF80CE00EF801C016E03B184FEA8C
:10421000E37C03EB5C7C4FEAEC0CA3EBCC0E4FF0A1
:10422000010C0CFA0EFCDBF80CE01EF801E02EEAA3
:104230000C0EDBF80CC00CF801E0521CDBF804108B
:10424000491CCBF80410DAF808109142A6D800E017
:1042500008E0401CDAF80410814202D9A9698142C1
:104260009AD800BF701C46B294F90200074494F932
:104270000200814494F90600B0423FF731AFDD46B9
:1042800009B0BDE8F08F0000705A000888040020D3
:104290002DE9F04F85B0EB460446A56A95F9040078
:1042A000FFF738FA21686069FFF776F907464FF0A3
:1042B000000A002F71DD07F10B0020F00700ADEBC5
:1042C000000DEA463A4650462168FCF783F9002083
:1042D0000AF807005046FFF73DF806466069B168E6
:1042E000401AE16801EB60007F2801D37F200FE0D6
:1042F0006069B168401AE16801EB6000002801DCE8
:10430000002005E06069B168401AE16801EB6000D7
:10431000CBF8100095F9030095F90410411A2069B3
:1043200000EB61003F2801D33F2013E095F9030023
:1043300095F90410411A206900EB6100002801DCA6
:10434000002007E095F9030095F90410411A20694F
:1043500000EB610080462079CBF80C00384A07CA90
:104360008BE8070037480068CBF80000D6F80090CB
:10437000002059E0002253E0DBF81030134408EB32
:10438000000C4FEAEC0CDBF804E00CFB0E3199F862
:104390000030802B02DA012301E04CE000239BF87F
:1043A0000CC0BCF1000F02D04FF0010C01E04FF047
:1043B000000C83EA0C03C3B108EB00034FEAE37C73
:1043C00003EB5C7C4FEAEC0CA3EBCC0E4FF0010C42
:1043D0000CFA0EFCDBF800E01EF801E04CEA0E0CD3
:1043E000DBF800E00EF801C017E008EB00034FEA2D
:1043F000E37C03EB5C7C4FEAEC0CA3EBCC0E4FF0C0
:10440000010C0CFA0EFCDBF800E01EF801E02EEACD
:104410000C0EDBF800C00CF801E0521C09F1010998
:10442000B1689142A8D8401C7168814202D9A16943
:1044300081429FD800BFDD4605B0BDE8F08F000087
:10444000645A0008880400202DE9F04F89B0EA463C
:104450000546AC6A94F90500FFF75CF994F902008F
:1044600094F90510401AE96801EB60007F2801D338
:104470007F2013E094F9020094F90510401AE968CE
:1044800001EB6000002801DC002007E094F9020045
:1044900094F90510401AE96801EB6000CAF82000A1
:1044A00094F903102869084494F9021094F904203F
:1044B000891A00EB61003F2801D33F2019E094F9ED
:1044C00003102869084494F9021094F90420891A09
:1044D00000EB6100002801DC00200AE094F90310E1
:1044E0002869084494F9021094F90420891A00EB11
:1044F00061000646E868401C7F2801D37F2007E062
:10450000E868401C002801DC002001E0E868401C4D
:10451000CAF81C0094F90310286908443F2801D305
:104520003F200BE094F9031028690844002801DCBF
:10453000002003E094F90310286908440746E8794D
:10454000CAF81800FE4A07CACAE90412CAF80C00E1
:10455000FC480068CAF80C0094F90100401C94F96A
:10456000061088427ED195F91C0094F90610401A75
:1045700094F90010884276DD2078401C40B220700B
:104580004FF00008CEE094F9003043442A6A52F814
:1045900023106869FFF700F881460020CAF8080078
:1045A00094F90600401E40450AD1E87908B9FF2079
:1045B00000E00020CAF81800287AFFF729FB05E080
:1045C000E879CAF81800A879FFF722FB02200AF15F
:1045D0000C0182B0CDE90010E96868690844821EC8
:1045E00094F90200C3193946DAF81C00FFF768F99C
:1045F00002B0B9F1000F7DDD09F10B0020F00700DA
:10460000ADEB000DCAF808D094F900204244286AA6
:1046100050F822104A46DAF80800FBF7DBFF0021C9
:10462000DAF8080000F80910DAF80800FEF792FE40
:104630008346DBF80000CAF80400002060E0002296
:1046400057E0DAF82030134406EB000C4FEAEC0C8C
:10465000DAF810E00CFB0E31DAF804301B78802B0E
:1046600004DA01E064E0E7E1012300E000239AF8C6
:1046700018C0BCF1000F02D04FF0010C01E04FF068
:10468000000C83EA0C03BBB133184FEAE37C03EB65
:104690005C7C4FEAEC0CA3EBCC0E4FF0010C0CFA57
:1046A0000EFCDAF80CE01EF801E04CEA0E0CDAF829
:1046B0000CE00EF801C016E033184FEAE37C03EB80
:1046C0005C7C4FEAEC0CA3EBCC0E4FF0010C0CFA27
:1046D0000EFCDAF80CE01EF801E02EEA0C0EDAF817
:1046E0000CC00CF801E0521CDAF80410491CCAF89E
:1046F000041000E00CE0DBF808109142A1D8401C47
:10470000DBF80410814202D9A969814297D800BF21
:1047100008F101004FFA80F894F90200064494F978
:104720000200074494F9060040453FF72CAF83E1AF
:104730006078401C40B2607094F9002094F9013018
:104740001A44521E2B6A53F822106869FEF724FFA0
:1047500080464FF00009E879CAF81800A879FFF7F9
:1047600057FA94F90100401E94F9021000FB0177FA
:1047700094F90100401E94F9021000FB016602202A
:104780000AF10C0182B0CDE90010E96868690844BB
:10479000821E94F90200C3193946DAF81C00FFF7AB
:1047A0008FF802B0B8F1000F7DDD08F10B0020F0AA
:1047B0000700ADEB000DE94694F9000094F90120E3
:1047C0001044401E2A6A52F8201042464846FBF721
:1047D00001FF002009F808004846FEF7BBFD8346AC
:1047E000DBF80000CAF8080000205BE0002254E07B
:1047F000DAF82030134406EB000C4FEAEC0CDAF840
:1048000010E00CFB0E31DAF808301B78802B01DA4F
:10481000012300E000239AF818C0BCF1000F02D079
:104820004FF0010C01E04FF0000C83EA0C03BBB128
:1048300033184FEAE37C03EB5C7C4FEAEC0CA3EB10
:10484000CC0E4FF0010C0CFA0EFCDAF80CE01EF85E
:1048500001E04CEA0E0CDAF80CE00EF801C016E0AC
:1048600033184FEAE37C03EB5C7C4FEAEC0CA3EBE0
:10487000CC0E4FF0010C0CFA0EFCDAF80CE01EF82E
:1048800001E02EEA0C0EDAF80CC00CF801E0521C24
:10489000DAF80810491CCAF80810DBF80810914231
:1048A000A6D8401C00E007E0DBF80410814202D9E2
:1048B000A96981429AD800BF94F9002094F9013087
:1048C0001A442B6A53F822106869FEF765FE804689
:1048D0004FF00009E87908B9FF2000E00020CAF88D
:1048E0001800287AFFF794F994F90200074494F924
:1048F0000200064402200AF10C0182B0CDE900104A
:10490000E96868690844821E94F90200C3193946AF
:10491000DAF81C00FEF7D4FF02B0B8F1000F7CDD1E
:1049200008F10B0020F00700ADEB000DE94694F90B
:10493000000094F9012010442A6A52F8201003E084
:10494000885A00088804002042464846FBF742FE89
:10495000002009F808004846FEF7FCFC8346DBF817
:104960000000CAF8080000205DE0002254E0DAF8F8
:104970002030134406EB000C4FEAEC0CDAF810E0A0
:104980000CFB0E31DAF808301B78802B01DA01239A
:1049900000E000239AF818C0BCF1000F02D04FF0DD
:1049A000010C01E04FF0000C83EA0C03BBB133189B
:1049B0004FEAE37C03EB5C7C4FEAEC0CA3EBCC0E00
:1049C0004FF0010C0CFA0EFCDAF80CE01EF801E0D6
:1049D0004CEA0E0CDAF80CE00EF801C016E03318C1
:1049E0004FEAE37C03EB5C7C4FEAEC0CA3EBCC0ED0
:1049F0004FF0010C0CFA0EFCDAF80CE01EF801E0A6
:104A00002EEA0C0EDAF80CC00CF801E0521CDAF8B1
:104A10000810491CCAF8081000E00CE0DBF8081088
:104A20009142A4D8401CDBF80410814202D9A96944
:104A300081429AD800BF00BFD54609B0BDE8F08FCB
:104A40002DE9F04F89B0EA460546AC6A94F90500B5
:104A5000FEF760FE94F9020094F90510401AE96827
:104A600001EB60007F2801D37F2013E094F902005E
:104A700094F90510401AE96801EB6000002801DC98
:104A8000002007E094F9020094F90510401AE96843
:104A900001EB6000CAF8200094F90310286908446B
:104AA00094F9021094F90420891A00EB61003F2860
:104AB00001D33F2019E094F903102869084494F9C0
:104AC000021094F90420891A00EB6100002801DC2F
:104AD00000200AE094F903102869084494F90210B0
:104AE00094F90420891A00EB61000646E868401C2E
:104AF0007F2801D37F2007E0E868401C002801DC04
:104B0000002001E0E868401CCAF81C0094F903107A
:104B1000286908443F2801D33F200BE094F9031093
:104B200028690844002801DC002003E094F9031000
:104B3000286908440746E879CAF81800FE4A07CAF7
:104B4000CAE90412CAF80C00FC480068CAF80C0054
:104B50006078002878D194F90000002875DD20786D
:104B6000401E40B220704FF00008CBE094F90030B6
:104B700043442A6A52F823106869FEF70DFD814606
:104B80000020CAF80800B8F1000F0AD1E87908B986
:104B9000FF2000E00020CAF81800287AFFF738F854
:104BA00005E0E879CAF81800A879FFF731F8022083
:104BB0000AF10C0182B0CDE90010E9686869084487
:104BC000821E94F90200C3193946DAF81C00FEF778
:104BD00077FE02B0B9F1000F7EDD09F10B0020F085
:104BE0000700ADEB000DCAF808D094F9002042444C
:104BF000286A50F822104A46DAF80800FBF7EAFC67
:104C00000021DAF8080000F80910DAF80800FEF7C9
:104C1000A1FB8346DBF80000CAF8040000205FE037
:104C2000002256E0DAF82030134406EB000C4FEA7D
:104C3000EC0CDAF810E00CFB0E31DAF804301B78DB
:104C4000802B03DA012302E062E0E6E100239AF818
:104C500018C0BCF1000F02D04FF0010C01E04FF082
:104C6000000C83EA0C03BBB133184FEAE37C03EB7F
:104C70005C7C4FEAEC0CA3EBCC0E4FF0010C0CFA71
:104C80000EFCDAF80CE01EF801E04CEA0E0CDAF843
:104C90000CE00EF801C016E033184FEAE37C03EB9A
:104CA0005C7C4FEAEC0CA3EBCC0E4FF0010C0CFA41
:104CB0000EFCDAF80CE01EF801E02EEA0C0EDAF831
:104CC0000CC00CF801E0521CDAF80410491CCAF8B8
:104CD0000410DBF8081000E00AE09142A2D8401C62
:104CE000DBF80410814202D9A969814298D800BF3B
:104CF00008F101004FFA80F894F90200064494F993
:104D00000200074494F9060040453FF72FAF84E1C5
:104D10006078401E40B2607094F9002094F9013030
:104D20001A44521C2B6A53F822106869FEF734FCAF
:104D300080464FF00009E879CAF81800A879FEF714
:104D400067FF94F90100401C94F9021000FB017701
:104D500094F90100401C94F9021000FB0166022046
:104D60000AF10C0182B0CDE90010E96868690844D5
:104D7000821E94F90200C3193946DAF81C00FEF7C6
:104D80009FFD02B0B8F1000F7DDD08F10B0020F0AF
:104D90000700ADEB000DE94694F9000094F90120FD
:104DA0001044401C2A6A52F8201042464846FBF73D
:104DB00011FC002009F808004846FEF7CBFA8346AC
:104DC000DBF80000CAF8080000205BE0002254E095
:104DD000DAF82030134406EB000C4FEAEC0CDAF85A
:104DE00010E00CFB0E31DAF808301B78802B01DA6A
:104DF000012300E000239AF818C0BCF1000F02D094
:104E00004FF0010C01E04FF0000C83EA0C03BBB142
:104E100033184FEAE37C03EB5C7C4FEAEC0CA3EB2A
:104E2000CC0E4FF0010C0CFA0EFCDAF80CE01EF878
:104E300001E04CEA0E0CDAF80CE00EF801C016E0C6
:104E400033184FEAE37C03EB5C7C4FEAEC0CA3EBFA
:104E5000CC0E4FF0010C0CFA0EFCDAF80CE01EF848
:104E600001E02EEA0C0EDAF80CC00CF801E0521C3E
:104E7000DAF80810491CCAF80810DBF8081091424B
:104E8000A6D8401C00E007E0DBF80410814202D9FC
:104E9000A96981429AD800BF94F9002094F90130A1
:104EA0001A442B6A53F822106869FEF775FB804696
:104EB0004FF00009E87908B9FF2000E00020CAF8A7
:104EC0001800287AFEF7A4FE94F902003F1A94F91C
:104ED0000200361A02200AF10C0182B0CDE900105E
:104EE000E96868690844821E94F90200C3193946CA
:104EF000DAF81C00FEF7E4FC02B0B8F1000F7DDD2B
:104F000008F10B0020F00700ADEB000DE94694F925
:104F1000000094F9012010442A6A52F820104246F9
:104F20004846FBF757FB002009F808004846FEF703
:104F300011FA834604E000007C5A0008880400202F
:104F4000DBF80000CAF8080000205DE0002254E011
:104F5000DAF82030134406EB000C4FEAEC0CDAF8D8
:104F600010E00CFB0E31DAF808301B78802B01DAE8
:104F7000012300E000239AF818C0BCF1000F02D012
:104F80004FF0010C01E04FF0000C83EA0C03BBB1C1
:104F900033184FEAE37C03EB5C7C4FEAEC0CA3EBA9
:104FA000CC0E4FF0010C0CFA0EFCDAF80CE01EF8F7
:104FB00001E04CEA0E0CDAF80CE00EF801C016E045
:104FC00033184FEAE37C03EB5C7C4FEAEC0CA3EB79
:104FD000CC0E4FF0010C0CFA0EFCDAF80CE01EF8C7
:104FE00001E02EEA0C0EDAF80CC00CF801E0521CBD
:104FF000DAF80810491CCAF8081000E00CE0DBF8E9
:1050000008109142A4D8401CDBF80410814202D958
:10501000A96981429AD800BF00BFD54609B0BDE852
:10502000F08F2DE9F84F04460D4616469B460A9F21
:1050300004B115B90020BDE8F88F002F08DB0C98EB
:10504000002805DB0B98002802DB0D98002801DA08
:105050000020F0E70C98C01B401C00FB06F8A1469E
:10506000DDF82CA00CE00BFB0A7070430090009858
:10507000291842464846FBF7ABF9C1440AF1010A38
:105080000D988245EFD92046D5E7000070B504465B
:105090000D4600BF4FF400311C48FDF7B5F800285D
:1050A000F8D101211948FDF723F800BF1849174826
:1050B000FCF7F0FE0028F9D0002278211348FDF714
:1050C00031FA00BF13491148FCF7E4FE0028F9D07B
:1050D00021460E48FDF76AFA00BF0E49891C0B48AD
:1050E000FCF7D8FE0028F8D029460848FDF75EFAFC
:1050F00000BF0849891C0548FCF7CCFE0028F8D001
:1051000001210248FDF73AF870BD00000058004048
:10511000010003008200070010B50446214600206C
:10512000FFF7B4FF10BD10B5044621464020FFF73D
:10513000ADFF10BD00BF00BF00BFFEE710B50446C5
:105140006FF00400FDF70AFEE11704EB5171C1F3A3
:10515000C701074A11701046007800EB4001C1EB0F
:10516000C0104FF6FF7101EAC0000249088010BD6F
:1051700000000020020000200146114A12884A4324
:105180004FF0E0235A6100229A611A46126942F0F8
:1051900001021A6100BF4FF0E022106900F0010225
:1051A0001AB100F48032002AF5D04FF0E0221269E3
:1051B00022F001024FF0E0231A6100229A61704749
:1051C0000200002096B04820FFF7B8FFFDF7F4FC7E
:1051D000FDF720FAFDF72AFAFBF70EFFFCF75EFC5D
:1051E000FCF7AAFC2C210BA8FBF7CDF900200E90B0
:1051F00000210F913F2111917F2110910A208DF8FC
:10520000480029A00B90FF208DF830000A208DF86F
:10521000510000208DF83200FF208DF834008DF809
:105220003300282101A8FBF7AEF921A0019022A0AC
:10523000029023A0039024A0049025A0059026A00E
:10524000069027A0079028A0089029A009902AA0DE
:105250000A9001A813900BA8FCF706FD0546002153
:105260002846FCF729FD2846FCF75CFDFCF78EFC80
:1052700019E0002422484088B0F57A6F01DD641EF1
:1052800007E01F484088B0F57A7F01DA012400E08A
:10529000002421462846FCF7B3FDFCF777FC0120EB
:1052A000FFF76AFF00BFE4E75469746C6500000013
:1052B0006D656E755F3000006D656E755F31000065
:1052C0006D656E755F3200006D656E755F33000051
:1052D0006D656E755F3400006D656E755F3500003D
:1052E0006D656E755F3600006D656E755F37000029
:1052F0006D656E755F3800006D656E755F39000015
:10530000180000202DE9F05F05468A4693460AAE54
:1053100096E8C0036C68A078202800D103E05D21E6
:1053200006A0FFF707FF0020306038606078C8F8FB
:1053300000002078C9F80000BDE8F09F2E2E5C2EFA
:105340002E5C636F72655C466F6E745C52485F667C
:105350006F6E742E630000002DE9F04106460D4685
:10536000174698467468A5F1200004EBC00404B108
:1053700003E0532109A0FFF7DDFE94F90200A842E3
:1053800000D103E0542105A0FFF7D4FE6078386017
:105390000020C8F80000BDE8F08100002E2E5C2E31
:1053A0002E5C636F72655C466F6E745C52485F661C
:1053B0006F6E742E630000002DE9F04104460D4627
:1053C00016469846676807B103E0422107A0FFF739
:1053D000B1FEB878202800D103E0432103A0FFF7F5
:1053E000A9FE002028603060BDE8F0812E2E5C2EE2
:1053F0002E5C636F72655C466F6E745C52485F66CC
:105400006F6E742E630000002DE9F04105460C46D6
:1054100017462646B078202800D103E02E2103A0AD
:10542000FFF788FE6C600020BDE8F0812E2E5C2E18
:105430002E5C636F72655C466F6E745C52485F668B
:105440006F6E742E630000002DE9F05F80460D46FC
:1054500091469A46DDF828B00D9ED8F80440FAF738
:10546000E1FE0068805D00F03E0018B9712123A0C4
:10547000FFF760FEA6F1200004EBC00404B103E0D6
:1054800078211EA0FFF756FE94F90200B04200D129
:1054900003E0792119A0FFF74DFE2078504500D197
:1054A00003E07A2115A0FFF745FE6078484500D15A
:1054B00003E07B2111A0FFF73DFE6768002218E0A2
:1054C000002110E0002009E03B5C0B4103F00103E8
:1054D0000BB9002300E0FF232B54401C6378834268
:1054E000F2DC5D44491C0829ECDB60780744083293
:1054F0005D4420789042E3DCBDE8F09F2E2E5C2EC8
:105500002E5C636F72655C466F6E745C52485F66BA
:105510006F6E742E6300000070B504460E46656819
:1055200005B103E0382107A0FFF704FEA878202882
:1055300000D103E0392103A0FFF7FCFD4FF07E50BE
:1055400070BD00002E2E5C2E2E5C636F72655C4673
:105550006F6E745C52485F666F6E742E630000005D
:1055600070B5054600F0C2F904460146284600F031
:10557000EDF915F0004F4FF07F410ED0B0F13F4FE5
:1055800028BFB1EB400F0ED2B0F17C5F1DDDB1EB57
:10559000400F1AD313E0044617E0B0F13F4F08D98B
:1055A000B1EB400F05D34FF07E51204600F0CEF90D
:1055B000F1E7B0F17C5F08DBB1EB400F05D34FF0B2
:1055C0007E51204600F01CF8E5E7284664F31E00F3
:1055D00070BD000010B500290AD00878002807D057
:1055E00005487844FBF7A0F8002801D0002010BD42
:1055F0000248784410BD0000360A00002E0A000060
:1056000090EA010F48BF81F0004100F1A681421AE3
:105610003CBF801A89184FEAD0524FF07F4C1CEAE9
:10562000410FA2EBD15318BF9CEA026F00F03B8000
:105630004FF0004C4CEA00204CEA012121FA03FC17
:1056400010EB0C0C1ED202F1FF325FEA1C2040EB83
:10565000C25038BF70471CF07F0F4FEA400C18BF94
:10566000BCF17F4F38BF7047C3F12003994008BF9A
:1056700020F00100BCF17F4F38BF7047A0F1C0405F
:1056800000F02FB94FEA3C00000A40EBC25028BF9F
:105690001CF0FF0F4FEA400CE6D018BFBCF17F4F63
:1056A00038BF7047EAE79CEA026F05D010EA5C0F4A
:1056B00008BF00F00040704710B500F0CCF800BF04
:1056C00064FBBE3E41000B0ED3F19E0208D950F49C
:1056D00000034FEA032323FA02F048BF4042704719
:1056E00010B500F0B8F800BF499224800020704740
:1056F0006FF0004282EA20007047000010F0004185
:1057000048BF4042B0FA80F310FA03F2C3F19D03A0
:105710000BD051EAC35101EB1220530638BF70473A
:1057200000F1010008BF20F001007047B0FA80F3DB
:1057300010FA03F2C3F19D030AD0D90501EB122040
:10574000530638BF704700F1010008BF20F0010088
:10575000704700004FF47F0C1CEAD0121EBF1CEAF9
:10576000D11392EA0C0F93EA0C0F00F0478090EAF5
:10577000010F48BF42F480724FF0004C4CEA002009
:105780004CEA012102EB0302A0FB0113A2F5000287
:10579000002918BF43F001035B0028BF4FEA330321
:1057A00042EB22425FEA132C4CEBC2502EBFBCEB03
:1057B000436FB2F57C0F70474FEA036CBCF1004FAA
:1057C00008BF20F00100B2F57C0F38BF70470BD541
:1057D00082F0FF0212F5803FC8BF704700F1C04061
:1057E000D8BF00F00040704700F5000C5FEA4C0C99
:1057F00048BF7047B0F1C04000F073B890EA010FA5
:105800000CEAD11348BF42F48072624538BF634549
:1058100004D280EA010000F00040704710B500F0AB
:105820001AF800BF8900013E00F007B800F009B87F
:105830005FEA410C5FEA1C6C08D080EA010000F0CE
:1058400050B85FEA400C5FEA1C6CF6D14FF00040A4
:10585000A0F5800070470EF1020E2EF0030E5EF8E8
:10586000044B244204D44FEA4102B2F17F4F11D8D5
:105870004FEA4003B3F17F4F0CD80ED14FEAD07CF2
:10588000B2F17F4F0CEB4C0C0CF1020C08BF4CEB4F
:10589000D17C04E04FF0080C01E04FEAD17C0CEB26
:1058A0004C0324FA03F404F00704B4F1040C06D208
:1058B0000EEB840CBDE810404CF0010C6047DFE8B3
:1058C0000CF0070802024FF00040A0F5800010BD68
:1058D0000846420018BFD2F1807288BF00F0004035
:1058E00010BDFF2141EAD050C00570475FEA400C6F
:1058F0005FEA1C6CBCF17F0314D4D3F1170240F3B0
:105900001C804FF0010C0CFA02FCACF101030340C7
:10591000B3EB5C0220EA030008BF10EA0C0F88BF5B
:1059200060447047B3F1FF3F28BF5FEA002C00F0EE
:10593000004088BF40F07E507047BCF1FF0FB8BFF9
:10594000704710B5FFF787FF40DBB6BE90EA010F46
:1059500048BF81F000413FF55AAE421A04D882F0A8
:105960000042A0EB020011444FEAD0524FF07F4CAE
:105970001CEA410FA2EBD15318BF9CEA026F4AD038
:105980004FF0004C4CEA00204CEA012121FA03FCC4
:10599000B0EB0C0C0FD412F0FE0F36D05FEA4C00C7
:1059A0001DD5001240EBC25038BF70471CF03F0FAE
:1059B00018BF70470BE0A2F101025FEA1C2040EB28
:1059C000C25038BF70471CF07F0F18BF7047C3F13B
:1059D0002003994014BF401E20F00100704780084A
:1059E0004FEA122308BF7047B0FA80FCA2EB0C020A
:1059F000CCF1280C60FA0CF093EA122F04BF00EBF4
:105A0000C25070474FEAC3707047130A5FEADC1058
:105A100008BF7047F6E79CEA026F04D010EA5C0FFB
:105A200008BF0020704710B5FFF715FF40DFF63EB6
:105A300081F0004070470000801A06000000FFBFA0
:105A40003000000400400000000C031C00000000B7
:105A50008000000040000000000000008000000006
:105A60004000000000000000800000004000000036
:105A70000000000080000000400000000000000066
:105A800080000000400000000000000080000000D6
:105A9000400000000000000000000000002F000097
:105AA00000000700070000147F147F1400242A7FE1
:105AB0002A12231308646200003649552250000060
:105AC0000503000000001C224100000041221C00D0
:105AD0000014083E08140008083E0808000000A052
