:020000040800F2
:10000000881A0020DD01000893110008A30F0008E2
:100010008F110008450B0008BD1500080000000006
:10002000000000000000000000000000471400086D
:10003000490B000800000000951100085915000840
:10004000F7010008F7010008F7010008F7010008B0
:10005000F7010008F7010008F7010008F7010008A0
:10006000F7010008F7010008F7010008F701000890
:10007000F7010008F7010008F7010008F701000880
:10008000F7010008F7010008F7010008F701000870
:10009000F7010008F7010008F7010008F701000860
:1000A000F7010008F7010008F7010008F701000850
:1000B000F7010008F7010008F7010008F701000840
:1000C000F7010008F7010008F7010008F701000830
:1000D000F7010008F7010008F7010008F701000820
:1000E000F7010008F7010008F7010008F701000810
:1000F000F7010008F7010008F7010008F701000800
:10010000F7010008F7010008F7010008F7010008EF
:10011000F7010008F7010008F7010008F7010008DF
:10012000F7010008F7010008F7010008F7010008CF
:1001300000F002F800F043F80AA090E8000C8244B6
:100140008344AAF10107DA4501D100F038F8AFF293
:10015000090EBAE80F0013F0010F18BFFB1A43F0A5
:1001600001031847E834000008350000103A24BFA6
:1001700078C878C1FAD8520724BF30C830C144BF0C
:1001800004680C607047000000230024002500264E
:10019000103A28BF78C1FBD8520728BF30C148BFEA
:1001A0000B607047642900F0BF80002070471FB5C6
:1001B0009DE8030000F060FB1FBD10B510BD00F00E
:1001C00037FC1146FFF7F3FF02F01EFB00F055FC71
:1001D00003B4FFF7F2FF03BC00F086FC0948804738
:1001E00009480047FEE7FEE7FEE7FEE7FEE7FEE719
:1001F000FEE7FEE7FEE7FEE704480549054A064B31
:10020000704700005D1500083101000888060020D5
:10021000881A0020881600208816002070B5A0FBE0
:100220000140B4F1805170F1000024BF002070BD86
:10023000204600F007F805001CBF214600F089FAAF
:10024000284670BD70B5064600F0FAFA056806F15A
:100250000B0020F00704B4429CBF002070BD2B4669
:100260006A68BAB11068A04210D304F1080188424C
:100270003CBF5068586007D351681019416011683D
:10028000091B016058601460101D70BD1346526850
:10029000002AE7D12146284600F0DAFA0028DED10C
:1002A00070BD70B50446051F00F0CAFA0068002C46
:1002B00014BF446870BD002C18BFAC423CBF204640
:1002C0006468F8D301680A18AA4218BF456003D1D0
:1002D0002A6805461144016028684119A1421CBFE3
:1002E0006C6070BD6168696021680844286070BDF9
:1002F0000FB47CB50C0009AA009001D02044401E28
:10030000084B7B4469460190089800F04AFB05467B
:100310001CB10020694600F057FB28467CBC5DF804
:1003200014FB0000CD0600002DE9F0410646002434
:1003300010687529314616A510D0AFF3008000284B
:1003400002DA404213A507E031688A0701D512A5F9
:1003500002E0490704D511A5012401E0AFF30080B4
:1003600000210A2206F1240709E0B0FBF2FCB0FBF1
:10037000F2F302FB1C00303078541846491C002868
:10038000F3D123462A463046BDE8F04100F0AABA30
:10039000000000002D0000002B00000020000000E5
:1003A0002DE9F05F894604464FF0000ADFF874B18A
:1003B000FB44C0F820A02046E1688847002874D09C
:1003C000252806D0D4E901219047206A401C2062EC
:1003D000F1E700265F462046E16888472028054669
:1003E00007DB312D05D2781910F8200C08B106432F
:1003F000F1E7B00701D526F00406C4F81CA00027D9
:10040000C4F818A02A2D09D0284602F0B1F938B353
:1004100004EB8708303DC8F8185019E059F8041B60
:10042000204604EB87029161E1688847012F054669
:1004300018D1E069002820DA26F020061DE0D8F85F
:10044000180000EB800005EB40003038C8F81800B9
:100450002046E1688847054602F08AF90028EED177
:10046000012F0AD02E2D08D12046E16888477F1C35
:100470000546022F46F02006C4DBA069002803DAF7
:10048000404246F00106A061F00701D026F01006B8
:100490006C2D0BD0682D09D04C2D39D06A2D35D05C
:1004A000742D35D07A2D33D016E038E0E1682F4630
:1004B00020468847B842054609D16C2F26D04FF414
:1004C0008060E168064320468847054604E06C2FBB
:1004D0001AD04FF4807006430DB3A5F141001928DE
:1004E00002D8203546F400664A4629462046266052
:1004F0004E46FFF757FE80B101280BD0F61D26F0BF
:10050000070000F1080956E74020E4E78020D8E71B
:100510000020D6E706F104094DE7284652E7206A95
:10052000BDE8F09F8432000010B5431C02E010F8D3
:10053000011B71B18107FAD14FF0013202C88C1A48
:100540008C4314EAC211F9D0C01A0A0603D0C01EA7
:1005500010BDC01A10BD0A0401D0801E10BD0902D2
:10056000FCD0401E10BD032A40F2308010F0030C76
:1005700000F0158011F8013BBCF1020F624498BFF6
:1005800011F801CB00F8013B38BF11F8013BA2F193
:10059000040298BF00F801CB38BF00F8013B11F00E
:1005A000030300F06780083AC0F0088051F8043B6C
:1005B000083A51F804CBA0E80810F5E7121D5CBF1B
:1005C00051F8043B40F8043BAFF30080D20724BF4E
:1005D00011F8013B11F801CB48BF11F8012B24BFE2
:1005E00000F8013B00F801CB48BF00F8012B704731
:1005F000431A28BF9A427FF6B6AF032A104411442B
:1006000040F2268010F0030F1EBF11F8013D521E6C
:1006100000F8013D10F0030F7FF4F6AF11F0030373
:1006200000F06D80083AC0F00B8051F8043D083AA4
:1006300051F804CD40F8043D40F804CDFFF7F3BF76
:10064000121D5CBF51F8043D40F8043DAFF300803B
:10065000D20724BF11F8013D11F801CD48BF11F8B0
:10066000012C24BF00F8013D00F801CD48BF00F87F
:10067000012C704710B5203AC0F00B80B1E818503B
:10068000203AA0E81850B1E81850A0E81850BFF47C
:10069000F5AF5FEA027C24BFB1E81850A0E818501B
:1006A00044BF18C918C0BDE810405FEA827C24BF6F
:1006B00051F8043B40F8043B08BF7047D20728BFFD
:1006C00031F8023B48BF11F8012B28BF20F8023B4C
:1006D00048BF00F8012B7047431A28BF9A427FF6A3
:1006E000C9AF104410F0030F11441EBF11F8013DB3
:1006F000521E00F8013D10F0030F7FF4F6AF103AE0
:10070000C0F00A8010B531E91850103A20E91850AD
:10071000BFF4F9AFBDE81040530724BF31E908101A
:1007200020E9081044BF51F8043D40F8043D12F0A0
:10073000030F08BF7047D20728BF31F8023D48BFFA
:1007400011F8012C28BF20F8023D48BF00F8012C09
:1007500070474FF000020429C0F0128010F0030C23
:1007600000F01B80CCF1040CBCF1020F18BF00F8A4
:10077000012BA8BF20F8022BA1EB0C0100F00DB853
:100780005FEAC17C24BF00F8012B00F8012B48BFB1
:1007900000F8012B70474FF0000200B51346944655
:1007A0009646203922BFA0E80C50A0E80C50B1F1C9
:1007B0002001BFF4F7AF090728BFA0E80C5048BFDD
:1007C0000CC05DF804EB890028BF40F8042B08BF7B
:1007D000704748BF20F8022B11F0804F18BF00F877
:1007E000012B704710B5044610F0030F08BF11F03D
:1007F000030F40F015804FF0013E121FC0F20E8033
:1008000051F8043BA3EB0E0C2CEA030C1CEACE1CA3
:1008100008BF40F8043BF0D0A1F1040102F104024A
:10082000521E08DB11F8013B002B00F8013BF7D109
:100830001146FFF78EFF204610BD70477047704786
:100840000048704730060020704770477047704777
:1008500038B504460A4600206946AFF300800028F8
:1008600008BF38BD02460099204600F0C0F80120BC
:1008700038BD012000F0D5B8F8B5AFF300800546CB
:1008800000200C46102000BF0646A819A0420DD932
:10089000324669460020AFF30080070008BF00F031
:1008A000C0F80098A04218BF0546C419FFF7C8FF5A
:1008B00005600746F01D20F007004619284600F0A5
:1008C0000AF8B44208BFF8BDA21B31463868BDE83B
:1008D000F84000F08CB800210160C0E901107047B9
:1008E000102070472DE9F0470D4699469246044680
:1008F00000F124080168880604D5E06921F01001A0
:10090000216000E00120A84201DD471B00E0002734
:10091000A1697A1902EB0900081AA0612078C006C3
:1009200002D42046AFF30080002608E0D4E901217C
:100930001AF806009047206A401C761C20624E453B
:10094000F4DB2078C0060AD52046AFF3008006E02D
:10095000D4E9012130209047206A401C2062381ED3
:10096000A7F10107F4DC07E0D4E9012118F805003C
:100970009047206A401C2062281EA5F10105F3DC87
:100980002046AFF300802078000602D50220BDE8A3
:10099000F0870120FBE7000001694A1C026108782A
:1009A000704700B58FB0CDE90131002105910549AF
:1009B0007944CDE9031011466846FFF7F1FC0FB00A
:1009C00000BD0000E5FFFFFF0A6802F8010B0A60A6
:1009D0007047D1E900239A4202D2531C0B60107079
:1009E0007047000000487047280600207047034603
:1009F00040688C46002818BF88423CBF03464068C8
:100A0000F8D318681844884207D00CF1030020F08E
:100A10000700001D411A521A0146081D0A60FFF71F
:100A200040BC10B500F038F8BDE8104000F02EB81A
:100A30007546FFF7D7FFAE4605006946534620F0DE
:100A40000700854618B020B5FFF7D6FBBDE820406B
:100A50004FF000064FF000074FF000084FF0000B7A
:100A600021F00701AC46ACE8C009ACE8C009ACE82D
:100A7000C009ACE8C0098D46704710B50446AFF315
:100A800000802046BDE81040FFF7A2BB002801D03F
:100A900000F02AB87047000010B5012805D00021E9
:100AA00003A000F027F8012010BD09A1F8E700001D
:100AB00053494752544D454D3A204F7574206F6647
:100AC0002068656170206D656D6F727900000000AF
:100AD0003A2048656170206D656D6F727920636F93
:100AE000727275707465640001491820ABBEFEE730
:100AF0002600020070B505460C460A2000E06D1C79
:100B000000F011F835B128780028F8D102E0641C13
:100B100000F009F814B120780028F8D1BDE8704041
:100B20000A20AFF3008008B569468DF80000032065
:100B3000ABBE08BD0148024908607047CD120008ED
:100B40001800002000BFFEE770472DE9F041024683
:100B500000250026002000230024002791F803C070
:100B60000CF00F0591F803C00CF0100CBCF1000F55
:100B700003D091F802C04CEA050591F800C0BCF121
:100B8000000F31D0146800202BE04FF0010C0CFA5C
:100B900000F3B1F800C00CEA03069E4220D18300A6
:100BA0004FF00F0C0CFA03F7BC4305FA03FC4CEAB8
:100BB000040491F803C0BCF1280F06D14FF0010CDA
:100BC0000CFA00FCC2F814C00AE091F803C0BCF1B2
:100BD000480F05D14FF0010C0CFA00FCC2F810C010
:100BE000401C0828D1D31460B1F800C0BCF1FF0F3D
:100BF00034DD546800202EE000F1080C4FF00108AD
:100C000008FA0CF3B1F800C00CEA03069E4221D1A9
:100C100083004FF00F0C0CFA03F7BC4305FA03FCFA
:100C20004CEA040491F803C0BCF1280F05D100F18F
:100C3000080C08FA0CF8C2F8148091F803C0BCF153
:100C4000480F07D100F1080C4FF0010808FA0CF822
:100C5000C2F81080401C0828CED35460BDE8F08153
:100C60002DE9F04705460E46174698461C48D0F831
:100C70000D04B0F5005F14D34FF0000908E01849E7
:100C8000D1F8050401F04BFA81464846FFF709FB0D
:100C90001349D1F8050401F036FA0028EFD0BDE879
:100CA000F0871020FFF7CEFA044625606660781BB7
:100CB000401CA060A8EB0600401CE0600848D0F88B
:100CC0000D04D4E9021201FB02000549C1F80D042C
:100CD000D1F80504214601F03BFA00BFDFE7000030
:100CE0008400002070474FF47A71484300BF011E12
:100CF000A0F10100FBD1704710B5029C10BD7047F8
:100D000010B54FF480610D48FFF723FD00200B491B
:100D100081F80404C1F8000401F0EAF90749C1F8B8
:100D200005040020C1F80904C1F80D04C1F811043C
:100D300001F0A8F800F058FF10BD0000840000206A
:100D400070B52348D0F8050400B970BD00242048D0
:100D5000D0F80D04B0F5005F17D33F237F220021A8
:100D6000084600F037F808E01949D1F8050401F009
:100D7000D6F904462046FFF794FA1549D1F8050440
:100D800001F0C1F90028EFD01CE014E01049D1F8BF
:100D9000050401F0C4F90446E668656835446B1E35
:100DA000A668256835446A1ED4E9000100F012F8EF
:100DB0002046FFF776FA0649D1F8050401F0A3F9B9
:100DC0000028E3D000200249C1F80D0400BFBCE7B1
:100DD000840000202DE9F04F87B004468846154670
:100DE00099462148006840B3281B00F1010A4FEAE8
:100DF000E8064FEAE907B81B401C0690069A0AFB72
:100E000002F0FFF71FFA0590802301221749CDE970
:100E10000257CDE90046059801F022FC83464B4677
:100E20002A46414600902046DFF83CC0DCF800C06E
:100E3000E0470598FFF735FA13E046460FE02746EE
:100E40000AE0F010094901EBC010C25D3146384696
:100E5000074B1B6898477F1CAF42F2DD761C4E455E
:100E6000EDDD07B0BDE8F08F180000208400002001
:100E70001C0000202DE9F041054616461F462C4671
:100E8000C4E90A672046616C8847164890F8040454
:100E900090B1D4F804C0D4F80C80C444ACF1010380
:100EA000D4F800C0D4F80880C444ACF10102D4E9FD
:100EB0000001FFF78FFF11E0D4F804C0D4F80C80D4
:100EC000C444ACF10103D4F800C0D4F80880C44491
:100ED000ACF10102D4E90001FFF7C2FE0020BDE839
:100EE000F08100008400002070B505464820FFF71F
:100EF000A9F9044600BF00BF482229462046FFF753
:100F0000B9FB207C10B101280ED106E00848E0634F
:100F1000084820640848606407E00848E06308481F
:100F200020640848606400E000BF00BF204670BD38
:100F30000D2400085F260008D5210008D9210008EB
:100F40005D260008C92100082DE9F04105462C4620
:100F50002046E16B8847104890F8040460B1E768C8
:100F600066683E44731EA76826683E44721ED4E934
:100F70000001FFF72FFF0BE0E76866683E44731E31
:100F8000A76826683E44721ED4E90001FFF768FE98
:100F90000020BDE8F0810000840000200146002010
:100FA000704700BFFEE770B502460024002500230D
:100FB0000020958A138B1B0445EA030626F07F4424
:100FC00004EA01068E4201D1012000E0002070BD3C
:100FD00021B1028842F00102028004E002884FF64B
:100FE000FE731A400280704710B504460B488442D5
:100FF00009D10121480500F0DFF800214FF400106D
:1010000000F0DAF808E00121880500F0D5F80021A9
:101010004FF4800000F0D0F810BD000000540040F4
:1010200021B1028842F48072028004E002884FF607
:10103000FF631A400280704721B1028842F40072B7
:10104000028004E002884FF6FF531A400280704786
:101050000CB50246002000230193009300920B0F71
:10106000019321F07F41019B1BB1009B143300933E
:1010700003E0090C009B18330093009B1B680B4096
:101080000BB1012000E000200CBD00002DE9F04371
:1010900085B004460D460026B1460427DFF8CC8013
:1010A000A6884FF6C0700640684600F0A5F8DDF847
:1010B00008802F48B8FBF0F01FFA80F946EA0906CD
:1010C000A68020884FF6FE7108402080002629491E
:1010D000286888420CD828684000B8FBF0F087B236
:1010E000042F00DA04273E4309F10100208427E0A1
:1010F000E8884BF6FF71884206D1286800EB400073
:10110000B8FBF0F087B209E0286800EBC00101EB02
:101110000010B8FBF0F087B247F48047C7F30B002C
:1011200008B947F0010747F4004006434FF49670B2
:1011300009FB00F04FF47A7190FBF1F0401C208421
:10114000A683208840F00100208026884FF6F530E5
:101150000640A8886989084306432680A88929890A
:101160000843208105B0BDE8F083000000127A003A
:1011700040420F00A086010012B141F0010102E0DF
:101180004FF6FE731940018270470182704700BF1D
:10119000FEE770477047000029B1064AD269024352
:1011A000044BDA6104E0034AD2698243014BDA61FD
:1011B000704700000010024029B1064A126902433C
:1011C000044B1A6104E0034A12698243014B1A611D
:1011D000704700000010024029B1064A926902439C
:1011E000044B9A6104E0034A92698243014B9A617D
:1011F000704700000010024030B50021002200249A
:1012000000232D4D6D6805F00C0121B1042905D096
:10121000082923D105E0294D056022E0274D05600E
:101220001FE0254D6D6805F47012234D6D6805F4BF
:101230008034022505EB92421CB9214D55430560CF
:101240000BE01D4D6D6805F400351DB11C4D554377
:10125000056002E0194D5543056002E0174D056039
:1012600000BF00BF144D6D6805F0F0010909154D70
:101270006B5C0568DD4045600F4D6D6805F4E0610D
:10128000090A104D6B5C4568DD4085600A4D6D684C
:1012900005F46051C90A0B4D6B5C4568DD40C560C3
:1012A000054D6D6805F44041890B074D6B5CC568C1
:1012B000B5FBF3F5056130BD0010024000127A0065
:1012C00000093D0004000020140000202DE9FE4F1D
:1012D00004460D4616461F46DDF830A0B44201DA3A
:1012E000204600E030468046B44201DD204600E062
:1012F00030460290BD4201DA284600E038464FEA07
:10130000E00BBD4201DD284600E03846C0100190E8
:10131000D9461EE009F1B001C8B201F01BFA08F08D
:101320000F0001F017FA102141EA2811C8B201F0AC
:1013300011FACDF8008006E01AF8010B01F011FA5D
:101340000098401C0090029900988842F4DD09F151
:10135000010901988145DDDDBDE8FE8F70B50024EF
:1013600013E004F1B001C8B201F0F4F9002001F07B
:10137000F1F9102001F0EEF9002503E0002001F062
:10138000F0F96D1C802DF9D3641C082CE9D370BDD5
:1013900010B500F0EDFE642001F010FAAE2001F06F
:1013A000D9F9202001F0D6F9102001F0D3F9B020AE
:1013B00001F0D0F9C82001F0CDF9002001F0CAF900
:1013C000102001F0C7F9402001F0C4F9812001F09C
:1013D000C1F9FF2001F0BEF9A12001F0BBF9A62060
:1013E00001F0B8F9A82001F0B5F93F2001F0B2F9F9
:1013F000A42001F0AFF9D32001F0ACF9002001F0F6
:10140000A9F9D52001F0A6F9F02001F0A3F9D9201F
:1014100001F0A0F9222001F09DF9DA2001F09AF9FB
:10142000122001F097F9DB2001F094F9202001F05F
:1014300091F98D2001F08EF9142001F08BF9AF2085
:1014400001F088F910BD704710B500F001F810BD2B
:101450000CB50020019000903348006840F48030C3
:101460003149086000BF3048006800F40030009047
:101470000198401C0190009818B90198B0F5A06F30
:10148000F1D12948006800F4003010B1012000902B
:1014900001E0002000900098012843D12348006813
:1014A00040F01000214908600846006820F0030061
:1014B00008600846006840F0020008601A4840686A
:1014C000194948600846406848600846406840F44A
:1014D000806048600846406820F47C1048600846F8
:1014E000406840F4E81048600846006840F08070AA
:1014F000086000BF0C48006800F000700028F9D0B8
:101500000948406820F003000749486008464068E1
:1015100040F00200486000BF0348406800F00C0043
:101520000828F9D10CBD0000001002400020024044
:10153000042808D14FF0E021096941F004014FF07F
:10154000E022116107E04FF0E021096921F0040178
:101550004FF0E022116170477047000010B513484A
:10156000006840F0010011490860084640681049D1
:1015700008400E494860084600680E4908400B497B
:1015800008600846006820F480200860084640682B
:1015900020F4FE0048604FF41F008860FFF754FFFE
:1015A0004FF000600449086010BD000000100240C8
:1015B0000000FFF8FFFFF6FE08ED00E000BFFEE7C9
:1015C000F0B5044617461E685A689D68944205D2D5
:1015D000A94203D2002C01DB002901DA0020F0BD72
:1015E0000C48D0F814C0006A081A0CFB0040DFF861
:1015F00024C0DCF81CC0A0EB0C00DFF818C0DCF83D
:1016000010C01CF8000001FB026C0CF80400002064
:10161000E5E70000540000202DE9F04F044617468E
:101620005E68D3F80880B44205D2414503D2002C4D
:1016300001DB002902DA0120BDE8F08FCD1005FBA7
:1016400006451868425D0FB1012000E00020864683
:101650000846CD1701EB5575ED10A1EBC50542FA13
:1016600005F505F0010C8CF0010989EA0E09B9F1C4
:10167000000F0FD00D464FEAE17901EB59794FEA9F
:10168000E909A1EBC90A4FF0010909FA0AF922EAAE
:1016900009090EE008464FEAE17901EB59794FEA72
:1016A000E909A1EBC90A4FF0010909FA0AF949EA67
:1016B00002094FEAE10B0BFB064BD3F800A00AF836
:1016C0000B900020B8E72DE9F047044617465D6807
:1016D000D3F808C0AC4205D2614503D2002C01DB2F
:1016E000002902DA0120BDE8F087CA1002FB05429A
:1016F0001868865C7FB90A464FEAE17801EB5878B2
:101700004FEAE808A1EBC8094FF0010808FA09F808
:1017100026EA08080EE008464FEAE17801EB58781F
:101720004FEAE808A1EBC8094FF0010808FA09F8E8
:1017300048EA06084FEAE10A0AFB054AD3F8009096
:1017400009F80A800020CEE7F8B5044615461E6861
:101750005A689F68944205D2B94203D2002C01DB3B
:10176000002901DA2846F8BD01FB0260005D009007
:101770009DF8000001FB026C0CF804000020F2E769
:101780002DE9F041044694461D685A689E689442CB
:1017900005D2B14203D2002C01DB002902DA00207D
:1017A000BDE8F0810846CF1701EB5777FF10A1EB9A
:1017B000C708012707FA08F74FEAE10808FB0258B3
:1017C00018F8048047EA08074FEAE10808FB0258C6
:1017D00008F804700020E3E72DE9F8470446904636
:1017E0001F685D68D3F808C0AC4205D2614503D2DA
:1017F000002C01DB002902DA0020BDE8F887C810C0
:1018000000FB0570005D00900E464FEAE17901EBA8
:1018100059794FEAE909A1EBC90A9DF8009049FA04
:101820000AF909F0010989F00109B9F1000F15D190
:101830000A464FEAE17901EB59794FEAE909A1EB50
:10184000C90A4FF0010909FA0AF99DF800A049EA0E
:101850000A0909F0FF09CDF8009012E008464FEAA6
:10186000E17901EB59794FEAE909A1EBC90A4FF097
:10187000010909FA0AF99DF800A02AEA090ACDF837
:1018800000A09DF8000001FB057210550020B4E790
:101890002DE9F041044617461D685A689E68944237
:1018A00005D2B14203D2002C01DB002902DA01206B
:1018B000BDE8F08108464FEAE17C01EB5C7C4FEA31
:1018C000EC0CA1EBCC084FF0010C0CFA08FC4FEA31
:1018D000E10808FB025818F8048028EA0C0C4FEACB
:1018E000E10808FB025808F804C00020E0E7F0B562
:1018F00004461E685F689D68BC4205D2A94203D2B7
:10190000002C01DB002901DA1046F0BD01FB056067
:10191000005D10B901FB056002550020F5E70000ED
:1019200010B5B02203490448FEF7A4FE0120034984
:10193000087010BD4C0500209C04002050000020C1
:101940002DE9F04F8BB082468D48006830B18C494C
:101950000868FEF7A6FC0020894908605046FEF79B
:10196000E3FD06468648006A854948600020886095
:1019700004213046FEF752FC074604213046FEF7AC
:101980004DFC804604213046FEF748FC0546042104
:101990003046FEF743FC8346B000FEF753FC0A9046
:1019A000B000FEF74FFC8146002486E0002009903D
:1019B00008901AF904107248D0F8AC0008AB09AAD4
:1019C000D0F80CC06E482830E04700200790069001
:1019D0000590049004A805A906AA07ABCDE900323A
:1019E000CDE902106648436A1AF90410426AD0F839
:1019F000AC00D0F810C062482830E047079905983D
:101A0000401A45F8240006990498401A4BF824001F
:101A100055F82400B8B904A805A906AA07ABCDE972
:101A20000032CDE902105648436A426AD0F8AC0051
:101A30006821D0F810C052482830E047079905982F
:101A4000401A45F82400099801F08AF901904C48A1
:101A5000416A019801F0B0F9029001F035F8039065
:101A600001F062F90A9941F82400089801F078F928
:101A700001904348416A019801F09EF9029001F0FB
:101A800023F8039001F050F949F824003C4880689D
:101A900055F8241008443A4988603CB1601E57F854
:101AA000201055F82000084447F824003448006905
:101AB0000699084448F82400641CB442FFF476AF49
:101AC0002F4989682E4A526801FB02F00121FEF776
:101AD000A5FB2B49086000243AE00020099064B17E
:101AE00059F8240058F82410254A926801FB020096
:101AF00057F82410084409900BE059F8240058F8CE
:101B000024101F4A926801FB020057F82410084471
:101B100009901AF904101A48406A194A526A184B77
:101B20009B68CDE90032CDE902015BF8243055F81D
:101B300024201348D0F800E009980EEB000110486B
:101B4000D0F8AC00D0F814C00D482830E047641C31
:101B5000B442C2D33846FEF7A4FB4046FEF7A1FBD1
:101B60002846FEF79EFB5846FEF79BFB0A98FEF7B9
:101B700098FB4846FEF795FB01480BB0BDE8F08F97
:101B80004C0500202DE9F04188B005460E460024A2
:101B9000002700BF04A805A906AA07ABCDE90032BB
:101BA000CDE902100F48436A426A2046641C315650
:101BB0000C48D0F8AC00D0F810C00A482830E047F4
:101BC00007990598401A07443046FEF7ADFCA0423D
:101BD00001D9AF42DED3AF4200D3641E204608B025
:101BE000BDE8F0814C05002070B500202D49087734
:101BF000182008622C48C1F8AC000846007F2B4929
:101C000051F820002749C1F8A8000846D0F8A810CC
:101C1000D0F8AC00002203682248283098472149B8
:101C2000086A01F0B5F804461E48D0F8AC00214619
:101C300042681C48283090471A4948620846D0F844
:101C4000AC0001F118031A1F1031846801F118006B
:101C5000A0471449086901F083F806461148416A13
:101C6000304601F0A9F8054600F02EFF044601F0C9
:101C70005BF80C490861486901F072F806460948AA
:101C8000416A304601F098F8054600F01DFF044611
:101C900001F04AF803494861B0220548FEF7EAFC22
:101CA00070BD00004C050020340000204C000020D6
:101CB0009C04002010B50F480078C8B10E48006899
:101CC00030B10D490868FEF7ECFA00200A490860B7
:101CD000B0220A490848FEF7CDFC0749087F00F00A
:101CE0005FF80549086A00F00BF800200149087008
:101CF00010BD0000500000204C0500209C04002076
:101D00002DE9F04106460820234908622348C1F81E
:101D1000AC00087F00F044F81F49086A01F038F869
:101D200004461D48D0F8AC00214642681A482830C5
:101D30009047194948620846D0F8AC0001F11803F1
:101D40001A1F1031846801F11800A0471249086970
:101D500001F006F807461048416A384601F02CF8B1
:101D6000054600F0B1FE044600F0DEFF0A490861B6
:101D7000486900F0F5FF07460748416A384601F018
:101D80001BF8054600F0A0FE044600F0CDFF024916
:101D90004861BDE8F08100004C05002034000020BF
:101DA0002DE9F04104462C482C49C1F8AC007CB91F
:101DB0002B4850F82400C1F8A8000846D0F8A81015
:101DC000D0F8AC000022036824482830984701E08E
:101DD000BDE8F08100BF214804770146086A00F0A1
:101DE000D7FF05461D48D0F8AC00294642681B487D
:101DF00028309047194948620846D0F8AC0001F1F4
:101E000018031A1F1031856801F11800A8471349FB
:101E1000086900F0A5FF07461048416A384600F0FF
:101E2000CBFF064600F050FE054600F07DFF0B4953
:101E30000861486900F094FF07460848416A38463F
:101E400000F0BAFF064600F03FFE054600F06CFFCA
:101E50000249486100BFBBE7340000204C05002068
:101E60004C00002010B52C2203490448FEF702FC68
:101E700001200349087010BD54000020FC0500201B
:101E8000800000206420084988604AF64440C86009
:101E9000FF200870032048600020086100210248EC
:101EA0008161416100207047540000202DE9F05FFE
:101EB00005460E4617469846DDE90A4ABAF1000F74
:101EC0000AD0BAF1010F08D0BAF1020F03D0BAF16B
:101ED000070F7CD117E000BF00BFB14610E0AB4652
:101EE0000AE051480278514850F82AC02346494632
:101EF0005846E0470BF1010BBB45F2DD09F1010942
:101F0000C145ECDD8BE0BAF1070F04D1464800690A
:101F100008B9012000E000208346BBF1000F45D046
:101F20006068A84201DC606804E0002D01DC00204C
:101F300000E028463C49C861A068B04201DCA068C6
:101F400004E0002E01DC002000E030463649086243
:101F50006068B84201DC606804E0002F01DC00200A
:101F600000E038463049C969401A401C2E49486192
:101F70004862A068404501DCA06805E0B8F1000FA8
:101F800001DC002000E040462749096A401A401C55
:101F9000254988618862496A234A926A01FB02F0F6
:101FA000FEF750F92049086100BFFEE7B1461EE088
:101FB0001D4BD3F810C01B6AA9EB030E1A4B5B69CB
:101FC0000EFB03C3DFF860C0DCF81CC000E025E0B6
:101FD000A5EB0C0C03EB0C01D4E9003C09FB0C3322
:101FE00058197B1B5A1CFEF7BEFA09F10109C145BD
:101FF000DEDDBBF1000F10D000200B49C8610021CD
:10200000094801628162816141624161014608695A
:10201000FEF747F900200449086100E000BF00BF57
:102020000020BDE8F09F0000540000201436000896
:102030002DE9F0478046894615461E46DDE908A48D
:10204000072C01D100BFFEE7474612E0194802788D
:10205000194850F824C0534649463846E0471548C9
:102060000278154850F824C0534631463846E047B8
:102070007F1CAF42EADD09F1010712E00D4802784A
:102080000D4850F824C0534639464046E0470948B9
:102090000278094850F824C0534639462846E0479C
:1020A0007F1CB742EADB072C01D100BFFEE700200E
:1020B000BDE8F087540000201436000810B506482B
:1020C000007838B12C2205490548FEF7D3FA0020E4
:1020D0000149087010BD000080000020FC050020B0
:1020E000540000200149087070470000540000208F
:1020F00070B505460C20FEF7A5F80446A4606460A0
:102100002560204670BD0146D1E90102904204D10C
:102110004868884201D1012070470020FCE770B573
:102120000446D4E90101884204D16068A04201D18B
:10213000206870BDA568A0680668A06880684460D3
:10214000A0688068A0602846FEF7ABF83046F0E74C
:1021500070B505460E460C20FEF774F8044626605E
:10216000A868A0606560A8684460AC60204670BD47
:1021700000B585B0114B0FCBCDE90323CDE90101AB
:102180000E4810300068009001210820FFF724F865
:1021900069460B48FEF7D9FC01218805FEF7FCFFD4
:1021A0000848FEF721FF01210648FEF711FF01A9AB
:1021B0000448FEF76BFF05B000BD00009C3000082E
:1021C000000C01400058004010B50446204600F0C5
:1021D00003F810BD704700002DE9F0438BB00446B2
:1021E000202103A8FEF7D7FAFFF79AFBFFF73AFE84
:1021F000A07FFFF777FF02208249CDE90010E66853
:1022000065683544AB1EA66825683544AA1E656816
:10221000691C2568681CFFF749FEA069FFF770FD7F
:10222000D4E90A21104600F089FC05462B4676A227
:10223000202103A8FEF75CF803A9A068FFF7A2FC21
:1022400003A900220A549DF80C0000287ED003A8A0
:10225000FFF776FB05464FF00008A169E068401AD9
:10226000616801EB60003F2801DB3F200FE0A169BE
:10227000E068401A616801EB6000002801DC002082
:1022800005E0A169E068401A616801EB600006465C
:10229000607F012802D0022838D11BE0A169E068E4
:1022A000401A216801EB60007F2801DB7F200FE0EE
:1022B000A169E068401A216801EB6000002801DC98
:1022C000002005E0A169E068401A216801EB600088
:1022D00080461CE0A068A968401A216801EB6000F4
:1022E0007F2801DB7F200FE0A068A968401A2168E1
:1022F00001EB6000002801DC002005E0A068A9686F
:10230000401A216801EB6000804600E000BF00BF7A
:10231000207F02902F6800204FE0002249E008EB68
:10232000020306EB000C4FEAEC0CDFF8D890D9F86A
:1023300004900CFB09313B78802B1DDD33184FEAEC
:10234000E37C03EB5C7C4FEAEC0C00E03CE0A3EBAD
:10235000CC094FF0010C0CFA09FCDFF8A890D9F871
:10236000009019F801904CEA090CDFF89890D9F820
:10237000009009F801C01AE033184FEAE37C03EB40
:102380005C7C4FEAEC0CA3EBCC094FF0010C0CFA8F
:1023900009FCDFF87090D9F8009019F8019029EA4B
:1023A0000C09DFF860C0DCF800C00CF80190521C8A
:1023B0007F1CA9689142B2D8401C6968814202D949
:1023C000E1688142A9D800BF94F8380090B1FF209D
:1023D000FFF788FE08200B49CDE90010E668656824
:1023E00035446B1EA668256835446A1ED4E9000191
:1023F000FFF71EFEFFF75EFCFFF760FE0BB0BDE8C7
:10240000F083000028000020256400002DE9F04F33
:1024100085B0EB4604468F4A07CACBE90312CBF8D6
:102420000800FFF71FFDFFF77BFAA069FFF768FCC4
:102430006169A068FFF7A6FB06464FF00009002E71
:1024400074D006F10B0020F00700ADEB000DE9465B
:10245000324648466169FEF7C5F9002009F80600D2
:102460004846FFF76DFA0546A169E068401A216801
:1024700001EB60007F2801DB7F200FE0A169E068AD
:10248000401A216801EB6000002801DC002005E013
:10249000A169E068401A216801EB60008246A169E9
:1024A000E068401A616801EB60003F2801DB3F20D3
:1024B0000FE0A169E068401A616801EB6000002844
:1024C00001DC002005E0A169E068401A616801EBC9
:1024D00060000746607F012802D0022839D11BE046
:1024E000A169E068401A216801EB60007F2801DBE8
:1024F0007F200FE0A169E068401A216801EB6000CD
:10250000002801DC002005E0A169E068401A21688C
:1025100001EB600082461DE0A068A968401A2168AE
:1025200001EB60007F2802DB7F2010E071E0A068F3
:10253000A968401A216801EB6000002801DC002036
:1025400005E0A068A968401A216801EB6000824696
:1025500000E000BF00BF207FCBF80400D5F800806A
:1025600000204FE0002249E00AEB020307EB000CD9
:102570004FEAEC0CDFF8E0E0DEF804E00CFB0E3193
:1025800098F80030802B1BDD3B184FEAE37C03EB0F
:102590005C7C4FEAEC0CA3EBCC0E4FF0010C0CFA78
:1025A0000EFCDFF8B4E0DEF800E01EF801E04CEAD3
:1025B0000E0CDFF8A4E0DEF800E00EF801C01AE02F
:1025C0003B184FEAE37C03EB5C7C4FEAEC0CA3EB9B
:1025D000CC0E4FF0010C0CFA0EFCDFF87CE0DEF8BC
:1025E00000E01EF801E02EEA0C0EDFF86CC0DCF80B
:1025F00000C00CF801E0521C08F10108A9689142E2
:10260000B2D8401C6968814202D9E1688142A9D8E8
:1026100000BF94F83800A0B1FF20FFF763FD082049
:102620000D4982B0CDE90010E76865683D446B1E36
:10263000A76825683D446A1ED4E90001FFF7F8FC4D
:1026400002B0FFF73BFDFFF735FBDD4605B0BDE807
:10265000F08F0000B030000828000020704770475D
:102660002DE9F84F04460D4616469B460A9F04B1D5
:1026700015B90020BDE8F88F002F08DB0C98002862
:1026800005DB0B98002802DB0D98002801DA0020FA
:10269000F0E70C98C01B401C00FB06F8A146DDF8D3
:1026A0002CA00CE00BFB0A707043009000982918D6
:1026B00042464846FDF79CFFC1440AF1010A0D98C5
:1026C0008245EFD92046D5E770B504460D4600BFD8
:1026D0004FF400311C48FEF7BBFC0028F8D1012163
:1026E0001948FEF79DFC00BF18491748FEF75BFC30
:1026F0000028F9D0002278211348FEF73DFD00BFE5
:1027000013491148FEF74FFC0028F9D021460E4826
:10271000FEF73BFD00BF0E49891C0B48FEF743FC4A
:102720000028F8D029460848FEF72FFD00BF0849C9
:10273000891C0548FEF737FC0028F8D00121024823
:10274000FEF77AFC70BD0000005800400100030055
:102750008200070010B5044621460020FFF7B4FFB1
:1027600010BD10B5044621464020FFF7ADFF10BD57
:1027700030380A2801D2012070470020704700003D
:1027800010B504466FF00400FEF7D2FEE11704EB2B
:102790005171C1F3C701074A11701046007800EB70
:1027A0004001C1EBC0104FF6FF7101EAC0000249C1
:1027B000088010BD00000020020000200146114AE0
:1027C00012884A434FF0E0235A6100229A611A4668
:1027D000126942F001021A6100BF4FF0E022106955
:1027E00000F001021AB100F48032002AF5D04FF057
:1027F000E022126922F001024FF0E0231A61002268
:102800009A6170470200002096B04820FFF7B8FF99
:10281000FEF7BEFDFEF78EF90A20FFF7CFFFFEF7A9
:102820009DFDFEF76DFA482104A8FDF7B4FF04A84A
:10283000FEF7B4FB00208DF82000049005200590E1
:102840000C2007904620069000210C910D9100204D
:102850005A49CDE910018DF82100FF208DF82C0098
:1028600057A0099008200A9001208DF82D008DF8BE
:10287000480000208DF82E0000215348CDE90E10AD
:1028800004A8FEF731FB074650A009900799059868
:102890000844059004A8FEF727FB80464DA0099048
:1028A000079905980844059004A8FEF71DFB81468A
:1028B00049A00990079905980844059004A8FEF7D7
:1028C00013FB82463846FEF73FFB4046FEF73CFBD3
:1028D0004846FEF739FB5046FEF736FB01208DF8DF
:1028E00020000699049808440490052005900C20C7
:1028F00007901E20069004A8FEF7F6FA83460020F3
:102900003749CDE90E01079905980844059004A8B8
:10291000FEF7EAFA039000213248CDE90E1007993C
:1029200005980844059004A8FEF7DEFA02900021FD
:102930002D48CDE90E10079905980844059004A884
:10294000FEF7D2FA01905846FEF7FEFA0398FEF71A
:10295000FBFA0298FEF7F8FA0198FEF7F5FAFEF78F
:10296000EFF92AE0002426E0204600F016F905469B
:102970002A460B465846FEF77DFA204600F00DF930
:1029800005462A460B460398FEF774FA204600F0E7
:1029900004F905462A460B460298FEF76BFA2046D4
:1029A00000F0FBF805462A460B460198FEF762FA4E
:1029B000FEF7C6F9641C802CD6DBD3E7000070401C
:1029C00073697A653A00000000206040766F6C3AC7
:1029D0000000000069703A0073706565643A000099
:1029E0000000224000002440000026402DE9F04174
:1029F0008C4606ACF0CC41684FF00008C4F800806B
:102A0000C5F8008091F80180C6F8008091F8008038
:102A1000C7F80080BDE8F08130B54468A1F1200519
:102A200004EBC5046578156000251D6030BD30B528
:102A30001C46436800250D60156030BD10B5034687
:102A400014460A465960002010BD2DE9F04F054696
:102A500091469E46DDE90AC80C9F099C6868A7F16B
:102A6000200200EBC20046684FF0000A21E000237C
:102A700018E0002210E016F802B04BFA03FB0BF04E
:102A8000010BBBF1000F02D14FF0000B01E04FF042
:102A9000FF0B01F802B0521C90F801B09345EADC3C
:102AA00021445B1C082BE4DB427816440AF1080A37
:102AB000214402785245DADCBDE8F08F02460B462D
:102AC00051684FF07E50704770B5054600F040FAEF
:102AD00004460146284600F06BFA15F0004F4FF00F
:102AE0007F410ED0B0F13F4F28BFB1EB400F0ED267
:102AF000B0F17C5F1DDDB1EB400F1AD313E004464B
:102B000017E0B0F13F4F08D9B1EB400F05D34FF0BC
:102B10007E51204600F04CFAF1E7B0F17C5F08DB13
:102B2000B1EB400F05D34FF07E51204600F09AF8EC
:102B3000E5E7284664F31E0070BD00004FEA41033C
:102B40004FEA5353A3F58063D3F11E03C8BFD3F1FB
:102B5000210C0CDD4FF0004242EAC12242EA505201
:102B600032FA03FC8CEAE17CACEBE1707047102B8D
:102B7000C4BF0020704703F5787CBCF1FF3F04D050
:102B80006FF0004282EA2100704770B500F01CF837
:102B90004992248000207047F2E710F0004248BFBD
:102BA0004042B0FA80F310FA03F10AD0C3F11D03DA
:102BB00003F580634FEA415002EB035202EBD1214F
:102BC00070474FF0000070470EF1020E2EF0030E1A
:102BD0005EF8046B364205D4012A43EB030515F574
:102BE000001F12D8012841EB010C1CF5001F0CD866
:102BF0000ED14FEAD17C15F5001F0CEB4C0C0CF1FB
:102C0000020C08BF4CEBD37C04E04FF0080C01E051
:102C10004FEAD37C0CEB4C0526FA05F606F00706C6
:102C2000B6F1040C06D20EEB860CBDE870404CF0F9
:102C3000010C6047DFE80CF0090B02024FF0004185
:102C40004FF00000A1F5002170BD19461046012883
:102C500051EB010418BFD4F5001484BF002001F02B
:102C6000004170BD90EA010F48BF81F0004100F1C2
:102C7000A681421A3CBF801A89184FEAD0524FF001
:102C80007F4C1CEA410FA2EBD15318BF9CEA026FA4
:102C900000F03B804FF0004C4CEA00204CEA012150
:102CA00021FA03FC10EB0C0C1ED202F1FF325FEA9A
:102CB0001C2040EBC25038BF70471CF07F0F4FEA1A
:102CC000400C18BFBCF17F4F38BF7047C3F12003E1
:102CD000994008BF20F00100BCF17F4F38BF70471A
:102CE000A0F1C04000F02FB94FEA3C00000A40EBD1
:102CF000C25028BF1CF0FF0F4FEA400CE6D018BFAF
:102D0000BCF17F4F38BF7047EAE79CEA026F05D0FD
:102D100010EA5C0F08BF00F00040704710B500F0EB
:102D2000CCF800BF64FBBE3E41000B0ED3F19E0207
:102D300008D950F400034FEA032323FA02F048BFF6
:102D40004042704710B500F0B8F800BF49922480A7
:102D5000002070476FF0004282EA200070470000B8
:102D600010F0004148BF4042B0FA80F310FA03F27D
:102D7000C3F19D030BD051EAC35101EB122053065E
:102D800038BF704700F1010008BF20F00100704714
:102D9000B0FA80F310FA03F2C3F19D030AD0D9050B
:102DA00001EB1220530638BF704700F1010008BF45
:102DB00020F00100704700004FF47F0C1CEAD01295
:102DC0001EBF1CEAD11392EA0C0F93EA0C0F00F01D
:102DD000478090EA010F48BF42F480724FF0004CE8
:102DE0004CEA00204CEA012102EB0302A0FB011394
:102DF000A2F50002002918BF43F001035B0028BFC1
:102E00004FEA330342EB22425FEA132C4CEBC250F1
:102E10002EBFBCEB436FB2F57C0F70474FEA036CDB
:102E2000BCF1004F08BF20F00100B2F57C0F38BFA5
:102E300070470BD582F0FF0212F5803FC8BF704784
:102E400000F1C040D8BF00F00040704700F5000C12
:102E50005FEA4C0C48BF7047B0F1C04000F073B857
:102E600090EA010F0CEAD11348BF42F48072624528
:102E700038BF634504D280EA010000F0004070478B
:102E800010B500F01AF800BF8900013E00F007B845
:102E900000F009B85FEA410C5FEA1C6C08D080EAD8
:102EA000010000F050B85FEA400C5FEA1C6CF6D1FC
:102EB0004FF00040A0F5800070470EF1020E2EF09A
:102EC000030E5EF8044B244204D44FEA4102B2F1EF
:102ED0007F4F11D84FEA4003B3F17F4F0CD80ED18A
:102EE0004FEAD07CB2F17F4F0CEB4C0C0CF1020C92
:102EF00008BF4CEBD17C04E04FF0080C01E04FEA36
:102F0000D17C0CEB4C0324FA03F404F00704B4F175
:102F1000040C06D20EEB840CBDE810404CF0010C02
:102F20006047DFE80CF0070802024FF00040A0F510
:102F3000800010BD0846420018BFD2F1807288BFE1
:102F400000F0004010BDFF2141EAD050C00570479D
:102F50005FEA400C5FEA1C6CBCF17F0314D4D3F130
:102F6000170240F31C804FF0010C0CFA02FCACF18C
:102F700001030340B3EB5C0220EA030008BF10EA40
:102F80000C0F88BF60447047B3F1FF3F28BF5FEA72
:102F9000002C00F0004088BF40F07E507047BCF12C
:102FA000FF0FB8BF704710B5FFF787FF40DBB6BE15
:102FB00090EA010F48BF81F000413FF55AAE421A36
:102FC00004D882F00042A0EB020011444FEAD05234
:102FD0004FF07F4C1CEA410FA2EBD15318BF9CEA83
:102FE000026F4AD04FF0004C4CEA00204CEA01211D
:102FF00021FA03FCB0EB0C0C0FD412F0FE0F36D00C
:103000005FEA4C001DD5001240EBC25038BF70473C
:103010001CF03F0F18BF70470BE0A2F101025FEAFE
:103020001C2040EBC25038BF70471CF07F0F18BF08
:103030007047C3F12003994014BF401E20F00100E7
:10304000704780084FEA122308BF7047B0FA80FC2F
:10305000A2EB0C02CCF1280C60FA0CF093EA122FD0
:1030600004BF00EBC25070474FEAC3707047130AA9
:103070005FEADC1008BF7047F6E79CEA026F04D0F5
:1030800010EA5C0F08BF0020704710B5FFF715FF6E
:1030900040DFF63E81F0004070470000801A0600D5
:1030A0000000FFBF3000000400400000000C031CC3
:1030B0008400002080000000400000008400002008
:1030C000800000004000000084000020800000001C
:1030D000400000000000000000000000002F000081
:1030E00000000700070000147F147F1400242A7FCB
:1030F0002A1223130864620000364955225000004A
:103100000503000000001C224100000041221C00B9
:103110000014083E08140008083E0808000000A03B
:103120006000000808080808000060600000002037
:1031300010080402003E5149453E0000427F400015
:10314000004261514946002141454B31001814129B
:103150007F10002745454539003C4A494930000168
:103160007109050300364949493600064949291EB7
:103170000000363600000000563600000008142219
:103180004100001414141414000041221408000219
:103190000151090600324959513E007C1211127C3E
:1031A000007F49494936003E41414122007F41416B
:1031B000221C007F49494941007F09090901003E5D
:1031C0004149497A007F0808087F0000417F41009B
:1031D000002040413F01007F08142241007F404011
:1031E0004040007F020C027F007F0408107F003EF9
:1031F0004141413E007F09090906003E4151215EDF
:10320000007F091929460046494949310001017FDB
:103210000101003F4040403F001F2040201F003F71
:103220004038403F00631408146300070870080723
:1032300000615149454300007F41410000552A5536
:103240002A55000041417F000004020102040040B1
:1032500040404040000001020400002054545478D3
:10326000007F4844443800384444442000384444F3
:10327000487F00385454541800087E090102001891
:10328000A4A4A47C007F080404780000447D4000CE
:10329000004080847D00007F102844000000417FB2
:1032A0004000007C04180478007C0804047800388E
:1032B0004444443800FC242424180018242418FC16
:1032C000007C0804040800485454542000043F447F
:1032D0004020003C4040207C001C2040201C003C42
:1032E0004030403C004428102844001CA0A0A07C92
:1032F000004464544C44141414141414FF81818148
:1033000081FFFF81818181FFFF81818181FFFF81B9
:10331000818181FF08062000D430000808062100C2
:10332000DA30000808062200E03000080806230012
:10333000E630000808062400EC30000808062500E6
:10334000F230000808062600F830000808062700BA
:10335000FE3000080806280004310008080629008D
:103360000A31000808062A001031000808062B0060
:103370001631000808062C001C31000808062D0034
:103380002231000808062E002831000808062F0008
:103390002E310008080630003431000808063100DC
:1033A0003A310008080632004031000808063300B0
:1033B00046310008080634004C3100080806350084
:1033C0005231000808063600583100080806370058
:1033D0005E3100080806380064310008080639002C
:1033E0006A31000808063A007031000808063B0000
:1033F0007631000808063C007C31000808063D00D4
:103400008231000808063E008831000808063F00A7
:103410008E3100080806400094310008080641007B
:103420009A31000808064200A0310008080643004F
:10343000A631000808064400AC3100080806450023
:10344000B231000808064600B831000808064700F7
:10345000BE31000808064800C431000808064900CB
:10346000CA31000808064A00D031000808064B009F
:10347000D631000808064C00DC31000808064D0073
:10348000E231000808064E00E831000808064F0047
:10349000EE31000808065000F4310008080651001B
:1034A000FA310008080652000032000808065300EE
:1034B00006320008080654000C32000808065500C1
:1034C0001232000808065600183200080806570095
:1034D0001E32000808065800243200080806590069
:1034E0002A32000808065A003032000808065B003D
:1034F0003632000808065C003C32000808065D0011
:103500004232000808065E004832000808065F00E4
:103510004E320008080660005432000808066100B8
:103520005A3200080806620060320008080663008C
:1035300066320008080664006C3200080806650060
:103540007232000808066600783200080806670034
:103550007E32000808066800843200080806690008
:103560008A32000808066A009032000808066B00DC
:103570009632000808066C009C32000808066D00B0
:10358000A232000808066E00A832000808066F0084
:10359000AE32000808067000B43200080806710058
:1035A000BA32000808067200C0320008080673002C
:1035B000C632000808067400CC3200080806750000
:1035C000D232000808067600D832000808067700D4
:1035D000DE32000808067800E432000808067900A8
:1035E000EA32000808067A00F032000808067B007C
:1035F000F632000808067C00FC32000808067D0050
:103600000233000808067E000833000808067F0021
:103610000E3300088117000891180008C71600082B
:1036200049170008EF180008D9170008000000002B
:10363000C115000819160008040000080000000069
:103640000000000200010000100000006C360008BD
:1036500000000020840000006C010008F036000823
:1036600084000020041A0000880100080000000007
:103670000000000001020304010203040607080918
:1036800002040608F90C0008FF0C0008E50C00080D
:10369000E70C0008840000208000000040000000CB
:1036A0003D2A0008BD2A00082F2A0008192A000810
:1036B000ED2900084B2A0008143300080000000020
:1036C000FF000000030000004600000044AC0000C2
:1036D00000000000000000000000000000000000EA
:1036E00000000000000000000000000000000000DA
:0400000508000131BD
:00000001FF
