:020000040800F2
:10000000901A00200102000803250008FB220008C6
:10001000FF240008691B0008D12900080000000027
:100020000000000000000000000000005B28000845
:100030000D1D000800000000892500086D2900083A
:100040001B0200081B0200081B0200081B0200081C
:100050001B0200081B0200081B0200081B0200080C
:100060001B0200081B0200081B0200081B020008FC
:100070001B0200081B0200081B0200081B020008EC
:100080001B0200081B0200081B0200081B020008DC
:100090001B0200081B0200081B0200080F1D0008BD
:1000A0001B0200081B0200081B0200081B020008BC
:1000B0001B0200081B0200081B0200081B020008AC
:1000C0001B0200081B0200081B0200081B0200089C
:1000D0001B0200081B0200081B0200081B0200088C
:1000E0001B0200081B0200081B0200081B0200087C
:1000F0001B0200081B0200081B0200081B0200086C
:100100001B0200081B0200081B0200081B0200085B
:100110001B0200081B0200081B0200081B0200084B
:100120001B0200081B0200081B0200081B0200083B
:1001300000F002F800F054F80AA090E8000C8244A5
:100140008344AAF10107DA4501D100F049F8AFF282
:10015000090EBAE80F0013F0010F18BFFB1A43F0A5
:10016000010318475068000070680000103A24BF6F
:1001700078C878C1FAD8520724BF30C830C144BF0C
:1001800004680C607047000000230024002500264E
:10019000103A28BF78C1FBD8520728BF30C148BFEA
:1001A0000B607047662906F07280642900F0D880E1
:1001B000002070471FB59DE8030000F089FB00F0A8
:1001C0005DFE04000020002105F016FD401C60606B
:1001D0000020002105F026FDE0601FBD10B510BD18
:1001E00000F06DFF1146FFF7E5FF05F0E5FA00F0BE
:1001F0008BFF03B4FFF7F2FF03BC00F0FBFF00002E
:100200000948804709480047FEE7FEE7FEE7FEE7AA
:10021000FEE7FEE7FEE7FEE7FEE7FEE704480549E6
:10022000054A064B7047000071290008310100089B
:1002300090060020901A00209016002090160020B2
:1002400070B5A0FB0140B4F1805170F1000024BFF3
:10025000002070BD204600F007F805001CBF2146B5
:1002600000F09BFA284670BD70B5064600F014FBFE
:10027000056806F10B0020F00704B4429CBF002083
:1002800070BD2B466A68BAB11068A04210D304F161
:10029000080188423CBF5068586007D35168101964
:1002A00041601168091B016058601460101D70BD29
:1002B00013465268002AE7D12146284600F0F4FA96
:1002C0000028DED170BD70B50446051F00F0E4FAC9
:1002D0000068002C14BF446870BD002C18BFAC42ED
:1002E0003CBF20466468F8D301680A18AA4218BFC8
:1002F000456003D12A680546114401602868411908
:10030000A1421CBF6C6070BD6168696021680844CF
:10031000286070BD10B5044600F0B6FA0068005DB4
:1003200000F03E0010BD00000FB47CB50C0009AA1F
:10033000009001D02044401E084B7B446946019048
:10034000089800F074FD05461CB10020694600F0D5
:1003500081FD28467CBC5DF814FB0000210B0000E9
:100360002DE9F0410646002410687529314616A58E
:1003700010D0AFF30080002802DA404213A507E056
:1003800031688A0701D512A502E0490704D511A5F5
:10039000012401E0AFF3008000210A2206F12407C6
:1003A00009E0B0FBF2FCB0FBF2F302FB1C003030C2
:1003B00078541846491C0028F3D123462A46304673
:1003C000BDE8F04100F0C5BA000000002D000000BB
:1003D0002B000000200000002DE9F05F8946044654
:1003E0004FF0000ADFF874B1FB44C0F820A02046AB
:1003F000E1688847002874D0252806D0D4E9012177
:100400009047206A401C2062F1E700265F462046A4
:10041000E16888472028054607DB312D05D2781989
:1004200010F8200C08B10643F1E7B00701D526F01B
:100430000406C4F81CA00027C4F818A02A2D09D06F
:10044000284604F081FF38B304EB8708303DC8F834
:10045000185019E059F8041B204604EB87029161FB
:10046000E1688847012F054618D1E069002820DAA5
:1004700026F020061DE0D8F8180000EB800005EB00
:1004800040003038C8F818002046E1688847054623
:1004900004F05AFF0028EED1012F0AD02E2D08D1EA
:1004A0002046E16888477F1C0546022F46F020065B
:1004B000C4DBA069002803DA404246F00106A061CF
:1004C000F00701D026F010066C2D0BD0682D09D056
:1004D0004C2D39D06A2D35D0742D35D07A2D33D0AE
:1004E00016E038E0E1682F4620468847B8420546C6
:1004F00009D16C2F26D04FF48060E1680643204676
:100500008847054604E06C2F1AD04FF480700643EC
:100510000DB3A5F14100192802D8203546F4006634
:100520004A462946204626604E46FFF73BFE80B1EC
:1005300001280BD0F61D26F0070000F1080956E748
:100540004020E4E78020D8E70020D6E706F1040940
:100550004DE7284652E7206ABDE8F09F006500009D
:1005600010B5431C02E010F8011B71B18107FAD1EC
:100570004FF0013202C88C1A8C4314EAC211F9D030
:10058000C01A0A0603D0C01E10BDC01A10BD0A044E
:1005900001D0801E10BD0902FCD0401E10BD032AF0
:1005A00040F2308010F0030C00F0158011F8013B90
:1005B000BCF1020F624498BF11F801CB00F8013B77
:1005C00038BF11F8013BA2F1040298BF00F801CB3B
:1005D00038BF00F8013B11F0030300F06780083AD0
:1005E000C0F0088051F8043B083A51F804CBA0E869
:1005F0000810F5E7121D5CBF51F8043B40F8043BBE
:10060000AFF30080D20724BF11F8013B11F801CBF2
:1006100048BF11F8012B24BF00F8013B00F801CBC3
:1006200048BF00F8012B7047431A28BF9A427FF653
:10063000B6AF032A1044114440F2268010F0030F95
:100640001EBF11F8013D521E00F8013D10F0030FCE
:100650007FF4F6AF11F0030300F06D80083AC0F0AC
:100660000B8051F8043D083A51F804CD40F8043DA0
:1006700040F804CDFFF7F3BF121D5CBF51F8043DF5
:1006800040F8043DAFF30080D20724BF11F8013DCC
:1006900011F801CD48BF11F8012C24BF00F8013D2D
:1006A00000F801CD48BF00F8012C704710B5203A82
:1006B000C0F00B80B1E81850203AA0E81850B1E81B
:1006C0001850A0E81850BFF4F5AF5FEA027C24BFD1
:1006D000B1E81850A0E8185044BF18C918C0BDE8C8
:1006E00010405FEA827C24BF51F8043B40F8043B91
:1006F00008BF7047D20728BF31F8023B48BF11F846
:10070000012B28BF20F8023B48BF00F8012B70479F
:10071000431A28BF9A427FF6C9AF104410F0030F66
:1007200011441EBF11F8013D521E00F8013D10F0AA
:10073000030F7FF4F6AF103AC0F00A8010B531E92C
:100740001850103A20E91850BFF4F9AFBDE8104036
:10075000530724BF31E9081020E9081044BF51F8BD
:10076000043D40F8043D12F0030F08BF7047D20764
:1007700028BF31F8023D48BF11F8012C28BF20F8EE
:10078000023D48BF00F8012C704702F0FF0343EA26
:10079000032242EA024200F002B84FF000020429AC
:1007A000C0F0128010F0030C00F01B80CCF1040CA0
:1007B000BCF1020F18BF00F8012BA8BF20F8022BD4
:1007C000A1EB0C0100F00DB85FEAC17C24BF00F87A
:1007D000012B00F8012B48BF00F8012B70474FF0A8
:1007E000000200B5134694469646203922BFA0E881
:1007F0000C50A0E80C50B1F12001BFF4F7AF09078D
:1008000028BFA0E80C5048BF0CC05DF804EB89007D
:1008100028BF40F8042B08BF704748BF20F8022BC0
:1008200011F0804F18BF00F8012B704710B5044637
:1008300010F0030F08BF11F0030F40F015804FF0C8
:10084000013E121FC0F20E8051F8043BA3EB0E0CC8
:100850002CEA030C1CEACE1C08BF40F8043BF0D085
:10086000A1F1040102F10402521E08DB11F8013B60
:10087000002B00F8013BF7D11146FFF78EFF204611
:1008800010BD70477047704710B500F0F7FA001DB3
:1008900010BD00BF655300000048704734060020BB
:1008A000704770477047704738B504460A460020C5
:1008B0006946AFF30080002808BF38BD02460099A2
:1008C000204600F0E3FA012038BD012000F0F0BB23
:1008D000F8B5AFF30080054600200C46102000BF9D
:1008E0000646A819A0420DD9324669460020AFF34A
:1008F0000080070008BF00F0DBFB0098A04218BF93
:100900000546C419FFF7C8FF05600746F01D20F033
:1009100007004619284600F00AF8B44208BFF8BD9F
:10092000A21B31463868BDE8F84000F0AFBA00219C
:100930000160C0E9011070471020704710B500F049
:10094000A1FA006810BD10B5044600F09BFA0460DF
:1009500010BD2DE9F0470D4699469246044600F138
:1009600024080168880604D5E06921F0100121609F
:1009700000E00120A84201DD471B00E00027A1693B
:100980007A1902EB0900081AA0612078C00602D487
:100990002046AFF30080002608E0D4E901211AF8D0
:1009A00006009047206A401C761C20624E45F4DB0E
:1009B0002078C0060AD52046AFF3008006E0D4E9CF
:1009C000012130209047206A401C2062381EA7F188
:1009D0000107F4DC07E0D4E9012118F8050090478D
:1009E000206A401C2062281EA5F10105F3DC204688
:1009F000AFF300802078000602D50220BDE8F08722
:100A00000120FBE770472DE9FF4F0C461E464FF0D3
:100A1000FF378BB0D2E90001DDF860800A908A468A
:100A2000C1F30A5505B93D46002108464FF00000C4
:100A3000BAF1000F00F4400005DA00EB80004FF43B
:100A4000400101EA50004FEA9059B9F1010F00DD71
:100A5000B9460A9850EA4A000ED044F61050A5F262
:100A6000FF3545432F14B8F1000F1ED07542291EE3
:100A70001EDDC9F100021CE0B8F1010F4FF00000CB
:100A800001D0302103E0F24305E02154401CB04284
:100A9000FBDB30460022002121540B99C1F808806D
:100AA000C1E900200FB0BDE8F08FBD1B6D1CDEE773
:100AB0004A4600DA694206A800F088FA06AB93E8D5
:100AC000070003AB83E8070050460A9900F0B8FB23
:100AD0008DE80700A0F500501F3800900398002D06
:100AE0000ADD42F21F014A460844002303A903908D
:100AF000684600F021FE09E0A0F500504A461F3884
:100B0000002303A90390684600F02BFE8DE8070040
:100B10000004000C03D04FF0FF30410800E0104605
:100B2000B8F1000F03D00022009215461EE0751E9A
:100B300005D400F0C5F9303262556D1EF9D5B346C3
:100B40000122084302D000227F1C04E020783028D4
:100B500001D100227F1E002A099784D01DE0112DAB
:100B600007DA00F0ADF9303262556D1C50EA01022F
:100B7000F5D1084302D00098C8B10EE00021681EEC
:100B800005E0235C625C63542254401E491C814290
:100B9000F7DBAB46A81B401E0990002004F80B00B1
:100BA0000B98099AC0F80880C0E9002B7AE7112653
:100BB0004FF0000857E72DE9F04F88460446D21D54
:100BC00022F0070191B0D1E90001CDE90A0101F05D
:100BD00001FF02460B98C00F01D02D2007E02068CE
:100BE000810701D52B2002E0202101EAC000032A61
:100BF000099001D0072A05DB03464146204600F054
:100C0000A5F90BE12078800601D5E06900E0062017
:100C1000B8F1650F814606D0B8F1660F18D0B8F16B
:100C2000670F70D131E00020B9F1110F009001DBA6
:100C3000112301E009F101030AAA01A90CA8FFF799
:100C4000E2FEDDE90C70002609F10105834647E06C
:100C500001204B4600904FF000470AAA01A90CA8BA
:100C6000FFF7D1FEDDE90DB00C995D46002610B905
:100C700009F101000D18B9EB050003D4C0F1FF36EE
:100C800009F10105A5EB09002BE0B9F1010F01DA2B
:100C90004FF001090020B9F1110F0090484601DD25
:100CA000112300E003460AAA01A90CA8FFF7ABFE36
:100CB000DDE90C704D4600268346207800070AD4F3
:100CC000AB4500DA5D4601A8012D04DD411911F89C
:100CD000011C302907D04F4502DA17F1040F04DA5E
:100CE000012082460FE06D1EEEE7002F02DCED1BB7
:100CF0003E4403E0781CA84200DD7D1CB81B00F1D7
:100D0000010A4FF000472078000703D4AA4501DB11
:100D10004FF0FF3A0021B7F1004F0DF143088DF875
:100D2000431024D002202B23002F01DA7F422D23F1
:100D30000A21021EA0F1010000DC5FB197FBF1FC6B
:100D400097FBF1F201FB1C7C17460CF1300C08F804
:100D500001CDEEE7A8F1010003702188090501D556
:100D6000452100E06521A0F1010800F8011C099867
:100D70000FA9A1EB0807FF1D00B10120411901EBEC
:100D8000EA70A1693844081A401EA0612078C006A4
:100D900002D42046AFF30080099828B1D4E901219C
:100DA0009047206A401C20622078C00622D5204649
:100DB000AFF300801EE0002E04DBB34502DD01A886
:100DC000805D00E03020D4E901219047206A401C7A
:100DD0002062761CAAF101005FEA000A0AD100F045
:100DE0004DF8C0680168405CD4E901219047206A51
:100DF000401C2062281EA5F10105DCDC07E0D4E9D7
:100E0000012118F8010B9047206A401C2062381E0F
:100E1000A7F10107F3DC2046AFF30080032011B0F7
:100E200041E6000001694A1C02610878704700B57C
:100E30008FB0CDE901310021059105497944CDE913
:100E4000031011466846FFF7C7FA0FB000BD000057
:100E5000E5FFFFFF0A6802F8010B0A607047D1E95D
:100E600000239A4202D2531C0B601070704700009E
:100E7000004870472C06002070470000004870476B
:100E80004C060020004870472C06002003464068AE
:100E90008C46002818BF88423CBF03464068F8D300
:100EA00018681844884207D00CF1030020F00700AE
:100EB000001D411A521A0146081D0A60FFF703BAC5
:100EC00030B5B0F10A024FEA900E71F100034EEA1C
:100ED000817EB0EB0E0061EB91014FEA101E4EEAED
:100EE000017E10EB0E0041EB11114FEA102E4EEA7D
:100EF000016E10EB0E0041EB11214FEA104E4EEA4D
:100F0000014E10EB0E0041EB1141401841F1000180
:100F10004FEAD00040EA41704FEAD10110EB800562
:100F20004FEA810444EA907444EB01046D1944EBE8
:100F30000404521BA3414FF0000348BF0A3200D5FE
:100F400030BD401C41F1000130BD00002DE9F041F1
:100F50001F46044603260168072A01F4006004DBEB
:100F600008B116A505E016A503E008B115A500E037
:100F700015A521F010002060A069C01EA0610FB16E
:100F8000401EA0612046AFF300804FB1D4E901219B
:100F900038469047206A401C2062C01C206206E050
:100FA000206AFAE7D4E9012115F8010B9047761E73
:100FB000F8D22046AFF30080BDE8F0814E414E00EC
:100FC0006E616E00494E4600696E66002DE9F0477D
:100FD000814616468AB0354878440DC88DE80D0024
:100FE00032487844801C03AC0DC884E80D0041F6FB
:100FF0009B300844372190FBF1F290FBF1F5A5F10D
:10100000800501FB12041B3C02D56442012000E074
:101010000020DFF898A080460027FA44AAF1BE0A13
:101020000EE0E0070AD03246684607EB470101238D
:101030000AEB810100F095FB8DE8070064107F1C2E
:10104000002CEED1194F7F44AE3F19E0E80715D0D0
:1010500007EB04100DF1180A90E80E008AE80E0064
:10106000C068F04201D1981908903246012306A9C0
:1010700003A800F076FB03AB83E807006D10641C47
:10108000002DE3D14FF0010332466946B8F1000F5D
:1010900003A802D000F050FB01E000F062FBC9E9B8
:1010A0000001C9F808200AB0BDE8F087C059000067
:1010B00010B500F037F8BDE8104000F02EB87546C6
:1010C000FFF7D6FEAE4605006946534620F00700FE
:1010D000854618B020B5FFF7A1F8BDE820404FF0D5
:1010E00000064FF000074FF000084FF0000B21F012
:1010F0000701AC46ACE8C009ACE8C009ACE8C009DF
:10110000ACE8C0098D46704710B50446AFF30080C7
:101110002046BDE81040FFF76CB8002801D000F071
:1011200069B8704710B5012805D0002103A000F070
:1011300067F8012010BD09A1F8E7000053494752A4
:10114000544D454D3A204F7574206F662068656197
:1011500070206D656D6F7279000000003A2048655F
:101160006170206D656D6F727920636F727275703A
:10117000746564004FF0013C50F8042B51F8043BB7
:101180009A4221D1A2EB0C03934313EACC1317D15B
:1011900050F8042B51F8043B9A4215D1A2EB0C03F2
:1011A000934313EACC130BD150F8042B51F8043BB2
:1011B0009A4209D1A2EB0C03934313EACC13DBD080
:1011C0004FF00000704700BFD01A01BAB1FA81F1A8
:1011D00001F0180122FA01F0CB40C1F12001DBB28D
:1011E000C0B2C01A2CFA01F3D11A914311EAC3110B
:1011F000E6D1704701491820ABBEFEE72600020089
:1012000070B505460C460A2000E06D1C00F011F890
:1012100035B128780028F8D102E0641C00F009F804
:1012200014B120780028F8D1BDE870400A20AFF34F
:10123000008008B569468DF800000320ABBE08BDEC
:101240005FEA400C08BF91F0000F4FEA8C234FEA91
:10125000C12243EA51514FEA1C5018BF00F5F0403B
:101260004FEA300018BF41F000415FEA6C5C00F0CB
:101270002980BCF1FF3F08BF40F080407047130C4D
:1012800006BF12044FF0100C4FF0000C130E04BFF9
:1012900012020CF1080C130F04BF12010CF1040C24
:1012A000930F04BF92000CF1020CD30F04BF520045
:1012B0000CF1010C11464FF00002A0F11F00A0EB51
:1012C0000C00704711F0004F08BF704731F000412B
:1012D0003FF4D5AF0B0C06BF09044FF0100C4FF0D4
:1012E000000C0B0E04BF09020CF1080C0B0F04BF1D
:1012F00009010CF1040C8B0F04BF89000CF1020CE6
:10130000CB0F04BF49000CF1010CCCF12003A0EB82
:101310000C0022FA03F302FA0CF241EA030100F195
:101320000100704720F07F4C80EA030023F07F47E4
:10133000ACEB070303F57C5300F0004003F1FF031F
:101340002DE980494FEA154B09B44FEA144325EAC9
:101350000B4E24EA03480FF2042606EB1327490834
:101360003E785FEA320203FB0667C7F5000707FB1A
:1013700006F64FEA54374FEAD64606F1020607FB57
:10138000066CCCF1005C4FEA1C472CEA074C07FBCB
:1013900006F40CFB06F504EB15464FEA961634BF2F
:1013A00000204FF000404FEAD13706FB07FC4FEA20
:1013B0001C4C0CFB0BF7D21B03FB0CF761EB07017A
:1013C0000CFB0EF7B0EB074072EB17420CFB08F773
:1013D00034BFA2EB0742B2EB074261EB17414FEA81
:1013E0000C444FEA910706FB07FC4FEA1C4C0CFB30
:1013F0000BF7B0EBC74072EB573203FB0CF734BF6F
:10140000A2EBC742B2EBC74261EB57310CFB0EF7C0
:10141000B0EBC70072EB57720CFB08F734BFA2EBBE
:10142000C702B2EBC70261EB5771039F4FEA8161BC
:1014300041EA921104EBCC044FEAD1374FEA8262C1
:1014400006FB07FC42EA90124FEA80604FEA1C4C10
:101450000CFB0BF7D21B03FB0CF761EB07010CFB3A
:101460000EF7B0EB074072EB17420CFB08F734BFE6
:10147000A2EB0742B2EB074261EB17414FEA8C55F2
:101480004FEA910704EB9C2406FB07FC4FEA1C4C37
:101490000CFB0BF7B0EBC74072EB573203FB0CF7BA
:1014A00034BFA2EBC742B2EBC74261EB57310CFB32
:1014B0000EF7B0EBC70072EB57720CFB08F734BFA6
:1014C000A2EBC702B2EBC70261EB577115EB4C25DB
:1014D0004FEA816141EA92114FEA82624FEAD137C5
:1014E00042EA901206FB07FC44F100044FEA8060D8
:1014F0004FEA1C4C0CFB0BF7D21B03FB0CF761EB08
:1015000007010CFB0EF7B0EB074072EB17420CFB28
:1015100008F734BFA2EB0742B2EB074261EB174179
:1015200015EB1C154FEA813141EA92414FEA8232B4
:1015300042EA90424FEA80304FEA0C7644F10004D0
:1015400048EA03434EEA0B484FF0000EB2EB080C9A
:1015500071EB030724BF624639464EEB0E0E4FF087
:10156000000B0018524149414BEB0B0BB2EB080C3E
:1015700071EB03077BF1000B24BF624639464EEB4B
:101580000E0E4FF0000B0018524149414BEB0B0B74
:10159000B2EB080C71EB03077BF1000B24BF624632
:1015A00039464EEB0E0E51EA020718BF46F001060F
:1015B00016EB0E7655F1000254F1000103D5BDE89B
:1015C0008901BDE80088BDE88901BDE80048B61979
:1015D000524141EB0101A3F10103704780807F7EFE
:1015E0007D7C7B7A79787776767574737271717099
:1015F0006F6E6E6D6C6C6B6A6A696868676666654B
:101600006464636362616160605F5F5E5E5D5D5CD8
:101610005C5B5B5A5A595958585757565655555549
:101620005454535352525251515050504F4F4F4EA9
:101630004E4D4D4D4C4C4C4B4B4B4A4A4A494949F7
:101640004848484747474746464645454544444439
:10165000444343434342424242414141002B9C4662
:1016600030D477002BD01CB54FEA370703B44FF0C6
:1016700010004FF01001BAF1000F06D0BCF1000FBE
:10168000DCBF40F0080040F008014FF000000FBC44
:10169000BDE810400BF1010BBBF1010F08BF5FEA81
:1016A000170722BF12F1010211F101014FF00041B1
:1016B00043F1000300F0004043EA00007047F9D313
:1016C0005708D0E746EA064613F1400F4FEA1646A0
:1016D0001FDD13F1200FDFBF16430A460021203320
:1016E0005B42BED0C3F1200746EA064602FA07F77E
:1016F0004FEA164646EA0706C3F1200722FA03F22C
:1017000001FA07F721FA03F14FF0000342EA07025A
:10171000A7E746EA020646EA06464FEA164646EAC2
:101720000106BCBF46EA0646360C4FF000034FF0F8
:1017300000024FF0000194E72DE9804C9A46934651
:1017400070B491E8380007C831EA400C48BF34EA69
:10175000430C03D5FFF7E6FDFFF780FFF0BCBDE8C3
:10176000008C2DE9804C9A46934670B491E838007D
:1017700007C810F0804F08BF13F0804F03D100F06E
:1017800005F8FFF76BFFF0BCBDE8008C20F07F4749
:1017900080EA030023F07F4C07EB0C03A3F57C5396
:1017A00000F00040A3F1FE0392F0000F00F0B380C0
:1017B00095F0000F00F077802DE901494FEA1140C4
:1017C0004FEA144621EA004800FB06FC24EA0647DB
:1017D00008FB06F607FB08F800FB07F718EB0648BE
:1017E0004CEB164C4FEA124B18EB07484FEA1546E4
:1017F0004CEB174022EA0B4E0BFB06FC25EA064792
:101800000EFB06F607FB0EFE0BFB07F71EEB064E64
:101810004CEB164C4FF000061EEB074E4CEB174BF3
:1018200018EB0B0840F1000018EB0E0B58EB00080A
:1018300040F100008F1A4FF000013CBFC943661B06
:1018400014BFB5EB040C00213CBFC943F61B4FEAA3
:1018500017444EEA8E0E27EA04454FEA1C4704FB64
:1018600007622CEA074C05FB07F70CFB05F604FBA7
:101870000CFC16EB074642EB174216EB0C4642EB0C
:101880001C421BEB060658EB0202414146EA9E064B
:1018900001D5BDE80189B619524141EB0101A3F11F
:1018A0000103BDE801894FEA14454FEA114724EAD4
:1018B000054621EA074C05FB07F406FB07F70CFB7E
:1018C00006F105FB0CFC11EB074144EB17444FEA12
:1018D000124711EB0C4144EB1C4422EA074C05FB78
:1018E00007F206FB07F70CFB06F605FB0CFC16EBF4
:1018F000074642EB174216EB0C4642EB1C456A18B2
:1019000054F1000148BF7047B619524141EB010143
:10191000A3F10103704795F0000F37D04FEA114251
:101920004FEA144721EA024624EA074C02FB07F17A
:1019300006FB07F70CFB06F402FB0CFC14EB074458
:1019400041EB17414FEA154714EB0C4441EB1C41A6
:1019500025EA074C02FB07F506FB07F70CFB06F62A
:1019600002FB0CFC16EB074645EB174516EB0C4645
:1019700045EB1C42121951F1000148BF7047B619DE
:10198000524141EB0101A3F1010370474FEA1445B5
:101990004FEA114724EA054621EA074C05FB07F107
:1019A00006FB07F70CFB06F24FF0000605FB0CFCEC
:1019B00012EB074241EB174112EB0C4251EB1C4179
:1019C00048BF7047921841EB0101A3F10103704732
:1019D00021B1826842F00102826003E0826822F055
:1019E00001028260704721B1826842F48072826095
:1019F00003E0826822F48072826070470146002012
:101A00008A6802F004020AB1012000E00020704759
:101A1000014600208A6802F008020AB1012000E0B5
:101A20000020704730B502460020002350680F4C5C
:101A300020400D790C6844EA0524204350609068EA
:101A40000B4C2040D1E902542C434D7944EA450423
:101A500020439060D06A20F470000C7C641EE4B2D5
:101A6000234340EA0350D06230BD0000FFFEF0FF88
:101A7000FDF7F1FFF0B504460D4600200021092DC9
:101A800011DDE068A5F10A0606EB4607072606FA0F
:101A900007F18843A5F10A0606EB460603FA06F1AC
:101AA0000843E0600CE0206905EB4507072606FACD
:101AB00007F1884305EB450603FA06F10843206168
:101AC000072A0FDA606B561E06EB86071F2606FAFA
:101AD00007F18843561E06EB860605FA06F1084311
:101AE000606322E00D2A0FDA206BD61F06EB860713
:101AF0001F2606FA07F18843D61F06EB860605FA6D
:101B000006F10843206310E0E06AA2F10D0606EB3F
:101B100086071F2606FA07F18843A2F10D0606EB99
:101B2000860605FA06F10843E062F0BD816841F0DF
:101B300008018160704721B1826842F4A00282608E
:101B400003E0826822F4A00282607047816841F05D
:101B50000401816070470000014802490860704735
:101B6000E12600081C00002000BFFEE721B102684A
:101B700042F00102026004E002684FF6FE731A4070
:101B80000260704701684FF6FE721140016000214B
:101B9000016041608160C1604B49884208D14A4977
:101BA0000839496841F00F01474A083A51608AE014
:101BB00045491431884208D143490839496841F000
:101BC000F001414A083A51607DE03F49283188429E
:101BD00008D13D490839496841F470613A4A083AE8
:101BE000516070E038493C31884208D136490839A3
:101BF000496841F47041344A083A516063E032491F
:101C00005031884208D130490839496841F470217F
:101C10002D4A083A516056E02B496431884208D178
:101C200029490839496841F47001274A083A516046
:101C300049E025497831884208D123490839496863
:101C400041F07061204A083A51603CE01F498842E7
:101C500006D1011F096841F00F01021F116032E037
:101C60001A491431884208D11849091F096841F0FE
:101C7000F001164A121F116025E0144928318842EC
:101C800008D11249091F096841F470610F4A121FF7
:101C9000116018E00D493C31884208D10B49091FF9
:101CA000096841F47041094A121F11600BE00749AD
:101CB0005031884207D10549091F096841F4702154
:101CC000024A121F116070470800024008040240D7
:101CD00010B50022026847F6F0739A430C6A8B68CD
:101CE00023430C6923434C6923438C692343CC6908
:101CF00023434C6A23438C6A23431A430260CB6814
:101D000043600B6883604B68C36010BD704710B5BB
:101D1000802000F00DF8962003F028FD802000F0D0
:101D200001F810BD0149086070470000140401402B
:101D3000014600200022074B1B6803EA0102054B05
:101D400014331B680B4013B10AB1012000E00020DE
:101D50007047000000040140002123498279002AD5
:101D60003AD00A46126803689A430B461A600A1D65
:101D7000126803689A430B1D1A60027911440A68BD
:101D800003681A430A60184A0832126803689A43C3
:101D9000154B08331A601A1D126803689A43124BD8
:101DA0000C331A604279102A0ED11A1F1268036888
:101DB0001A430D4B08331A601A1D126803681A4340
:101DC000094B0C331A600DE00749427911440A6847
:101DD00003681A430A6005E0027911440A6803683F
:101DE0009A430A60704700000004014030B50022A9
:101DF0008B071C0F0F2303FA04F20B4B8C1053F8C4
:101E000024309343084C8D1044F8253023468C1021
:101E100053F824308C07240F00FA04F42343024CB7
:101E20008D1044F8253030BD080001402DE9F04107
:101E3000024600250026002000230024002791F8F8
:101E400003C00CF00F0591F803C00CF0100CBCF1AE
:101E5000000F03D091F802C04CEA050591F800C0CC
:101E6000BCF1000F31D0146800202BE04FF0010CC2
:101E70000CFA00F3B1F800C00CEA03069E4220D130
:101E800083004FF00F0C0CFA03F7BC4305FA03FC78
:101E90004CEA040491F803C0BCF1280F06D14FF0BE
:101EA000010C0CFA00FCC2F814C00AE091F803C05F
:101EB000BCF1480F05D14FF0010C0CFA00FCC2F840
:101EC00010C0401C0828D1D31460B1F800C0BCF188
:101ED000FF0F34DD546800202EE000F1080C4FF0B5
:101EE000010808FA0CF3B1F800C00CEA03069E42A0
:101EF00021D183004FF00F0C0CFA03F7BC4305FA15
:101F000003FC4CEA040491F803C0BCF1280F05D18E
:101F100000F1080C08FA0CF8C2F8148091F803C01C
:101F2000BCF1480F07D100F1080C4FF0010808FA86
:101F30000CF8C2F81080401C0828CED35460BDE8CD
:101F4000F08100002DE9F04705460E4617469846F9
:101F50001C48D0F80D04B0F5005F14D34FF0000911
:101F600008E01849D1F8050401F086FF814648468B
:101F7000FEF7A9F91349D1F8050401F071FF002813
:101F8000EFD0BDE8F0871020FEF76EF9044625601B
:101F90006660781B401CA060A8EB0600401CE06057
:101FA0000848D0F80D04D4E9021201FB02000549EB
:101FB000C1F80D04D1F80504214601F076FF00BFF9
:101FC000DFE700008800002070474FF47A71484333
:101FD00000BF011EA0F10100FBD1704710B5029CAB
:101FE00010BD704710B54FF480610D48FEF7D5FB6A
:101FF00000200B4981F80404C1F8000401F025FF1A
:102000000749C1F805040020C1F80904C1F80D040E
:10201000C1F8110401F0C4FB01F016F810BD000076
:102020008800002070B52348D0F8050400B970BDC1
:1020300000242048D0F80D04B0F5005F17D33F23EB
:102040007F220021084600F037F808E01949D1F84E
:10205000050401F011FF04462046FEF734F9154946
:10206000D1F8050401F0FCFE0028EFD01CE014E0DC
:102070001049D1F8050401F0FFFE0446E6686568E2
:1020800035446B1EA668256835446A1ED4E90001F4
:1020900000F012F82046FEF716F90649D1F80504BB
:1020A00001F0DEFE0028E3D000200249C1F80D0453
:1020B00000BFBCE7880000202DE9F04F87B0044640
:1020C0008846154699462148006840B3281B00F110
:1020D000010A4FEAE8064FEAE907B81B401C0690E0
:1020E000069A0AFB02F0FEF7BFF805908023012252
:1020F0001749CDE90257CDE90046059803F09CF851
:1021000083464B462A46414600902046DFF83CC0B5
:10211000DCF800C0E0470598FEF7D5F813E0464626
:102120000FE027460AE0F010094901EBC010C25D3C
:1021300031463846074B1B6898477F1CAF42F2DD9B
:10214000761C4E45EDDD07B0BDE8F08F1C00002089
:1021500088000020200000202DE9F04105460E46B1
:1021600017462C46A662E7622046616C88471648EF
:1021700090F8040490B1D4F804C0D4F80C80C4449E
:10218000ACF10103D4F800C0D4F80880C444ACF129
:102190000102D4E90001FFF78FFF11E0D4F804C079
:1021A000D4F80C80C444ACF10103D4F800C0D4F8D6
:1021B0000880C444ACF10102D4E90001FFF7C2FE7B
:1021C0000020BDE8F08100008800002070B50546C1
:1021D0004C20FEF749F8044600BF00BF4C222946B8
:1021E0002046FEF795FA0020A064207C07282FD215
:1021F000DFE800F0040B1219202E27001648E063D8
:10220000164820641648606423E01648E0631648C8
:102210002064164860641CE01548E063154820649B
:102220001548606415E01548E063154820641548BA
:1022300060640EE01448E06314482064144860644D
:1022400007E01448E063144820641448606400E028
:1022500000BF00BF204670BD394B0008E94F0008A1
:10226000F7400008694700080D4F0008DF400008EC
:10227000E1410008954E0008C7400008D549000814
:10228000194F0008EB400008F9400008BD4D000858
:10229000BB40000889440008A14E0008D340000854
:1022A0002DE9F04105462C462046E16B8847104851
:1022B00090F8040460B1E76866683E44731EA7683E
:1022C00026683E44721ED4E90001FFF7F5FE0BE0DC
:1022D000E76866683E44731EA76826683E44721E1F
:1022E000D4E90001FFF72EFE0020BDE8F0810000D8
:1022F0008800002001460020704700BFFEE770B54F
:1023000002460024002500230020958A138B1B041D
:1023100045EA030626F07F4404EA01068E4201D115
:10232000012000E0002070BD21B1028842F00102CE
:10233000028004E002884FF6FE731A400280704764
:1023400010B504460B48844209D10121480500F02C
:102350003DF900214FF4001000F038F908E00121A8
:10236000880500F033F900214FF4800000F02EF9C9
:1023700010BD00000054004021B1028842F4807278
:10238000028004E002884FF6FF631A400280704723
:1023900021B1028842F40072028004E002884FF604
:1023A000FF531A40028070470CB5024600200023FC
:1023B0000193009300920B0F019321F07F41019B49
:1023C0001BB1009B1433009303E0090C009B1833EE
:1023D0000093009B1B680B400BB1012000E0002024
:1023E0000CBD00002DE9F04385B004460D460026E3
:1023F000B1460427DFF8CC80A6884FF6C0700640AF
:10240000684600F003F9DDF808802F48B8FBF0F0CB
:102410001FFA80F946EA0906A68020884FF6FE7169
:102420000840208000262949286888420CD828685E
:102430004000B8FBF0F087B2042F00DA04273E43D7
:1024400009F10100208427E0E8884BF6FF718842FB
:1024500006D1286800EB4000B8FBF0F087B209E035
:10246000286800EBC00101EB0010B8FBF0F087B268
:1024700047F48047C7F30B0008B947F0010747F45A
:10248000004006434FF4967009FB00F04FF47A7158
:1024900090FBF1F0401C2084A683208840F00100CE
:1024A000208026884FF6F5300640A88869890843C1
:1024B00006432680A88929890843208105B0BDE804
:1024C000F083000000127A0040420F00A086010055
:1024D00012B141F0010102E04FF6FE731940018292
:1024E00070470182704710B501F078FD01F066FD7C
:1024F00001F0D0FD01F032FD01F0E8FC10BD00BF9D
:10250000FEE7704770B5002100230F22C47804B3A2
:10251000154C246804F4E064C4F5E064210AC1F1B8
:102520000403CA40447804FA03F184781440214338
:1025300009010E4C0678A155047804F01F0501240A
:10254000AC4005786D11AD0005F1E025C5F80041FE
:1025500009E0047804F01F050124AC40044D06781E
:10256000761145F8264070BD0CED00E000E400E077
:1025700080E100E002490143024A11607047000017
:102580000000FA050CED00E07047000029B1064A92
:1025900052690243044B5A6104E0034A5269824380
:1025A000014B5A61704700000010024029B1064AF1
:1025B000D2690243044BDA6104E0034AD2698243E0
:1025C000014BDA61704700000010024029B1064A51
:1025D00012690243044B1A6104E0034A1269824300
:1025E000014B1A61704700000010024029B1064AF1
:1025F00092690243044B9A6104E0034A9269824360
:10260000014B9A61704700000010024030B5002174
:102610000022002400232D4D6D6805F00C0121B12E
:10262000042905D0082923D105E0294D056022E0C1
:10263000274D05601FE0254D6D6805F47012234D90
:102640006D6805F48034022505EB92421CB9214DDA
:10265000554305600BE01D4D6D6805F400351DB157
:102660001C4D5543056002E0194D5543056002E0DD
:10267000174D056000BF00BF144D6D6805F0F001F7
:102680000909154D6B5C0568DD4045600F4D6D68AF
:1026900005F4E061090A104D6B5C4568DD4085601A
:1026A0000A4D6D6805F46051C90A0B4D6B5C4568B5
:1026B000DD40C560054D6D6805F44041890B074D4F
:1026C0006B5CC568B5FBF3F5056130BD00100240D9
:1026D00000127A0000093D000400002014000020D0
:1026E0002DE9FE4F04460D4616461F46DDF830A084
:1026F000B44201DA204600E030468046B44201DDB3
:10270000204600E030460290BD4201DA284600E053
:1027100038464FEAE00BBD4201DD284600E038466E
:10272000C0100190D9461EE009F1B001C8B202F014
:10273000FDFD08F00F0002F0F9FD102141EA28111B
:10274000C8B202F0F3FDCDF8008006E01AF8010BE4
:1027500002F0F3FD0098401C009002990098884216
:10276000F4DD09F1010901988145DDDDBDE8FE8F49
:1027700070B5002413E004F1B001C8B202F0D6FD38
:10278000002002F0D3FD102002F0D0FD002503E070
:10279000002002F0D2FD6D1C802DF9D3641C082CA2
:1027A000E9D370BD10B501F049FC642002F0DEFFF2
:1027B000AE2002F0BBFD202002F0B8FD102002F098
:1027C000B5FDB02002F0B2FDC82002F0AFFD002040
:1027D00002F0ACFD102002F0A9FD402002F0A6FDA1
:1027E000812002F0A3FDFF2002F0A0FDA12002F055
:1027F0009DFDA62002F09AFDA82002F097FD3F2043
:1028000002F094FDA42002F091FDD32002F08EFD91
:10281000002002F08BFDD52002F088FDF02002F0B0
:1028200085FDD92002F082FD222002F07FFDDA2012
:1028300002F07CFD122002F079FDDB2002F076FD33
:10284000202002F073FD8D2002F070FD142002F0B4
:102850006DFDAF2002F06AFD10BD704710B500F0AD
:1028600001F810BD0CB500200190009033480068BD
:1028700040F480303149086000BF3048006800F4FF
:10288000003000900198401C0190009818B9019800
:10289000B0F5A06FF1D12948006800F4003010B104
:1028A0000120009001E0002000900098012843D111
:1028B0002348006840F0100021490860084600687D
:1028C00020F0030008600846006840F0020008603D
:1028D0001A484068194948600846406848600846F8
:1028E000406840F4806048600846406820F47C10EE
:1028F00048600846406840F4E810486008460068B0
:1029000040F08070086000BF0C48006800F0007064
:102910000028F9D00948406820F0030007494860C2
:102920000846406840F00200486000BF0348406825
:1029300000F00C000828F9D10CBD00000010024086
:1029400000200240042808D14FF0E021096941F03D
:1029500004014FF0E022116107E04FF0E021096926
:1029600021F004014FF0E022116170477047000030
:1029700010B51348006840F001001149086008468E
:102980004068104908400E494860084600680E49F2
:1029900008400B4908600846006820F48020086061
:1029A0000846406820F4FE0048604FF41F0088602D
:1029B000FFF754FF4FF000600449086010BD0000AD
:1029C000001002400000FFF8FFFFF6FE08ED00E0F7
:1029D00000BFFEE7490050EAC12018BF04204A0D9D
:1029E00018BF40F0010040F2FF72B2EB515F08BF28
:1029F00040F00200012808BF05207047410008028E
:102A000018BF04200A0E18BF40F001004FF07F42AB
:102A100032EA010108BF40F00200012808BF05208A
:102A200070470000F0B5044617461E685A689D6856
:102A3000944205D2A94203D2002C01DB002901DA1D
:102A40000020F0BD0C48D0F814C0006A081A0CFB36
:102A50000040DFF824C0DCF81CC0A0EB0C00DFF85D
:102A600018C0DCF810C01CF8000001FB026C0CF868
:102A700004000020E5E70000580000202DE9F04F99
:102A8000044617465E68D3F80880B44205D2414533
:102A900003D2002C01DB002902DA0120BDE8F08F0F
:102AA000CD1005FB06451868425D0FB1012000E01E
:102AB000002086460846CD1701EB5575ED10A1EBB9
:102AC000C50542FA05F505F0010C8EEA0C09B9F1CD
:102AD000000F0FD10D464FEAE17901EB59794FEA2A
:102AE000E909A1EBC90A4FF0010909FA0AF922EA3A
:102AF00009090EE008464FEAE17901EB59794FEAFE
:102B0000E909A1EBC90A4FF0010909FA0AF949EAF2
:102B100002094FEAE10B0BFB064BD3F800A00AF8C1
:102B20000B900020BAE72DE9F047044617465D6890
:102B3000D3F808C0AC4205D2614503D2002C01DBBA
:102B4000002902DA0120BDE8F087CA1002FB054225
:102B50001868865C7FB90A464FEAE17801EB58783D
:102B60004FEAE808A1EBC8094FF0010808FA09F894
:102B700026EA08080EE008464FEAE17801EB5878AB
:102B80004FEAE808A1EBC8094FF0010808FA09F874
:102B900048EA06084FEAE10A0AFB054AD3F8009022
:102BA00009F80A800020CEE7F8B5044615461E68ED
:102BB0005A689F68944205D2B94203D2002C01DBC7
:102BC000002901DA2846F8BD01FB0260005D009093
:102BD0009DF8000001FB026C0CF804000020F2E7F5
:102BE0002DE9F041044694461D685A689E68944257
:102BF00005D2B14203D2002C01DB002902DA002009
:102C0000BDE8F0810846CF1701EB5777FF10A1EB25
:102C1000C708012707FA08F74FEAE10808FB02583E
:102C200018F8048047EA08074FEAE10808FB025851
:102C300008F804700020E3E72DE9F84704469046C1
:102C40001F685D68D3F808C0AC4205D2614503D265
:102C5000002C01DB002902DA0020BDE8F887C8104B
:102C600000FB0570005D00900E464FEAE17901EB34
:102C700059794FEAE909A1EBC90A9DF8009049FA90
:102C80000AF909F0010989F00109B9F1000F15D11C
:102C90000A464FEAE17901EB59794FEAE909A1EBDC
:102CA000C90A4FF0010909FA0AF99DF800A049EA9A
:102CB0000A0909F0FF09CDF8009012E008464FEA32
:102CC000E17901EB59794FEAE909A1EBC90A4FF023
:102CD000010909FA0AF99DF800A02AEA090ACDF8C3
:102CE00000A09DF8000001FB057210550020B4E71C
:102CF0002DE9F041044617461D685A689E689442C3
:102D000005D2B14203D2002C01DB002902DA0120F6
:102D1000BDE8F08108464FEAE17C01EB5C7C4FEABC
:102D2000EC0CA1EBCC084FF0010C0CFA08FC4FEABC
:102D3000E10808FB025818F8048028EA0C0C4FEA56
:102D4000E10808FB025808F804C00020E0E7F0B5ED
:102D500004461E685F689D68BC4205D2A94203D242
:102D6000002C01DB002901DA1046F0BD01FB0560F3
:102D7000005D10B901FB056002550020F5E7000079
:102D800010B5B02203490448FDF790FC0120034927
:102D9000087010BD50050020A00400205400002041
:102DA0002DE9F04F8BB082468D48006830B18C49D8
:102DB0000868FDF788FA0020894908605046FDF749
:102DC000CFFB06468648006A854948600020886037
:102DD00004213046FDF734FA074604213046FDF75A
:102DE0002FFA804604213046FDF72AFA05460421D1
:102DF0003046FDF725FA8346B000FDF735FA0A9014
:102E0000B000FDF731FA8146002486E000200990E9
:102E100008901AF904107248D0F8AC0008AB09AA5F
:102E2000D0F80CC06E482830E0470020079006908C
:102E30000590049004A805A906AA07ABCDE90032C5
:102E4000CDE902106648436A1AF90410426AD0F8C4
:102E5000AC00D0F810C062482830E04707990598C8
:102E6000401A45F8240006990498401A4BF82400AB
:102E700055F82400B8B904A805A906AA07ABCDE9FE
:102E80000032CDE902105648436A426AD0F8AC00DD
:102E90006821D0F810C052482830E04707990598BB
:102EA000401A45F82400099803F04AF801904C486C
:102EB000416A019803F070F8029002F09FFD0390C0
:102EC00003F022F80A9941F82400089803F038F832
:102ED00001904348416A019803F05EF8029002F0C5
:102EE0008DFD039003F010F849F824003C488068F9
:102EF00055F8241008443A4988603CB1601E57F8E0
:102F0000201055F82000084447F824003448006990
:102F10000699084448F82400641CB442FFF476AFD4
:102F20002F4989682E4A526801FB02F00121FDF702
:102F300087F92B49086000243AE00020099064B129
:102F400059F8240058F82410254A926801FB020021
:102F500057F82410084409900BE059F8240058F859
:102F600024101F4A926801FB020057F824100844FD
:102F700009901AF904101A48406A194A526A184B03
:102F80009B68CDE90032CDE902015BF8243055F8A9
:102F900024201348D0F800E009980EEB00011048F7
:102FA000D0F8AC00D0F814C00D482830E047641CBD
:102FB000B442C2D33846FDF786F94046FDF783F99F
:102FC0002846FDF780F95846FDF77DF90A98FDF788
:102FD0007AF94846FDF777F901480BB0BDE8F08F64
:102FE000500500202DE9F04188B005460E4600242A
:102FF000002700BF04A805A906AA07ABCDE9003247
:10300000CDE902100F48436A426A2046641C3156DB
:103010000C48D0F8AC00D0F810C00A482830E0477F
:1030200007990598401A07443046FDF799FAA042DF
:1030300001D9AF42DED3AF4200D3641E204608B0B0
:10304000BDE8F0815005002070B500202D490877BB
:10305000182008622C48C1F8AC000846007F2B49B4
:1030600051F820002749C1F8A8000846D0F8A81058
:10307000D0F8AC0000220368224828309847214944
:10308000086A02F075FF04461E48D0F8AC002146DD
:1030900042681C48283090471A4948620846D0F8D0
:1030A000AC0001F118031A1F1031846801F11800F7
:1030B000A0471449086902F043FF06461148416AD7
:1030C000304602F069FF054602F098FC044602F023
:1030D0001BFF0C490861486902F032FF06460948A7
:1030E000416A304602F058FF054602F087FC04466C
:1030F00002F00AFF03494861B0220548FDF7D6FAFD
:1031000070BD000050050020380000205000002055
:10311000A004002010B50F480078C8B10E48006820
:1031200030B10D490868FDF7CEF800200A49086063
:10313000B0220A490848FDF7B9FA0749087F00F0AC
:103140005FF80549086A00F00BF800200149087093
:1031500010BD00005400002050050020A0040020F5
:103160002DE9F04106460820234908622348C1F8AA
:10317000AC00087F00F044F81F49086A02F0F8FE2E
:1031800004461D48D0F8AC00214642681A48283051
:103190009047194948620846D0F8AC0001F118037D
:1031A0001A1F1031846801F11800A04712490869FC
:1031B00002F0C6FE07461048416A384602F0ECFEAF
:1031C000054602F01BFC044602F09EFE0A49086117
:1031D000486902F0B5FE07460748416A384602F0E2
:1031E000DBFE054602F00AFC044602F08DFE0249B1
:1031F0004861BDE8F0810000500500203800002043
:103200002DE9F04104462C482C49C1F8AC007CB9AA
:103210002B4850F82400C1F8A8000846D0F8A810A0
:10322000D0F8AC000022036824482830984701E019
:10323000BDE8F08100BF214804770146086A02F02A
:1032400097FE05461D48D0F8AC00294642681B4849
:1032500028309047194948620846D0F8AC0001F17F
:1032600018031A1F1031856801F11800A847134987
:10327000086902F065FE07461048416A384602F0C8
:103280008BFE064602F0BAFB054602F03DFE0B49F6
:103290000861486902F054FE07460848416A38460A
:1032A00002F07AFE064602F0A9FB054602F02CFE6B
:1032B0000249486100BFBBE73800002050050020EC
:1032C0005000002010B52C2203490448FDF7EEF908
:1032D00001200349087010BD58000020000600209E
:1032E000840000202DE9FF5F05460E4614469846EF
:1032F000DDF838906010039003210398A1EB4000A3
:1033000002904FF0000ADDF80CB0204604EBD071BB
:103310004910A4EB410109B9012100E0002101910C
:10332000B9F1070F04D18948006908B9012000E00C
:1033300000200090009800286CD0A5EB6400401E8F
:10334000D8F80410884202DBD8F8040009E0A5EBA5
:103350006400401E002801DC002002E0A5EB6400B0
:10336000401E7A49C861A6EB6400401ED8F80810D8
:10337000884202DBD8F8080009E0A6EB6400401E92
:10338000002801DC002002E0A6EB6400401E6F492B
:10339000086205EB6400401ED8F80410884202DB86
:1033A000D8F8040009E005EB6400401E002801DCA9
:1033B000002002E005EB6400401E6449C969401A20
:1033C000401C62494861486206EB6400401CD8F822
:1033D0000810884202DBD8F8080009E006EB640018
:1033E000401C002801DC002002E006EB6400401CC9
:1033F0005649096A401A401C544988618862496AE2
:10340000524A926A01FB02F0FCF72EFF4F49086115
:1034100000BFFEE783E00BF101072FE04B4B1A786A
:10342000F11905EB0A004A4B53F829C04346E0471F
:10343000464B1A78F119019B2B44A3EB0A00444B2D
:1034400053F829C04346E047404B1A78019B334468
:10345000D91B05EB0A003E4B53F829C04346E04711
:103460003A4B1A78019B3344D91B019B2B44A3EBA5
:103470000A00374B53F829C04346E047381EA7F1EE
:103480000107CBD10AF101072FE0304B1A78F1196F
:1034900005EB0B002E4B53F829C04346E0472B4B5E
:1034A0001A78F119019B2B44A3EB0B00284B53F81E
:1034B00029C04346E047254B1A78019B3344D91B6A
:1034C00005EB0B00224B53F829C04346E0471F4B46
:1034D0001A78019B3344D91B019B2B44A3EB0B00AF
:1034E0001B4B53F829C04346E047381EA7F101079C
:1034F000CBD10298002806DC062000EB8A01029856
:103500000844029009E0AAEB0B000A2101EB8001BC
:10351000029808440290ABF1010B0AF1010ADA4566
:103520007FF779AF009860B108490869FCF7CBFED6
:1035300006480021C161016241628162016141610D
:103540008161002004B0BDE8F09F00005800002019
:10355000C86800082DE9FE4F05460E4614469946F8
:10356000DDF830A06010029002984000C0F1030026
:103570000190204604EBD0714910A4EB410109B938
:10358000012100E000218B46BAF1070F04D18248E7
:10359000006908B9012000E0002000900098002890
:1035A0006CD0A5EB6400401ED9F80410884202DB01
:1035B000D9F8040009E0A5EB6400401E002801DCF6
:1035C000002002E0A5EB6400401E7349C861A6EB31
:1035D0006400401ED9F80810884202DBD9F80800C0
:1035E00009E0A6EB6400401E002801DC002002E098
:1035F000A6EB6400401E6849086205EB6400401EAB
:10360000D9F80410884202DBD9F8040009E005EB80
:103610006400401E002801DC002002E005EB64008D
:10362000401E5D49C969401A401C5B4948614862B7
:1036300006EB6400401CD9F80810884202DBD9F878
:10364000080009E006EB6400401C002801DC0020B3
:1036500002E006EB6400401C4F49096A401A401C16
:103660004D4988618862496A4B4A926A01FB02F0BF
:10367000FCF7FAFD4849086100BFFEE70027DDF8C6
:10368000088074E0444B1A7806EB0801E819434BB4
:1036900053F82AC04B46E0473F4B1A7806EB080127
:1036A00005EB0B03D81B3D4B53F82AC04B46E047B4
:1036B000394B1A7806EB0B03A3EB0801E819374BDB
:1036C00053F82AC04B46E047334B1A7806EB0B03FE
:1036D000A3EB080105EB0B03D81B304B53F82AC0B2
:1036E0004B46E0472C4B1A78F11905EB08002B4BA1
:1036F00053F82AC04B46E047274B1A78F11905EBDF
:103700000B03A3EB0800254B53F82AC04B46E047B8
:10371000214B1A7806EB0B03D91B05EB08001F4B56
:1037200053F82AC04B46E0471B4B1A7806EB0B03B5
:10373000D91B05EB0B03A3EB0800184B53F82AC069
:103740004B46E0470198002806DC062000EB870185
:1037500001980844019009E0A7EB08000A2101EB59
:103760008001019808440190A8F101087F1C474599
:1037700088DD009860B108490869FCF7A4FD064897
:103780000021C16101624162816201614161816127
:103790000020BDE8FE8F000058000020C868000827
:1037A0006420084988604AF64440C860FF200870D9
:1037B00003204860002008610021024881614161C6
:1037C00000207047580000202DE9F05F05460E46A6
:1037D00017469846DDE90A4ABAF1000F0AD0BAF155
:1037E000010F08D0BAF1020F03D0BAF1070F7CD154
:1037F00017E000BF00BFB14610E0AB460AE05148F9
:103800000278514850F82AC0234649465846E047B6
:103810000BF1010BBB45F2DD09F10109C145ECDDFE
:103820008BE0BAF1070F04D14648006908B90120BE
:1038300000E000208346BBF1000F45D06068A8423D
:1038400001DC606804E0002D01DC002000E0284677
:103850003C49C861A068B04201DCA06804E0002EC9
:1038600001DC002000E03046364908626068B8425A
:1038700001DC606804E0002F01DC002000E0384635
:103880003049C969401A401C2E4948614862A06805
:10389000404501DCA06805E0B8F1000F01DC002024
:1038A00000E040462749096A401A401C25498861C2
:1038B0008862496A234A926A01FB02F0FCF7D4FC51
:1038C0002049086100BFFEE7B1461EE01D4BD3F85A
:1038D00010C01B6AA9EB030E1A4B5B690EFB03C3F6
:1038E000DFF860C0DCF81CC000E025E0A5EB0C0CA4
:1038F00003EB0C01D4E9003C09FB0C3358197B1B8A
:103900005A1CFCF74CFE09F10109C145DEDDBBF193
:10391000000F10D000200B49C86100210948016246
:10392000816281614162416101460869FCF7CBFC1B
:1039300000200449086100E000BF00BF0020BDE88E
:10394000F09F000058000020C86800082DE9F047EB
:103950008046894615461E46DDE908A4072C01D19C
:1039600000BFFEE7474612E019480278194850F8B0
:1039700024C0534649463846E04715480278154862
:1039800050F824C0534631463846E0477F1CAF42CA
:10399000EADD09F1010712E00D4802780D4850F800
:1039A00024C0534639464046E04709480278094852
:1039B00050F824C0534639462846E0477F1CB7429A
:1039C000EADB072C01D100BFFEE70020BDE8F0874D
:1039D00058000020C868000810B50648007838B1C3
:1039E0002C2205490548FCF761FE002001490870BA
:1039F00010BD0000840000200006002058000020B8
:103A00002DE9FF4F83B0119E04990698401A401C7F
:103A1000029002984FEA600B072E00D100BF039876
:103A200000EB0B0412E086480278864850F82650D6
:103A30002046109B0499A84781480278814850F895
:103A400026502046109B0699A847641C0598A0EBB9
:103A50000B00A042E7DC4FEA4B00C0F103000190ED
:103A6000029800EBD0714910A0EB410109B9012186
:103A700000E000210F46039800EB0B090598A0EB2E
:103A80000B0A04985844A0EB070800245D46B6E0F2
:103A90006B4B1A7808EB05010AEB0400694B53F8ED
:103AA00026C0109BE047664B1A7808EB050109EB2E
:103AB0000703181B634B53F826C0109BE047604B6D
:103AC0001A7808EB0703591B0AEB04005D4B53F807
:103AD00026C0109BE0475A4B1A7808EB0703591B86
:103AE00009EB0703181B574B53F826C0109BE04700
:103AF00009EB0700001B009017E05148027808EB23
:103B00000501504850F826C0109B0098E0474C48EB
:103B1000027808EB0700411B4A4850F826C0109B6A
:103B20000098E0470098401C00900AEB04010098C0
:103B30008142E2DA424B1A7808EB04010AEB0500F5
:103B4000404B53F826C0109BE0473D4B1A7808EBDA
:103B5000040109EB0703581B3A4B53F826C0109B8E
:103B6000E047374B1A7808EB0703191B0AEB0500EF
:103B7000344B53F826C0109BE047314B1A7808EBC2
:103B80000703191B09EB0703581B2E4B53F826C0DC
:103B9000109BE04709EB0700401B009017E0284806
:103BA000027808EB0401274850F826C0109B0098C3
:103BB000E0472348027808EB0700011B214850F832
:103BC00026C0109B0098E0470098401C00900AEB2C
:103BD000050100988142E2DA0198002806DC0620FF
:103BE00000EB840101980844019007E0601B0A2162
:103BF00001EB80010198084401906D1E641CAC42E9
:103C000016DC09EB0700011B0398814210DB0AEB6D
:103C10000401059881420BDC09EB0700411B039866
:103C2000814205DB0AEB0501059881427FF730AF41
:103C3000072E00D100BF002007B0BDE8F08F0000C4
:103C400058000020C86800082DE9FF4F83B0119E7E
:103C500004990698401A401C029002984FEA6009A5
:103C6000072E00D100BF039800EB090412E064485E
:103C70000278644850F826502046109B0499A847C3
:103C80005F4802785F4850F826502046109B0699FE
:103C9000A847641C0598A0EB0900A042E7DC4FEAA6
:103CA0004900C0F103000190029800EBD071491067
:103CB000A0EB410109B9012100E000210F46039862
:103CC00000EB090A0598A0EB090B04984844A0EB07
:103CD000070800244D4672E0494B1A7808EB0501AD
:103CE0000BEB0400474B53F826C0109BE047444BB6
:103CF0001A7808EB05010AEB0703181B414B53F830
:103D000026C0109BE0473E4B1A7808EB0703591B6F
:103D10000BEB04003B4B53F826C0109BE047384B9D
:103D20001A7808EB0703591B0AEB0703181B354BDE
:103D300053F826C0109BE047314B1A7808EB04017A
:103D40000BEB05002F4B53F826C0109BE0472C4B84
:103D50001A7808EB04010AEB0703581B294B53F8A8
:103D600026C0109BE047264B1A7808EB0703191B67
:103D70000BEB0500234B53F826C0109BE047204B6C
:103D80001A7808EB0703191B0AEB0703581B1D4B96
:103D900053F826C0109BE0470198002806DC062057
:103DA00000EB840101980844019007E0601B0A21A0
:103DB00001EB80010198084401906D1E641CAC4227
:103DC00016DC0AEB0700011B0398814210DB0BEBAA
:103DD0000401059881420BDC0AEB0700411B0398A4
:103DE000814205DB0BEB0501059881427FF774AF3B
:103DF000072E00D100BF002007B0BDE8F08F000003
:103E000058000020C8680008014908707047000089
:103E100058000020024612B909B90020704729B99C
:103E2000002A01DD0520F9E70620F7E72AB9002975
:103E300001DD0720F2E70820F0E7C80F400040EA64
:103E4000D27383EA6300401CE8E770B505460C2096
:103E5000FCF70AFA0446A46064602560204670BD41
:103E60000146D1E90102904204D14868884201D15B
:103E7000012070470020FCE770B50446D4E9010139
:103E8000884204D16068A04201D1206870BDA56855
:103E9000A0680668A06880684460A0688068A06028
:103EA0002846FCF710FA3046F0E770B505460E4696
:103EB0000C20FCF7D9F904462660A868A06065606C
:103EC000A8684460AC60204670BD000000B585B0B5
:103ED00001214802FEF78AFB0020009001208DF8A6
:103EE00004008DF805004FF460200290002003903C
:103EF00002208DF8100069461748FDF793FD032353
:103F0000012208211448FDF7B5FD032302220921EF
:103F10001148FDF7AFFD01210F48FDF764FD0121B8
:103F20000D48FDF755FD0C48FDF700FE00BF0A489F
:103F3000FDF76EFD0028FAD10748FDF707FE00BF28
:103F40000548FDF75BFD0028FAD101210248FDF785
:103F5000F2FD05B000BD00000024014000B58BB0AB
:103F600001210846FEF712FB1148FDF70BFE114830
:103F70000090002002901048019002200390002041
:103F8000049080200590400006908000079020203B
:103F900008900002099000200A9069460448FDF745
:103FA00097FE01210248FDF7E1FD0BB000BD0000C6
:103FB000080002404C240140180000201CB580205D
:103FC000009000208DF804000C208DF805000120E1
:103FD0008DF806006846FDF7BFFE1CBD08B501213F
:103FE0000C20FEF703FB01210846FEF7FFFA8020B4
:103FF000ADF8000004208DF8030069460D48FDF778
:1040000015FF0120ADF8000000208DF8030069467F
:104010000948FDF70BFF0220ADF8000000208DF8E5
:10402000030069460448FDF701FF07210020FDF762
:10403000DDFE08BD00080140000C014000B585B060
:10404000114B0FCBCDE90323CDE901010E48103010
:104050000068009001210820FEF7C8FA69460B4865
:10406000FDF7E4FE01218805FEF7A0FA0848FEF7F7
:1040700067F901210648FEF757F901A90448FEF740
:10408000B1F905B000BD000074630008000C0140E8
:104090000058004008B54FF4C060FEF76BFA1720D7
:1040A0008DF8000001208DF801008DF802008DF8D8
:1040B00003006846FEF726FA08BD10B50446204600
:1040C00000F01AF810BD10B50446204600F088F83C
:1040D00010BD10B50446204600F0D6F910BD10B54D
:1040E0000446204600F040FB10BD10B504462046B3
:1040F00000F070FC10BD70472DE9FE4F0446A56C22
:10410000204600F05BFE3DB901210420FCF798F841
:10411000054620682860A564FEF732FEFFF7D2F856
:10412000207F08B9FF2000E000200290A06A01F083
:10413000EBFE0646206A01F0E7FE8146206B01F0A7
:10414000E3FE0746BE4201DB384604E04E4501DC93
:10415000484600E030460646A0687043A7EB0901D8
:1041600090FBF1F0216800EB01089DF80800FFF7D3
:104170004BFE02201949CDE90010D4F804C0D4F850
:104180000CA0D444ACF10103D4F800C0D4F808A0CA
:10419000D444ACF10102D4E90001FFF7D7FB286851
:1041A000404512DA9DF80800FFF72EFE02200B4969
:1041B000CDE90010D4F80CC062686244931E6268B6
:1041C000511C28684246FFF7FFFAC5F80080FEF749
:1041D000A1FFFFF701FCBDE8FE8F00002C000020CE
:1041E0002DE9F04F8FB00446A66C26B91120FCF7DC
:1041F0003BF80646A664204600F04CFEFEF7C0FDE4
:10420000FFF760F8202107A8FCF7E9FAB4F91800D5
:10421000FEF7A6FFA06A01F021FDCDE9020197A2F9
:10422000CDE90001202107A8FCF77EF807A9A068C6
:10423000FEF7D8FE8046002107AA02F808100020E9
:104240000690834611E007A810F80B002E280AD12B
:1042500007A90BF10100085C10B9002001F80B0060
:104260000120069008E00BF1010B07A8FCF778F994
:10427000584501D9C345E6DB00BF069820B9232283
:10428000414607A8FCF781FA07A8FEF789FD054615
:1042900000200590B4F91810E068401A616801EB3D
:1042A00060003F2801DB3F2011E0B4F91810E068FE
:1042B000401A616801EB6000002801DC002006E084
:1042C000B4F91810E068401A616801EB6000706092
:1042D0008146E07E012802D002283DD11FE0B4F9DA
:1042E0001810E068401A216801EB60007F2801DBAC
:1042F0007F2011E0B4F91810E068401A216801EB42
:104300006000002801DC002006E0B4F91810E06825
:10431000401A216801EB6000306005901DE0A06844
:10432000A968401A216801EB60007F2801DB7F202B
:104330000FE0A068A968401A216801EB600000281E
:1043400001DC002005E0A068A968401A216801EBA3
:1043500060003060059000E000BF00BFA07E0490C8
:10436000D5F800A0474800684FEAE901454A52687D
:1043700001FB020105980F18002048E0002234E0FC
:104380009AF80010802901DA012100E000219DF84F
:1043900010300BB1012300E00023594081B109EB3B
:1043A0000001CB1701EB5373DB10A1EBC30C01230E
:1043B00003FA0CF397F800C043EA0C033B7010E0DB
:1043C00009EB0001CB1701EB5373DB10A1EBC30C1E
:1043D000012303FA0CF397F800C02CEA030C87F8CA
:1043E00000C0521C0AF1010A7F1CA9689142C7D87B
:1043F000A9687F1A09EB0001491CC91009EB0002EA
:10440000B1EBE20F02DD1F4949680F44401C6968A7
:10441000814202D9E1688142B0D86868E168884287
:1044200001D2686800E0E068F060A868B06094F8C5
:104430003800C0B1FF20FFF7E7FC02201149CDE9A9
:104440000010D4F804C0D4F80CB0DC44ACF1010383
:10445000D4F800C0D4F808B0DC44ACF10102D4E9CF
:104460000001FFF773FA94F838003074FEF752FE3B
:10447000FFF7B2FA0FB0BDE8F08F0000252E3366CB
:10448000000000002C0000202DE9F04F8DB0044604
:10449000A76C204600F004FDFEF772FCFEF712FF49
:1044A000A07EFFF7B1FCA16820680844401E216887
:1044B000884209D9A16820680844401E2168401A32
:1044C000401C01EB50000CE0A16820680844401E2D
:1044D000A26821681144491E2268511A491C00EB48
:1044E00051000C90E16860680844401E6168884291
:1044F00009D9E16860680844401E6168401A401CA0
:1045000001EB50000CE0E16860680844401EE2687E
:1045100061681144491E6268511A491C00EB510040
:104520000B90D4E90210884201D2E06800E0A06854
:10453000814602208B4B4A460090DDE90B10FFF7C5
:1045400009F8A06A01F0E0FC8246206B01F0DCFC77
:10455000824503DB206B01F0D7FC0FE0A06A01F07D
:10456000D3FC8246206A01F0CFFC824503DC206A3E
:1045700001F0CAFC02E0A06A01F0C6FC0A90E06A01
:1045800001F0C2FC8246606B01F0BEFC824503DB99
:10459000606B01F0B9FC0FE0E06A01F0B5FC824607
:1045A000606A01F0B1FC824503DC606A01F0ACFC9A
:1045B00002E0E06A01F0A8FC099009EB49004FEA2B
:1045C000E008206A01F0A0FC0A99A1EB000A4FEA7A
:1045D00048000AFB00FA206B01F096FC8346206A33
:1045E00001F092FCABEB00009AFBF0F0A0EB0806A8
:1045F000606A01F089FC01460998A0EB010A4FEAC4
:1046000048000AFB00FA606B01F07EFC8346606A9A
:1046100001F07AFCABEB00009AFBF0F0A0EB080590
:10462000B9EBE90F01DC484606E00120B0EBE90FE9
:1046300000DB01E04FEAE900089029463046FFF729
:10464000E9FB079006FB06F005FB050108FB08F0F7
:1046500081425DDB304601F073FC0290284601F098
:104660006FFC0190029900F077FE039000F0A2FF2A
:104670000590404601F064FC0490059901F08CFC23
:10468000069001F041FC8246304601F059FC029050
:10469000284601F055FC0190029900F05DFE039060
:1046A00001F0E6F90590404601F04AFC04900599B6
:1046B00001F072FC069001F027FC8346BAF1000F6E
:1046C00001DD504601E0CAF100000646BBF1000FD3
:1046D00001DD584601E0CBF10000054607980928A6
:1046E00014D2DFE800F013070A0E11050C060D00C6
:1046F00000BF00BF00BF00BF08E0764206E000BF79
:1047000000BF76426D4201E06D4200BF00BF00BFB6
:10471000022000900B9A511B0C9A9019114B089A89
:10472000FEF7E0FD27B91420FBF79EFD0746A764BE
:10473000079838600C9881190898A1EB60007860A0
:104740000B98411B0898A1EB6001B9600898F860CC
:1047500008983861FEF7DEFCFFF73EF90DB0BDE8C2
:10476000F08F00002C0000202DE9F0478AB00446AD
:10477000202102A8FCF733F8204600F0C7FBFEF723
:10478000FFFAFEF79FFDA66C26B91120FBF76CFD22
:104790000646A664B4F91800FEF7E2FCA06A01F030
:1047A000B3FB05462B4689A2202102A8FBF7BCFDDE
:1047B00002A9A068FEF716FC02A900220A549DF87F
:1047C000080000286FD002A8FEF7EAFA05464FF06D
:1047D0000009B4F91810E068401A616801EB600044
:1047E0003F2801DB3F2011E0B4F91810E068401ABF
:1047F000616801EB6000002801DC002006E0B4F9EC
:104800001810E068401A616801EB600070600746AC
:10481000E07E012802D002283DD11FE0B4F9181033
:10482000E068401A216801EB60007F2801DB7F20EF
:1048300011E0B4F91810E068401A216801EB60003B
:10484000002801DC002006E0B4F91810E068401AE6
:10485000216801EB6000306081461DE0A068A96816
:10486000401A216801EB60007F2801DB7F200FE008
:10487000A068A968401A216801EB6000002801DCEB
:10488000002005E0A068A968401A216801EB6000DB
:104890003060814600E000BF00BFA07E0190D5F8E7
:1048A0000080002060E070E0002259E009EB020384
:1048B00007EB000C4FEAEC0CDFF814A1DAF804A0C7
:1048C0000CFB0A3198F80030802B01DA012300E05C
:1048D00000239DF804C0BCF1000F02D04FF0010C82
:1048E00001E04FF0000C83EA0C03DBB13B184FEA08
:1048F000E37C03EB5C7C4FEAEC0CA3EBCC0A4FF0BF
:10490000010C0CFA0AFCDFF8C8A0DAF800A01AF8CB
:1049100001A04CEA0A0CDFF8B8A0DAF800A00AF807
:1049200001C01AE03B184FEAE37C03EB5C7C4FEAE2
:10493000EC0CA3EBCC0A4FF0010C0CFA0AFCDFF8EC
:1049400090A0DAF800A01AF801A02AEA0C0ADFF811
:1049500080C0DCF800C00CF801A0521C08F101086E
:10496000A9689142A2D8401C6968814202D9E168D5
:10497000814299D86868E168884201D2686800E09D
:10498000E068F060A868B06000BF94F8380090B1AB
:10499000FF20FFF739FA02200D49CDE90010E76842
:1049A00065683D446B1EA76825683D446A1ED4E9CE
:1049B0000001FEF7CBFF94F838003074FEF7AAFB35
:1049C000FFF70AF80AB0BDE8F08700002564000090
:1049D0002C000020F0B589B00446A56C1DB902205A
:1049E000FBF742FC0546204600F096FAFEF7C8F9B0
:1049F000FEF768FC207F08B9FF2000E00020089047
:104A0000207F08B9002000E0FF2007909DF82000DB
:104A1000FFF7FAF994E80F0003AE0FC60598001FE0
:104A200005900698001F06900398801C0390049838
:104A3000801C049004F1280000284AD09DF8200032
:104A4000FFF7E2F902203B49CDE90010069E761EF1
:104A5000049FBB19059E761E039FBA193846049918
:104A6000FEF7CEFF9DF81C00FFF7CEF90220009064
:104A7000069E049B03EB560306F0010686F0010632
:104A8000991B059E039B3344069EA3EB5603581EB9
:104A90003246284BFEF726FC9DF82000FFF7B4F9BC
:104AA00002200090069E049B03EB560306F00106CD
:104AB00086F00106991B059E039B3344069EA3EBDB
:104AC0005603581E32461B4BFEF744FD012028704A
:104AD00028E09DF82000FFF797F902201549CDE95D
:104AE0000010069E761E049FBB19059E761E039F2E
:104AF000BA1938460499FFF7A7F802200090069EDD
:104B0000049B03EB560306F0010686F00106991B91
:104B1000069E039B03EB56003246064BFEF71AFD3A
:104B200000202870A564FEF7F5FAFEF755FF09B0DE
:104B3000F0BD00002C0000202DE900482DE9FC17F5
:104B4000EB460446204600F04FFAA66C26B9112029
:104B5000FBF78AFB0646A664FEF7B4FBFEF710F9E6
:104B6000B4F91800FEF7FCFA6169A068FEF73AFA9A
:104B700007464FF00008002F6FDD07F10B0020F013
:104B80000700ADEB000DE8463A4640466169FBF789
:104B90004DFE002008F807004046FEF701F90546E3
:104BA0000020CBF80400B4F91810E068401A6168DE
:104BB00001EB60003F2801DB3F2011E0B4F9181041
:104BC000E068401A616801EB6000002801DC002009
:104BD00006E0B4F91810E068401A616801EB600063
:104BE00070608146E07E012802D0022840D120E09A
:104BF000B4F91810E068401A216801EB60007F28C2
:104C000001DB7F2011E0B4F91810E068401A216838
:104C100001EB6000002801DC002006E0B4F9181068
:104C2000E068401A216801EB60003060CBF80400B6
:104C30001FE0A068A968401A216801EB60007F2886
:104C400001DB7F2010E0A068A968401A216801EB11
:104C50006000002802DC002006E086E0A068A96869
:104C6000401A216801EB60003060CBF8040000E0DE
:104C700000BF00BFA07ECBF80000D5F800A0002048
:104C800062E000225CE0DBF80430134409EB000C26
:104C90004FEAEC0CDFF820E1DEF804E00CFB0E310B
:104CA0009AF80030802B01DA012300E000239BF802
:104CB00000C0BCF1000F02D04FF0010C01E04FF03A
:104CC000000C83EA0C03E3B109EB00034FEAE37C39
:104CD00003EB5C7C4FEAEC0CA3EBCC0E4FF0010C29
:104CE0000CFA0EFCDFF8D0E0DEF800E01EF801E080
:104CF0004CEA0E0CDFF8C0E0DEF800E00EF801C070
:104D00001BE009EB00034FEAE37C03EB5C7C4FEA1A
:104D1000EC0CA3EBCC0E4FF0010C0CFA0EFCDFF800
:104D200098E0DEF800E01EF801E02EEA0C0EDFF855
:104D300088C0DCF800C00CF801E0521C0AF1010A3E
:104D4000A96891429FD8401C6968814202D9E168F4
:104D5000814296D86868E168884201D2686800E0BC
:104D6000E068F060A868B06000BF94F83800B0B1A7
:104D7000FF20FFF749F808200F4982B0CDE9001065
:104D8000D4F80CC0656865446B1ED4F808C025686B
:104D900065446A1ED4E90001FEF7D8FD02B094F81C
:104DA00038003074FEF718FEFEF7B4F9DD46BDE8B2
:104DB000FC17BDE8008800002C0000202DE9FE4F04
:104DC0000446A56CA06A01F09FF80646206A01F02F
:104DD0009BF88046206B01F097F881464E4501DB39
:104DE000484604E0464501DC404600E030460646C1
:104DF000A0687043A9EB080190FBF1F02168471807
:104E0000FDF7BEFFFEF75EFA207F08B9002000E044
:104E1000FF20029005BB9DF80800FEF7F5FF022079
:104E20001B49CDE90010D4F804C0D4F80CA0D44438
:104E3000ACF10203D4F800C0D4F808A0D444ACF11B
:104E40000202D4F804C00CF10101D4F800C00CF146
:104E50000100FEF7B9FC15E02868B84212DD9DF8A4
:104E60000800FEF7D1FF02200949CDE90010D4F86F
:104E70000CC060686044831E2A686068411C384624
:104E8000FEF7A2FCFEF746F9FEF7A6FDBDE8FE8F91
:104E90002C00002010B50446204600F0A5F810BDF7
:104EA0002DE9FC410446A56CFDF76AFFFEF70AFAFE
:104EB000207FFEF7A9FF85B902201349CDE9001034
:104EC000E76866683E44731EA76826683E44721E03
:104ED000D4E90001FEF778FC0FE002200A49CDE991
:104EE0000010AF682E693E44731E6F68EE683E4442
:104EF000721EA9683846FEF767FCFEF70BF9FEF74D
:104F00006BFDBDE8FC8100002C00002010B50446BC
:104F1000204600F069F810BDF0B587B00446A56CD6
:104F2000FDF72EFFFEF7CEF90DB9012000E00020BD
:104F30000646B5B1297804F1280008B1012000E047
:104F40000020814201D0012000E000200643687863
:104F500094F838104840304308B1012000E00020A8
:104F60000646CEB3207FFEF74FFF94E80F0003AF55
:104F70000FC70598001F05900698001F069003981C
:104F8000801C03900498801C049002201549CDE9F0
:104F90000010069F7F1EDDF810C00CEB0703059F75
:104FA0007F1EDDF80CC00CEB070260460499FEF78B
:104FB00027FD02200B49CDE90010D4F80CC067682A
:104FC00067447B1ED4F808C0276867447A1ED4E97A
:104FD0000001FEF7BBFC00BFFEF79CF8FEF7FCFCEF
:104FE00007B0F0BD2C0000202DE9FC410446A56C63
:104FF000FEF768F965BB207FFEF706FF02202C490B
:10500000CDE90010E76866683E44B31EA7682668CD
:105010003E44B21E6668711C2668701CFEF7D4FB05
:1050200094F8380000283ED0207FFEF7EDFE0220E5
:105030001F49CDE90010E76866683E44731EA76803
:1050400026683E44721ED4E90001FEF77FFC2AE088
:10505000207FFEF7D9FE02201549CDE900106E68C9
:10506000EF683E44731E2E68AF683E44721E696846
:105070002868FEF7A9FB287CA8B194F8380090B9FD
:10508000207FFEF7C1FE02200949CDE90010E76844
:1050900066683E44731EA76826683E44721ED4E9C3
:1050A0000001FEF753FCFEF797FCBDE8FC81000011
:1050B0002C000020012101F01EB900F0FBBD0021F1
:1050C000084600F05FBE6FF05E01080701F013B9FB
:1050D0002DE9F04D0D4614464FF07F41B1EB440FE2
:1050E0009EBF4FF0FF312960BDE8F08D4FF00040CA
:1050F00040EA0421C4F3C750783810F01F024A4B2D
:105100004FEA601CC2F120067B44C4F3C750A0F1F3
:1051100078004FEA601003EB800053F82C3008BF92
:10512000D0E901C612D0D0F804C093402CFA06F79B
:105130003B4387680CFA02FC27FA06F8C06807FAB6
:1051400002F2F0404CEA080C42EA0006A3FB0132EE
:10515000ACFB01C0A6FB016101EB0C068E4234BF23
:105160004FF0010C4FF0000CC1186144BCF1000F6E
:1051700002D0814202D903E0814201D2012000E045
:105180000020104400F120024FEA92188006CA0C59
:1051900040EA42304F03C5F8008000F0D1FE82465D
:1051A000384600F0E5FE6FF0120101F0A4F8074662
:1051B000304600F0DDFE6FF0250101F09CF88346DB
:1051C0003946504600F076FD594600F073FD00F573
:1051D00000666FF30B065146304600F0E3FF394698
:1051E00000F0E0FF594600F0D3FF104900F0D4FE74
:1051F00007460F49304600F0CFFE394600F05AFD11
:1052000007460C49304600F0C7FE394600F052FD13
:1052100014F0004F08BFBDE8F08DC8F1805180F058
:1052200000402960BDE8F08DF4170000DB0FC92FA6
:1052300022AAFD290000C92F2DE9F84F04460D468A
:1052400016469B460A9F04B115B90020BDE8F88FA9
:10525000002F08DB0C98002805DB0B98002802DBE8
:105260000D98002801DA0020F0E70C98C01B401CC4
:1052700000FB06F8A146DDF82CA00CE00BFB0A7041
:10528000704300900098291842464846FBF7CCF935
:10529000C1440AF1010A0D988245EFD92046D5E7AD
:1052A00070B504460D4600BF4FF400311C48FDF7B1
:1052B0007BF80028F8D101211948FDF75DF800BFFF
:1052C00018491748FDF71BF80028F9D0002278216B
:1052D0001348FDF7FDF800BF13491148FDF70FF81B
:1052E0000028F9D021460E48FDF7FBF800BF0E4913
:1052F000891C0B48FDF703F80028F8D02946084818
:10530000FDF7EFF800BF0849891C0548FCF7F7FFD7
:105310000028F8D001210248FDF73AF870BD0000DE
:1053200000580040010003008200070010B5044649
:1053300021460020FFF7B4FF10BD10B504462146FA
:105340004020FFF7ADFF10BD30380A2801D2012000
:1053500070470020704700002DE9F0474FF0684289
:1053600002EB40030C460546B3F1654F3CBF02EB30
:105370004102B2F1654F7CD2C0F3C753C1F3C752AB
:105380009A1A1B2A06DD10F0004F14BF76487748A2
:10539000BDE8F08712F11A0F17DA11F0004F06D0AE
:1053A00010F0004F0CBF72487248BDE8F0872146EC
:1053B000284600F0E7FC0446FDF720FB042808BF60
:1053C000FFF781FE2046BDE8F0874200B2EB410FB7
:1053D00025D910F0004F19BF674F684E684F694ECE
:1053E000224685F0004415460A4680F000411046EA
:1053F0000A1A5200B2F1807F40D248406249DFF879
:105400008CA110F0004F18D04FF03F48384600F004
:10541000C9FE07465146304600F0C4FE17E011F0C1
:10542000004F04BF00263746E2D010F0004F19BFEE
:10543000574F584E584F594EDAE74FF07C58384680
:1054400000F038FC07465146304600F033FC064673
:105450004146284600F0A0FD214600F02BFC824684
:105460002146404600F098FD294600F091FE514645
:1054700000E037E000F086FC044604E021462846C0
:1054800000F080FC0446014600F086FD8046444959
:1054900000F082FD434900F00DFC414600F07CFD28
:1054A000414900F007FC414600F076FD3F4900F01D
:1054B00001FC414600F070FD3D4900F0FBFB054654
:1054C0004146204600F068FD294600F065FD314662
:1054D00000F0F0FB214600F0EDFB3946BDE8F04757
:1054E00000F0E8BB4FF07F42B2EB400F28BFB2EBB9
:1054F000410F03D2BDE8F047FFF7DFBD40EA0103EB
:105500005B0008BF44F0FF410AD0B2EB400F08BF78
:10551000B2EB410F06D125F0804024F080410546D2
:105520000C4629E7B2EB400F12BF5FEA410245F09B
:10553000FF4004F000413FF41FAF4A0092EA4003ED
:105540003FF51AAF002AACBF4FF09F464FF03E56D2
:10555000314600F021FD05463146204600F01CFD95
:1055600004462846214607E7DB0FC9BFDB0FC93FCA
:10557000DB0F4940DB0F49C00000C9BF22AAFDB9BB
:105580000000C93F22AAFD390060ED3EC30ACE37B4
:10559000000049C022AA7DBA0000494022AA7D3AF3
:1055A0002DAD65BD8FB8D53D0FB511BE61C84C3E60
:1055B000A8AAAABE2DE9F843044602464F48694608
:1055C000B0EB420F09D94FF0E640B0EB420F94BF69
:1055D00000204FF0FF30009030E0494B22F00040B7
:1055E000834271D94749204600F0D6FC00F0A0FD67
:1055F000804600F089FC00F00300009042494046DC
:1056000000F0CAFC05464149404600F0C5FC06468C
:105610003F49404600F0C0FC07463E49404600F086
:10562000BBFC214600F0B4FD394600F0BBFD31461D
:1056300000F0B8FD294600F0B5FD04462546009C63
:10564000002C45DB294614F0010F08461CD000F061
:10565000A3FC0646304900F09FFC304900F098FD5D
:10566000314600F099FC2E4900F024FB314600F051
:1056700093FC294600F090FC294600F01BFB14F037
:10568000020F1CD0BDE8F88300F086FC05462549D2
:1056900000F082FC244900F00DFB294600F07CFC60
:1056A000224900F007FB294600F076FC4FF07E51BE
:1056B00000F000FB14F0020F08BFBDE8F88380F093
:1056C0000040BDE8F883FFE71046FFF701FDB4E7AF
:1056D0006800B0F17F4F3CBF4FF07E50BDE8F883CB
:1056E00007D14FF00100FBF72EF9BDE8F843FFF7B3
:1056F000E6BC2846BDE8F843FFF7DCBCB61F927E47
:10570000490E494683F9223F1A61342C0020A23306
:1057100000A0FD390000C93F336D4C39DA82083CE6
:10572000A0AA2ABEB93AB2BACA9F2A3DDDFFFFBE7F
:1057300010B504466FF00400FDF704F9E11704EB1F
:105740005171C1F3C701074A11701046007800EB90
:105750004001C1EBC0104FF6FF7101EAC0000249E1
:10576000088010BD00000020020000200146114A00
:1057700012884A434FF0E0235A6100229A611A4688
:10578000126942F001021A6100BF4FF0E022106975
:1057900000F001021AB100F48032002AF5D04FF077
:1057A000E022126922F001024FF0E0231A61002288
:1057B0009A6170470200002094B04820FFF7B8FFBC
:1057C000FCF7F0FFFCF78FFEFCF7C6F90A20FFF7A5
:1057D000CDFFFCF7CDFFFCF705FC4C2101A8FAF743
:1057E000FEFF01A8FCF786FD06208DF814000A20B4
:1057F000019002902D2004900390002009904FF01A
:105800008B400D9000210A9101460E9100208DF8E9
:105810001500FF208DF81E000820ADF81C000220A6
:105820008DF81F0001208DF83C0000208DF820002D
:105830003A49088800F09CFB0B903849488800F0F2
:1058400097FB0C9001A8FCF7C1FC044601208DF8E1
:1058500014005A20019014200290232003900C2061
:10586000049001A8FCF7B2FC05460499029808448C
:10587000029001A8FCF7AAFC064600208DF814004F
:105880000A2003900398401E0199081A019024A051
:10589000069001A8FCF79AFC074604990298401A62
:1058A000029020A0069001A8FCF790FC80462046BC
:1058B000FCF7F6FC2846FCF7F3FC3046FCF7F0FC5E
:1058C0004046FCF7EDFC3846FCF7EAFC24E01349BF
:1058D000488800F04DFB81461049088800F048FBDD
:1058E00082464A4651462046FCF736FC0B4908885A
:1058F00000F03EFB8146002249462846FCF72CFC7E
:105900000649488800F034FB81460022494630466B
:10591000FCF722FCFCF786FBD9E70000180000200A
:1059200059000000580000002DE9F0418C4606ACFB
:10593000F0CC41684FF00008C4F80080C5F8008042
:1059400091F80180C6F8008091F80080C7F80080C7
:10595000BDE8F08130B54468A1F1200504EBC50431
:105960006578156000251D6030BD30B51C46436864
:1059700000250D60156030BD10B5034614460A467B
:105980005960002010BD2DE9F05F07460D46DDE9A6
:105990000BABDDF83490DDF828807C684846FAF7D8
:1059A000B9FC00B900BFA9F1200004EBC00466688F
:1059B000002218E0002110E0002009E0335C0B41D8
:1059C00003F001030BB9002300E0FF232B54401C1C
:1059D00063788342F2DC4544491C0829ECDB60789B
:1059E00006440832454420789042E3DCBDE8F09F4D
:1059F00002460B4651684FF07E50704770B5054621
:105A000000F096FB04460146284600F0CBFB15F05B
:105A1000004F4FF07F410ED0B0F13F4F28BFB1EBA8
:105A2000400F0ED2B0F17C5F1DDDB1EB400F1AD3F9
:105A300013E0044617E0B0F13F4F08D9B1EB400F37
:105A400005D34FF07E51204600F0ACFBF1E7B0F1FA
:105A50007C5F08DBB1EB400F05D34FF07E51204651
:105A600000F028F9E5E7284664F31E0070BD000049
:105A70002DE9F8430446024652486946B0EB420F0E
:105A800009D94FF0E640B0EB420F94BF00204FF031
:105A9000FF30009030E04C4B22F00040834271D93F
:105AA0004A49204600F078FA00F042FB804600F0B8
:105AB0002BFA00F0030000904549404600F06CFAD4
:105AC00005464449404600F067FA064642494046CA
:105AD00000F062FA07464149404600F05DFA21466F
